{
	"data": {
		"bytecode": {
			"linkReferences": {},
			"object": "60a0604052600060809081526002906200001a908262000171565b503480156200002857600080fd5b506040516200501f3803806200501f8339810160408190526200004b916200023d565b62000056336200007c565b600180546001600160a01b0319166001600160a01b03929092169190911790556200026f565b600080546001600160a01b038381166001600160a01b0319831681178455604051919092169283917f8be0079c531659141344cd1fd0a4f28419497f9722a3daafe3b4186f6b6457e09190a35050565b634e487b7160e01b600052604160045260246000fd5b600181811c90821680620000f757607f821691505b6020821081036200011857634e487b7160e01b600052602260045260246000fd5b50919050565b601f8211156200016c57600081815260208120601f850160051c81016020861015620001475750805b601f850160051c820191505b81811015620001685782815560010162000153565b5050505b505050565b81516001600160401b038111156200018d576200018d620000cc565b620001a5816200019e8454620000e2565b846200011e565b602080601f831160018114620001dd5760008415620001c45750858301515b600019600386901b1c1916600185901b17855562000168565b600085815260208120601f198616915b828110156200020e57888601518255948401946001909101908401620001ed565b50858210156200022d5787850151600019600388901b60f8161c191681555b5050505050600190811b01905550565b6000602082840312156200025057600080fd5b81516001600160a01b03811681146200026857600080fd5b9392505050565b614da0806200027f6000396000f3fe60806040523480156200001157600080fd5b5060043610620001925760003560e01c80638ac843ba11620000f0578063d01c3b4111620000a3578063dbb5313f116200007a578063dbb5313f14620003c6578063dcc6012814620003dd578063f0f3f2c814620003f6578063f2fde38b146200040d57600080fd5b8063d01c3b411462000381578063d1e6df971462000398578063db0bef5114620003af57600080fd5b80638ac843ba14620002f65780638da5cb5b14620003235780638f0c3b1a146200033557806392fd4fc2146200034c578063a98ad46c1462000356578063be57b5ef146200036a57600080fd5b806338e58d99116200014957806338e58d9914620002605780634240c9611462000290578063694cd7f914620002a7578063715018a614620002be5780637a2e2bfd14620002c857806389b94d2314620002df57600080fd5b8063040821fc14620001975780630748117514620001b0578063107046bd14620001da578063246fbd35146200020c5780632a197df814620002325780632fa8c4e11462000249575b600080fd5b620001ae620001a8366004620029a0565b62000424565b005b620001c7620001c1366004620029a0565b62000663565b6040519081526020015b60405180910390f35b620001f1620001eb366004620029a0565b62000739565b604051620001d19d9c9b9a9998979695949392919062002a02565b620002236200021d36600462002b54565b6200096c565b604051620001d1919062002d1a565b620001ae6200024336600462002d45565b62000c10565b620001ae6200025a36600462002d45565b62000e38565b620002776200027136600462002d78565b62000eb7565b6040516001600160a01b039091168152602001620001d1565b620001ae620002a136600462002d9b565b62000f58565b620001ae620002b836600462002dd6565b62001013565b620001ae620012fd565b620001ae620002d936600462002d78565b62001315565b620001ae620002f0366004620029a0565b62001510565b6200030d6200030736600462002d78565b6200157b565b60408051928352602083019190915201620001d1565b6000546001600160a01b031662000277565b620001ae6200034636600462002d78565b620016c0565b620001c760035481565b60015462000277906001600160a01b031681565b620001ae6200037b36600462002d45565b62001c71565b620001c762000392366004620029a0565b62001d34565b620001ae620003a936600462002d45565b62001dda565b620001ae620003c036600462002e18565b62001f6c565b620001ae620003d736600462002d9b565b620021e2565b620003e7620022d9565b604051620001d1919062002e55565b6200022362000407366004620029a0565b620027b7565b620001ae6200041e36600462002ebb565b620027f4565b6200042e62002873565b60045481106200045b5760405162461bcd60e51b8152600401620004529062002edb565b60405180910390fd5b6000620f424090506000600483815481106200047b576200047b62002f06565b60009182526020909120600d90910201805460405163a1167b0d60e01b81529192506001600160a01b03169063a1167b0d90620004bf903090869060040162002f1c565b600060405180830381600087803b158015620004da57600080fd5b505af1158015620004ef573d6000803e3d6000fd5b505060015483546040516370a0823160e01b81526001600160a01b03918216600482015260009450911691506370a0823190602401602060405180830381865afa15801562000542573d6000803e3d6000fd5b505050506040513d601f19601f8201168201806040525081019062000568919062002f35565b905082811015620005ca5760405162461bcd60e51b815260206004820152602560248201527f526966612062616c616e6365206973206c657373207468616e207465737420616044820152641b5bdd5b9d60da1b606482015260840162000452565b60015482546001600160a01b03918216916323b872dd9116620005f56000546001600160a01b031690565b866040518463ffffffff1660e01b8152600401620006169392919062002f4f565b6020604051808303816000875af115801562000636573d6000803e3d6000fd5b505050506040513d601f19601f820116820180604052508101906200065c919062002f73565b5050505050565b60045460009082106200068a5760405162461bcd60e51b8152600401620004529062002edb565b600154600480546001600160a01b03909216916370a08231919085908110620006b757620006b762002f06565b60009182526020909120600d909102015460405160e083901b6001600160e01b03191681526001600160a01b039091166004820152602401602060405180830381865afa1580156200070d573d6000803e3d6000fd5b505050506040513d601f19601f8201168201806040525081019062000733919062002f35565b92915050565b600481815481106200074a57600080fd5b60009182526020909120600d9091020180546001820180546001600160a01b039092169350906200077b9062002f97565b80601f0160208091040260200160405190810160405280929190818152602001828054620007a99062002f97565b8015620007fa5780601f10620007ce57610100808354040283529160200191620007fa565b820191906000526020600020905b815481529060010190602001808311620007dc57829003601f168201915b505050505090806002018054620008119062002f97565b80601f01602080910402602001604051908101604052809291908181526020018280546200083f9062002f97565b8015620008905780601f10620008645761010080835404028352916020019162000890565b820191906000526020600020905b8154815290600101906020018083116200087257829003601f168201915b505050505090806003015490806004015490806005015490806006015490806007015490806008015490806009018054620008cb9062002f97565b80601f0160208091040260200160405190810160405280929190818152602001828054620008f99062002f97565b80156200094a5780601f106200091e576101008083540402835291602001916200094a565b820191906000526020600020905b8154815290600101906020018083116200092c57829003601f168201915b50505050600a830154600b840154600c90940154929360ff909116929091508d565b620009766200291f565b6200098062002873565b6064851115620009a45760405162461bcd60e51b8152600401620004529062002fcd565b6001546040516000918c918c916001600160a01b0316908b90620009c89062002992565b620009d7949392919062003012565b604051809103906000f080158015620009f4573d6000803e3d6000fd5b506040516334ff261960e21b81529091506001600160a01b0382169063d3fc98649062000a2a9084908d90889060040162003058565b600060405180830381600087803b15801562000a4557600080fd5b505af115801562000a5a573d6000803e3d6000fd5b50505050826002908162000a6f9190620030d4565b50604080516101a0810182526001600160a01b038381168252602082018e81529282018d9052606082018c905260006080830181905260a083018b905260c083018a905260e0830181905261010083018c9052610120830189905261014083018190526101608301889052600480546101808501819052600181018255915282517f8a35acfbc15ff81a39ae7d344fd709f28e8600b4aa8c65c6b64bfe7fe36bd19b600d90920291820180546001600160a01b031916919093161782559251919283927f8a35acfbc15ff81a39ae7d344fd709f28e8600b4aa8c65c6b64bfe7fe36bd19c9091019062000b639082620030d4565b506040820151600282019062000b7a9082620030d4565b50606082015160038201556080820151600482015560a0820151600582015560c0820151600682015560e082015160078201556101008201516008820155610120820151600982019062000bcf9082620030d4565b50610140820151600a8201805460ff1916911515919091179055610160820151600b82015561018090910151600c909101559b9a5050505050505050505050565b62000c1a62002873565b600454821062000c3e5760405162461bcd60e51b8152600401620004529062002edb565b6000620f4240905060006004848154811062000c5e5762000c5e62002f06565b60009182526020909120600d90910201805460405163a1167b0d60e01b81529192506001600160a01b03169063a1167b0d9062000ca2903090869060040162002f1c565b600060405180830381600087803b15801562000cbd57600080fd5b505af115801562000cd2573d6000803e3d6000fd5b505060015483546040516370a0823160e01b81526001600160a01b03918216600482015260009450911691506370a0823190602401602060405180830381865afa15801562000d25573d6000803e3d6000fd5b505050506040513d601f19601f8201168201806040525081019062000d4b919062002f35565b90508281101562000db15760405162461bcd60e51b815260206004820152602960248201527f526966612062616c616e6365206973206c657373207468616e207472616e7366604482015268195c88185b5bdd5b9d60ba1b606482015260840162000452565b60015482546040516323b872dd60e01b81526001600160a01b03928316926323b872dd9262000dea929116908890889060040162002f4f565b6020604051808303816000875af115801562000e0a573d6000803e3d6000fd5b505050506040513d601f19601f8201168201806040525081019062000e30919062002f73565b505050505050565b60015460405163095ea7b360e01b81526001600160a01b039091169063095ea7b39062000e6c908490869060040162002f1c565b6020604051808303816000875af115801562000e8c573d6000803e3d6000fd5b505050506040513d601f19601f8201168201806040525081019062000eb2919062002f73565b505050565b6000806004848154811062000ed05762000ed062002f06565b60009182526020909120600d9091020180546040516331a9108f60e11b8152600481018690529192506001600160a01b031690636352211e90602401602060405180830381865afa15801562000f2a573d6000803e3d6000fd5b505050506040513d601f19601f8201168201806040525081019062000f509190620031a1565b949350505050565b600454831062000f7c5760405162461bcd60e51b8152600401620004529062002edb565b60006004848154811062000f945762000f9462002f06565b60009182526020909120600d909102015460405163a1167b0d60e01b81526001600160a01b039091169150819063a1167b0d9062000fd9908690869060040162002f1c565b600060405180830381600087803b15801562000ff457600080fd5b505af115801562001009573d6000803e3d6000fd5b5050505050505050565b6200101d62002873565b6004548410620010415760405162461bcd60e51b8152600401620004529062002edb565b6000806200105086846200157b565b915091506000600487815481106200106c576200106c62002f06565b600091825260208220600154600d929092020180546040516370a0823160e01b81526001600160a01b039182166004820152919450909116906370a0823190602401602060405180830381865afa158015620010cc573d6000803e3d6000fd5b505050506040513d601f19601f82011682018060405250810190620010f2919062002f35565b905060008111620011175760405162461bcd60e51b81526004016200045290620031c1565b815460405163a1167b0d60e01b81526001600160a01b039091169063a1167b0d906200114a903090859060040162002f1c565b600060405180830381600087803b1580156200116557600080fd5b505af11580156200117a573d6000803e3d6000fd5b505083546040516331a9108f60e11b8152600481018b9052600093506001600160a01b039091169150636352211e90602401602060405180830381865afa158015620011ca573d6000803e3d6000fd5b505050506040513d601f19601f82011682018060405250810190620011f09190620031a1565b60015484546040516323b872dd60e01b81529293506001600160a01b03918216926323b872dd926200122b92169085908a9060040162002f4f565b6020604051808303816000875af11580156200124b573d6000803e3d6000fd5b505050506040513d601f19601f8201168201806040525081019062001271919062002f73565b5060015483546040516323b872dd60e01b81526001600160a01b03928316926323b872dd92620012ab929116908b90899060040162002f4f565b6020604051808303816000875af1158015620012cb573d6000803e3d6000fd5b505050506040513d601f19601f82011682018060405250810190620012f1919062002f73565b50505050505050505050565b6200130762002873565b620013136000620028cf565b565b6200131f62002873565b6004548210620013435760405162461bcd60e51b8152600401620004529062002edb565b6000600483815481106200135b576200135b62002f06565b60009182526020909120600d90910201546040516331a9108f60e11b8152600481018490526001600160a01b0390911690636352211e90602401602060405180830381865afa158015620013b3573d6000803e3d6000fd5b505050506040513d601f19601f82011682018060405250810190620013d99190620031a1565b600154600480549293506000926001600160a01b03909216916370a082319190879081106200140c576200140c62002f06565b60009182526020909120600d909102015460405160e083901b6001600160e01b03191681526001600160a01b039091166004820152602401602060405180830381865afa15801562001462573d6000803e3d6000fd5b505050506040513d601f19601f8201168201806040525081019062001488919062002f35565b905060008111620014dc5760405162461bcd60e51b815260206004820152601d60248201527f496e73756666696369656e7420636f6e74726163742062616c616e6365000000604482015260640162000452565b60015460405163a9059cbb60e01b81526001600160a01b039091169063a9059cbb9062000616908590859060040162002f1c565b6200151a62002873565b60045481106200153e5760405162461bcd60e51b8152600401620004529062002edb565b60016004828154811062001556576200155662002f06565b60009182526020909120600d90910201600a01805460ff191691151591909117905550565b60045460009081908410620015a45760405162461bcd60e51b8152600401620004529062002edb565b6064831115620015c85760405162461bcd60e51b8152600401620004529062002fcd565b600060048581548110620015e057620015e062002f06565b600091825260208220600154600d929092020180546040516370a0823160e01b81526001600160a01b039182166004820152919450909116906370a0823190602401602060405180830381865afa15801562001640573d6000803e3d6000fd5b505050506040513d601f19601f8201168201806040525081019062001666919062002f35565b9050600081116200168b5760405162461bcd60e51b81526004016200045290620031c1565b8060646200169a878362003205565b620016a691906200321f565b9350620016b4848262003242565b94505050509250929050565b600060048381548110620016d857620016d862002f06565b90600052602060002090600d02019050600082116200174d5760405162461bcd60e51b815260206004820152602a60248201527f4e756d626572206f6620746f6b656e73206d7573742062652067726561746572604482015269207468616e207a65726f60b01b606482015260840162000452565b606481600301541115620017a45760405162461bcd60e51b815260206004820152601d60248201527f5061706920617175692073652070617361206465206c612063696e7461000000604482015260640162000452565b6000816008015483620017b8919062003205565b620017c790620f424062003205565b6001546040516323b872dd60e01b81529192506001600160a01b0316906323b872dd90620017fe9033903090869060040162002f4f565b6020604051808303816000875af11580156200181e573d6000803e3d6000fd5b505050506040513d601f19601f8201168201806040525081019062001844919062002f73565b6200189e5760405162461bcd60e51b815260206004820152602360248201527f4661696c656420746f207472616e73666572205553445420746f20636f6e74726044820152621858dd60ea1b606482015260840162000452565b600154825460405163095ea7b360e01b81526001600160a01b039283169263095ea7b392620018d592911690859060040162002f1c565b6020604051808303816000875af1158015620018f5573d6000803e3d6000fd5b505050506040513d601f19601f820116820180604052508101906200191b919062002f73565b620019735760405162461bcd60e51b815260206004820152602160248201527f417070726f76616c20746f20526966617320636f6e7472616374206661696c656044820152601960fa1b606482015260840162000452565b600154825460405163a9059cbb60e01b81526001600160a01b039283169263a9059cbb92620019aa92911690859060040162002f1c565b6020604051808303816000875af1158015620019ca573d6000803e3d6000fd5b505050506040513d601f19601f82011682018060405250810190620019f0919062002f73565b5060005b8381101562001a9a5782546004808501546040516334ff261960e21b81526001600160a01b039093169263d3fc98649262001a3792339290916002910162003258565b600060405180830381600087803b15801562001a5257600080fd5b505af115801562001a67573d6000803e3d6000fd5b5050506004840180549150600062001a7f8362003302565b9190505550808062001a919062003302565b915050620019f4565b50336001600160a01b0316847f2de0d25813b7ee3e192a74a42a2f64c302b46c8c28ac56b6f91c2547c82558f16305f5e1006004888154811062001ae25762001ae262002f06565b90600052602060002090600d020160060154606462001b02919062003242565b600154600480546001600160a01b03909216916370a0823191908c90811062001b2f5762001b2f62002f06565b60009182526020909120600d909102015460405160e083901b6001600160e01b03191681526001600160a01b039091166004820152602401602060405180830381865afa15801562001b85573d6000803e3d6000fd5b505050506040513d601f19601f8201168201806040525081019062001bab919062002f35565b62001bb7919062003205565b62001bc391906200321f565b6004888154811062001bd95762001bd962002f06565b6000918252602091829020600d90910201546040805163e2c7928160e01b815290516001600160a01b039092169263e2c79281926004808401938290030181865afa15801562001c2d573d6000803e3d6000fd5b505050506040513d601f19601f8201168201806040525081019062001c53919062002f35565b6040805192835260208301919091520160405180910390a350505050565b60405163095ea7b360e01b81527368f4bfc14a87357d4ff686872a4b3cba125c400890819063095ea7b39062001cae908590879060040162002f1c565b6020604051808303816000875af115801562001cce573d6000803e3d6000fd5b505050506040513d601f19601f8201168201806040525081019062001cf4919062002f73565b62000eb25760405162461bcd60e51b815260206004820152600f60248201526e105c1c1c9bdd985b0819985a5b1959608a1b604482015260640162000452565b6000806004838154811062001d4d5762001d4d62002f06565b60009182526020909120600154600d9092020180546040516370a0823160e01b81526001600160a01b039182166004820152919350909116906370a0823190602401602060405180830381865afa15801562001dad573d6000803e3d6000fd5b505050506040513d601f19601f8201168201806040525081019062001dd3919062002f35565b9392505050565b62001de462002873565b600454821062001e085760405162461bcd60e51b8152600401620004529062002edb565b60006004838154811062001e205762001e2062002f06565b600091825260208220600154600d929092020180546040516370a0823160e01b81526001600160a01b039182166004820152919450909116906370a0823190602401602060405180830381865afa15801562001e80573d6000803e3d6000fd5b505050506040513d601f19601f8201168201806040525081019062001ea6919062002f35565b90506000811162001ecb5760405162461bcd60e51b81526004016200045290620031c1565b815460405163a1167b0d60e01b81526001600160a01b039091169063a1167b0d9062001efe903090859060040162002f1c565b600060405180830381600087803b15801562001f1957600080fd5b505af115801562001f2e573d6000803e3d6000fd5b505060015484546040516323b872dd60e01b81526001600160a01b0392831694506323b872dd93506200061692909116908790869060040162002f4f565b62001f7662002873565b600454841062001f9a5760405162461bcd60e51b8152600401620004529062002edb565b60008062001fa986846200157b565b9150915060006004878154811062001fc55762001fc562002f06565b600091825260208220600154600d929092020180546040516370a0823160e01b81526001600160a01b039182166004820152919450909116906370a0823190602401602060405180830381865afa15801562002025573d6000803e3d6000fd5b505050506040513d601f19601f820116820180604052508101906200204b919062002f35565b905060008111620020705760405162461bcd60e51b81526004016200045290620031c1565b815460405163a1167b0d60e01b81526001600160a01b039091169063a1167b0d90620020a3903090859060040162002f1c565b600060405180830381600087803b158015620020be57600080fd5b505af1158015620020d3573d6000803e3d6000fd5b505060015484546040516323b872dd60e01b81526001600160a01b0392831694506323b872dd93506200211192909116908b90899060040162002f4f565b6020604051808303816000875af115801562002131573d6000803e3d6000fd5b505050506040513d601f19601f8201168201806040525081019062002157919062002f73565b5060015482546040516323b872dd60e01b81526001600160a01b03928316926323b872dd9262002191929116908a90889060040162002f4f565b6020604051808303816000875af1158015620021b1573d6000803e3d6000fd5b505050506040513d601f19601f82011682018060405250810190620021d7919062002f73565b505050505050505050565b600060048481548110620021fa57620021fa62002f06565b90600052602060002090600d0201905080600301548210620022515760405162461bcd60e51b815260206004820152600f60248201526e125b9d985b1a59081d1bdad95b9259608a1b604482015260640162000452565b8054604051632142170760e11b81526001600160a01b03909116906342842e0e90620022869083908790879060040162002f4f565b600060405180830381600087803b158015620022a157600080fd5b505af1158015620022b6573d6000803e3d6000fd5b50505060048201805491506000620022ce8362003302565b919050555050505050565b60045460609060009067ffffffffffffffff811115620022fd57620022fd62002aa9565b6040519080825280602002602001820160405280156200233a57816020015b620023266200291f565b8152602001906001900390816200231c5790505b50905060005b600454811015620027b1576004818154811062002361576200236162002f06565b6000918252602091829020604080516101a08101909152600d9092020180546001600160a01b031682526001810180549293919291840191620023a49062002f97565b80601f0160208091040260200160405190810160405280929190818152602001828054620023d29062002f97565b8015620024235780601f10620023f75761010080835404028352916020019162002423565b820191906000526020600020905b8154815290600101906020018083116200240557829003601f168201915b505050505081526020016002820180546200243e9062002f97565b80601f01602080910402602001604051908101604052809291908181526020018280546200246c9062002f97565b8015620024bd5780601f106200249157610100808354040283529160200191620024bd565b820191906000526020600020905b8154815290600101906020018083116200249f57829003601f168201915b50505050508152602001600382015481526020016004820154815260200160058201548152602001600682015481526020016007820154815260200160088201548152602001600982018054620025149062002f97565b80601f0160208091040260200160405190810160405280929190818152602001828054620025429062002f97565b8015620025935780601f10620025675761010080835404028352916020019162002593565b820191906000526020600020905b8154815290600101906020018083116200257557829003601f168201915b5050509183525050600a82015460ff1615156020820152600b8201546040820152600c909101546060909101528251839083908110620025d757620025d762002f06565b60200260200101819052506305f5e10060048281548110620025fd57620025fd62002f06565b90600052602060002090600d02016006015460646200261d919062003242565b600154600480546001600160a01b03909216916370a082319190869081106200264a576200264a62002f06565b60009182526020909120600d909102015460405160e083901b6001600160e01b03191681526001600160a01b039091166004820152602401602060405180830381865afa158015620026a0573d6000803e3d6000fd5b505050506040513d601f19601f82011682018060405250810190620026c6919062002f35565b620026d2919062003205565b620026de91906200321f565b828281518110620026f357620026f362002f06565b602002602001015160e00181815250508082828151811062002719576200271962002f06565b60200260200101516101800181815250508181815181106200273f576200273f62002f06565b60200260200101516080015182828151811062002760576200276062002f06565b6020026020010151606001516200277891906200331e565b8282815181106200278d576200278d62002f06565b60209081029190910101516060015280620027a88162003302565b91505062002340565b50919050565b620027c16200291f565b6000620027cd620022d9565b9050808381518110620027e457620027e462002f06565b6020026020010151915050919050565b620027fe62002873565b6001600160a01b038116620028655760405162461bcd60e51b815260206004820152602660248201527f4f776e61626c653a206e6577206f776e657220697320746865207a65726f206160448201526564647265737360d01b606482015260840162000452565b6200287081620028cf565b50565b6000546001600160a01b03163314620013135760405162461bcd60e51b815260206004820181905260248201527f4f776e61626c653a2063616c6c6572206973206e6f7420746865206f776e6572604482015260640162000452565b600080546001600160a01b038381166001600160a01b0319831681178455604051919092169283917f8be0079c531659141344cd1fd0a4f28419497f9722a3daafe3b4186f6b6457e09190a35050565b604051806101a0016040528060006001600160a01b0316815260200160608152602001606081526020016000815260200160008152602001600081526020016000815260200160008152602001600081526020016060815260200160001515815260200160008152602001600081525090565b611a36806200333583390190565b600060208284031215620029b357600080fd5b5035919050565b6000815180845260005b81811015620029e257602081850181015186830182015201620029c4565b506000602082860101526020601f19601f83011685010191505092915050565b6001600160a01b038e1681526101a06020820181905260009062002a299083018f620029ba565b828103604084015262002a3d818f620029ba565b90508c60608401528b60808401528a60a08401528960c08401528860e08401528761010084015282810361012084015262002a798188620029ba565b91505062002a8c61014083018615159052565b61016082019390935261018001529b9a5050505050505050505050565b634e487b7160e01b600052604160045260246000fd5b600082601f83011262002ad157600080fd5b813567ffffffffffffffff8082111562002aef5762002aef62002aa9565b604051601f8301601f19908116603f0116810190828211818310171562002b1a5762002b1a62002aa9565b8160405283815286602085880101111562002b3457600080fd5b836020870160208301376000602085830101528094505050505092915050565b60008060008060008060008060006101208a8c03121562002b7457600080fd5b893567ffffffffffffffff8082111562002b8d57600080fd5b62002b9b8d838e0162002abf565b9a5060208c013591508082111562002bb257600080fd5b62002bc08d838e0162002abf565b995060408c0135985060608c0135975060808c0135965060a08c0135955060c08c013591508082111562002bf357600080fd5b62002c018d838e0162002abf565b945060e08c013593506101008c013591508082111562002c2057600080fd5b5062002c2f8c828d0162002abf565b9150509295985092959850929598565b80516001600160a01b0316825260006101a0602083015181602086015262002c6a82860182620029ba565b9150506040830151848203604086015262002c868282620029ba565b915050606083015160608501526080830151608085015260a083015160a085015260c083015160c085015260e083015160e0850152610100808401518186015250610120808401518583038287015262002ce18382620029ba565b925050506101408084015162002cfa8287018215159052565b505061016083810151908501526101809283015192909301919091525090565b60208152600062001dd3602083018462002c3f565b6001600160a01b03811681146200287057600080fd5b6000806040838503121562002d5957600080fd5b82359150602083013562002d6d8162002d2f565b809150509250929050565b6000806040838503121562002d8c57600080fd5b50508035926020909101359150565b60008060006060848603121562002db157600080fd5b83359250602084013562002dc58162002d2f565b929592945050506040919091013590565b6000806000806080858703121562002ded57600080fd5b8435935060208501359250604085013562002e088162002d2f565b9396929550929360600135925050565b6000806000806080858703121562002e2f57600080fd5b84359350602085013562002e438162002d2f565b9250604085013562002e088162002d2f565b6000602080830181845280855180835260408601915060408160051b870101925083870160005b8281101562002eae57603f1988860301845262002e9b85835162002c3f565b9450928501929085019060010162002e7c565b5092979650505050505050565b60006020828403121562002ece57600080fd5b813562001dd38162002d2f565b602080825260119082015270125b9d985b1a59081c1c9bda9958dd1259607a1b604082015260600190565b634e487b7160e01b600052603260045260246000fd5b6001600160a01b03929092168252602082015260400190565b60006020828403121562002f4857600080fd5b5051919050565b6001600160a01b039384168152919092166020820152604081019190915260600190565b60006020828403121562002f8657600080fd5b8151801515811462001dd357600080fd5b600181811c9082168062002fac57607f821691505b602082108103620027b157634e487b7160e01b600052602260045260246000fd5b60208082526025908201527f50657263656e746167652063616e6e6f7420626520677265617465722074686160408201526406e203130360dc1b606082015260800190565b608081526000620030276080830187620029ba565b82810360208401526200303b8187620029ba565b6001600160a01b0395909516604084015250506060015292915050565b60018060a01b0384168152826020820152606060408201526000620030816060830184620029ba565b95945050505050565b601f82111562000eb257600081815260208120601f850160051c81016020861015620030b35750805b601f850160051c820191505b8181101562000e3057828155600101620030bf565b815167ffffffffffffffff811115620030f157620030f162002aa9565b620031098162003102845462002f97565b846200308a565b602080601f831160018114620031415760008415620031285750858301515b600019600386901b1c1916600185901b17855562000e30565b600085815260208120601f198616915b82811015620031725788860151825594840194600190910190840162003151565b5085821015620031915787850151600019600388901b60f8161c191681555b5050505050600190811b01905550565b600060208284031215620031b457600080fd5b815162001dd38162002d2f565b602080825260149082015273526966612062616c616e6365206973207a65726f60601b604082015260600190565b634e487b7160e01b600052601160045260246000fd5b8082028115828204841417620007335762000733620031ef565b6000826200323d57634e487b7160e01b600052601260045260246000fd5b500490565b81810381811115620007335762000733620031ef565b60018060a01b03841681526000602084818401526060604084015260008454620032828162002f97565b8060608701526080600180841660008114620032a75760018114620032c257620032f2565b60ff1985168984015283151560051b890183019550620032f2565b896000528660002060005b85811015620032ea5781548b8201860152908301908801620032cd565b8a0184019650505b50939a9950505050505050505050565b600060018201620033175762003317620031ef565b5060010190565b80820180821115620007335762000733620031ef56fe608060405260006008553480156200001657600080fd5b5060405162001a3638038062001a368339810160408190526200003991620001c8565b83836000620000498382620002ea565b506001620000588282620002ea565b505050620000756200006f620000ad60201b60201c565b620000b1565b600980546001600160a01b0319166001600160a01b0384161790556200009f81620f4240620003b6565b600a5550620003e292505050565b3390565b600680546001600160a01b038381166001600160a01b0319831681179093556040519116919082907f8be0079c531659141344cd1fd0a4f28419497f9722a3daafe3b4186f6b6457e090600090a35050565b634e487b7160e01b600052604160045260246000fd5b600082601f8301126200012b57600080fd5b81516001600160401b038082111562000148576200014862000103565b604051601f8301601f19908116603f0116810190828211818310171562000173576200017362000103565b816040528381526020925086838588010111156200019057600080fd5b600091505b83821015620001b4578582018301518183018401529082019062000195565b600093810190920192909252949350505050565b60008060008060808587031215620001df57600080fd5b84516001600160401b0380821115620001f757600080fd5b620002058883890162000119565b955060208701519150808211156200021c57600080fd5b506200022b8782880162000119565b604087015190945090506001600160a01b03811681146200024b57600080fd5b6060959095015193969295505050565b600181811c908216806200027057607f821691505b6020821081036200029157634e487b7160e01b600052602260045260246000fd5b50919050565b601f821115620002e557600081815260208120601f850160051c81016020861015620002c05750805b601f850160051c820191505b81811015620002e157828155600101620002cc565b5050505b505050565b81516001600160401b0381111562000306576200030662000103565b6200031e816200031784546200025b565b8462000297565b602080601f8311600181146200035657600084156200033d5750858301515b600019600386901b1c1916600185901b178555620002e1565b600085815260208120601f198616915b82811015620003875788860151825594840194600190910190840162000366565b5085821015620003a65787850151600019600388901b60f8161c191681555b5050505050600190811b01905550565b8082028115828204841417620003dc57634e487b7160e01b600052601160045260246000fd5b92915050565b61164480620003f26000396000f3fe608060405234801561001057600080fd5b50600436106101585760003560e01c8063715018a6116100c3578063b88d4fde1161007c578063b88d4fde146102c6578063c87b56dd146102d9578063d3fc9864146102ec578063e2c79281146102ff578063e985e9c514610308578063f2fde38b1461034457600080fd5b8063715018a61461026c5780638da5cb5b1461027457806395d89b4114610285578063a1167b0d1461028d578063a22cb465146102a0578063a98ad46c146102b357600080fd5b806323b872dd1161011557806323b872dd1461020457806324c979a31461021757806342842e0e146102205780635e65aff8146102335780636352211e1461024657806370a082311461025957600080fd5b806301ffc9a71461015d57806306fdde0314610185578063081812fc1461019a578063095ea7b3146101c55780630d39fc81146101da5780631f64e71f146101f1575b600080fd5b61017061016b366004611026565b610357565b60405190151581526020015b60405180910390f35b61018d6103a9565b60405161017c9190611090565b6101ad6101a83660046110a3565b61043b565b6040516001600160a01b03909116815260200161017c565b6101d86101d33660046110d8565b610462565b005b6101e3600a5481565b60405190815260200161017c565b6101d86101ff3660046110d8565b61057c565b6101d8610212366004611102565b610592565b6101e3600b5481565b6101d861022e366004611102565b6105c3565b6101d86102413660046110d8565b6105de565b6101ad6102543660046110a3565b610655565b6101e361026736600461113e565b6106b5565b6101d861073b565b6006546001600160a01b03166101ad565b61018d61074f565b6101d861029b3660046110d8565b61075e565b6101d86102ae366004611167565b610766565b6009546101ad906001600160a01b031681565b6101d86102d436600461122a565b610771565b61018d6102e73660046110a3565b6107a9565b6101d86102fa3660046112a6565b61084b565b6101e360085481565b610170610316366004611311565b6001600160a01b03918216600090815260056020908152604080832093909416825291909152205460ff1690565b6101d861035236600461113e565b610896565b60006001600160e01b031982166380ac58cd60e01b148061038857506001600160e01b03198216635b5e139f60e01b145b806103a357506301ffc9a760e01b6001600160e01b03198316145b92915050565b6060600080546103b890611344565b80601f01602080910402602001604051908101604052809291908181526020018280546103e490611344565b80156104315780601f1061040657610100808354040283529160200191610431565b820191906000526020600020905b81548152906001019060200180831161041457829003601f168201915b5050505050905090565b60006104468261090f565b506000908152600460205260409020546001600160a01b031690565b600061046d82610655565b9050806001600160a01b0316836001600160a01b0316036104df5760405162461bcd60e51b815260206004820152602160248201527f4552433732313a20617070726f76616c20746f2063757272656e74206f776e656044820152603960f91b60648201526084015b60405180910390fd5b336001600160a01b03821614806104fb57506104fb8133610316565b61056d5760405162461bcd60e51b815260206004820152603d60248201527f4552433732313a20617070726f76652063616c6c6572206973206e6f7420746f60448201527f6b656e206f776e6572206f7220617070726f76656420666f7220616c6c00000060648201526084016104d6565b610577838361096e565b505050565b6105846109dc565b61058e828261096e565b5050565b61059c3382610a36565b6105b85760405162461bcd60e51b81526004016104d69061137e565b610577838383610ab5565b61057783838360405180602001604052806000815250610771565b60095460405163095ea7b360e01b81526001600160a01b038481166004830152602482018490529091169063095ea7b3906044016020604051808303816000875af1158015610631573d6000803e3d6000fd5b505050506040513d601f19601f8201168201806040525081019061057791906113cb565b6000818152600260205260408120546001600160a01b0316806103a35760405162461bcd60e51b8152602060048201526018602482015277115490cdcc8c4e881a5b9d985b1a59081d1bdad95b88125160421b60448201526064016104d6565b60006001600160a01b03821661071f5760405162461bcd60e51b815260206004820152602960248201527f4552433732313a2061646472657373207a65726f206973206e6f7420612076616044820152683634b21037bbb732b960b91b60648201526084016104d6565b506001600160a01b031660009081526003602052604090205490565b6107436109dc565b61074d6000610c19565b565b6060600180546103b890611344565b6105de6109dc565b61058e338383610c6b565b61077b3383610a36565b6107975760405162461bcd60e51b81526004016104d69061137e565b6107a384848484610d39565b50505050565b60008181526007602052604090208054606091906107c690611344565b80601f01602080910402602001604051908101604052809291908181526020018280546107f290611344565b801561083f5780601f106108145761010080835404028352916020019161083f565b820191906000526020600020905b81548152906001019060200180831161082257829003601f168201915b50505050509050919050565b60005b828110156107a35761086284600854610d6c565b61086e60085483610ef7565b6008805490600061087e836113e8565b9190505550808061088e906113e8565b91505061084e565b61089e6109dc565b6001600160a01b0381166109035760405162461bcd60e51b815260206004820152602660248201527f4f776e61626c653a206e6577206f776e657220697320746865207a65726f206160448201526564647265737360d01b60648201526084016104d6565b61090c81610c19565b50565b6000818152600260205260409020546001600160a01b031661090c5760405162461bcd60e51b8152602060048201526018602482015277115490cdcc8c4e881a5b9d985b1a59081d1bdad95b88125160421b60448201526064016104d6565b600081815260046020526040902080546001600160a01b0319166001600160a01b03841690811790915581906109a382610655565b6001600160a01b03167f8c5be1e5ebec7d5bd14f71427d1e84f3dd0314c0f7b2291e5b200ac8c7c3b92560405160405180910390a45050565b6006546001600160a01b0316331461074d5760405162461bcd60e51b815260206004820181905260248201527f4f776e61626c653a2063616c6c6572206973206e6f7420746865206f776e657260448201526064016104d6565b600080610a4283610655565b9050806001600160a01b0316846001600160a01b03161480610a8957506001600160a01b0380821660009081526005602090815260408083209388168352929052205460ff165b80610aad5750836001600160a01b0316610aa28461043b565b6001600160a01b0316145b949350505050565b826001600160a01b0316610ac882610655565b6001600160a01b031614610aee5760405162461bcd60e51b81526004016104d69061140f565b6001600160a01b038216610b505760405162461bcd60e51b8152602060048201526024808201527f4552433732313a207472616e7366657220746f20746865207a65726f206164646044820152637265737360e01b60648201526084016104d6565b826001600160a01b0316610b6382610655565b6001600160a01b031614610b895760405162461bcd60e51b81526004016104d69061140f565b600081815260046020908152604080832080546001600160a01b03199081169091556001600160a01b0387811680865260038552838620805460001901905590871680865283862080546001019055868652600290945282852080549092168417909155905184937fddf252ad1be2c89b69c2b068fc378daa952ba7f163c4a11628f55a4df523b3ef91a4505050565b600680546001600160a01b038381166001600160a01b0319831681179093556040519116919082907f8be0079c531659141344cd1fd0a4f28419497f9722a3daafe3b4186f6b6457e090600090a35050565b816001600160a01b0316836001600160a01b031603610ccc5760405162461bcd60e51b815260206004820152601960248201527f4552433732313a20617070726f766520746f2063616c6c65720000000000000060448201526064016104d6565b6001600160a01b03838116600081815260056020908152604080832094871680845294825291829020805460ff191686151590811790915591519182527f17307eab39ab6107e8899845ad3d59bd9653f200f220920489ca2b5937696c31910160405180910390a3505050565b610d44848484610ab5565b610d5084848484610f0f565b6107a35760405162461bcd60e51b81526004016104d690611454565b6001600160a01b038216610dc25760405162461bcd60e51b815260206004820181905260248201527f4552433732313a206d696e7420746f20746865207a65726f206164647265737360448201526064016104d6565b6000818152600260205260409020546001600160a01b031615610e275760405162461bcd60e51b815260206004820152601c60248201527f4552433732313a20746f6b656e20616c7265616479206d696e7465640000000060448201526064016104d6565b6000818152600260205260409020546001600160a01b031615610e8c5760405162461bcd60e51b815260206004820152601c60248201527f4552433732313a20746f6b656e20616c7265616479206d696e7465640000000060448201526064016104d6565b6001600160a01b038216600081815260036020908152604080832080546001019055848352600290915280822080546001600160a01b0319168417905551839291907fddf252ad1be2c89b69c2b068fc378daa952ba7f163c4a11628f55a4df523b3ef908290a45050565b600082815260076020526040902061057782826114f4565b60006001600160a01b0384163b1561100557604051630a85bd0160e11b81526001600160a01b0385169063150b7a0290610f539033908990889088906004016115b4565b6020604051808303816000875af1925050508015610f8e575060408051601f3d908101601f19168201909252610f8b918101906115f1565b60015b610feb573d808015610fbc576040519150601f19603f3d011682016040523d82523d6000602084013e610fc1565b606091505b508051600003610fe35760405162461bcd60e51b81526004016104d690611454565b805181602001fd5b6001600160e01b031916630a85bd0160e11b149050610aad565b506001949350505050565b6001600160e01b03198116811461090c57600080fd5b60006020828403121561103857600080fd5b813561104381611010565b9392505050565b6000815180845260005b8181101561107057602081850181015186830182015201611054565b506000602082860101526020601f19601f83011685010191505092915050565b602081526000611043602083018461104a565b6000602082840312156110b557600080fd5b5035919050565b80356001600160a01b03811681146110d357600080fd5b919050565b600080604083850312156110eb57600080fd5b6110f4836110bc565b946020939093013593505050565b60008060006060848603121561111757600080fd5b611120846110bc565b925061112e602085016110bc565b9150604084013590509250925092565b60006020828403121561115057600080fd5b611043826110bc565b801515811461090c57600080fd5b6000806040838503121561117a57600080fd5b611183836110bc565b9150602083013561119381611159565b809150509250929050565b634e487b7160e01b600052604160045260246000fd5b600067ffffffffffffffff808411156111cf576111cf61119e565b604051601f8501601f19908116603f011681019082821181831017156111f7576111f761119e565b8160405280935085815286868601111561121057600080fd5b858560208301376000602087830101525050509392505050565b6000806000806080858703121561124057600080fd5b611249856110bc565b9350611257602086016110bc565b925060408501359150606085013567ffffffffffffffff81111561127a57600080fd5b8501601f8101871361128b57600080fd5b61129a878235602084016111b4565b91505092959194509250565b6000806000606084860312156112bb57600080fd5b6112c4846110bc565b925060208401359150604084013567ffffffffffffffff8111156112e757600080fd5b8401601f810186136112f857600080fd5b611307868235602084016111b4565b9150509250925092565b6000806040838503121561132457600080fd5b61132d836110bc565b915061133b602084016110bc565b90509250929050565b600181811c9082168061135857607f821691505b60208210810361137857634e487b7160e01b600052602260045260246000fd5b50919050565b6020808252602d908201527f4552433732313a2063616c6c6572206973206e6f7420746f6b656e206f776e6560408201526c1c881bdc88185c1c1c9bdd9959609a1b606082015260800190565b6000602082840312156113dd57600080fd5b815161104381611159565b60006001820161140857634e487b7160e01b600052601160045260246000fd5b5060010190565b60208082526025908201527f4552433732313a207472616e736665722066726f6d20696e636f72726563742060408201526437bbb732b960d91b606082015260800190565b60208082526032908201527f4552433732313a207472616e7366657220746f206e6f6e20455243373231526560408201527131b2b4bb32b91034b6b83632b6b2b73a32b960711b606082015260800190565b601f82111561057757600081815260208120601f850160051c810160208610156114cd5750805b601f850160051c820191505b818110156114ec578281556001016114d9565b505050505050565b815167ffffffffffffffff81111561150e5761150e61119e565b6115228161151c8454611344565b846114a6565b602080601f831160018114611557576000841561153f5750858301515b600019600386901b1c1916600185901b1785556114ec565b600085815260208120601f198616915b8281101561158657888601518255948401946001909101908401611567565b50858210156115a45787850151600019600388901b60f8161c191681555b5050505050600190811b01905550565b6001600160a01b03858116825284166020820152604081018390526080606082018190526000906115e79083018461104a565b9695505050505050565b60006020828403121561160357600080fd5b81516110438161101056fea2646970667358221220be71d14eb8ec1da51ace111790169e00a8c46b35c2f73356f37d00d134516c2f64736f6c63430008120033a26469706673582212206a96d126e1d594f5a9d8084b46d121646f5aba966bf04444a4d276e58f93033f64736f6c63430008120033",
			"opcodes": "PUSH1 0xA0 PUSH1 0x40 MSTORE PUSH1 0x0 PUSH1 0x80 SWAP1 DUP2 MSTORE PUSH1 0x2 SWAP1 PUSH3 0x1A SWAP1 DUP3 PUSH3 0x171 JUMP JUMPDEST POP CALLVALUE DUP1 ISZERO PUSH3 0x28 JUMPI PUSH1 0x0 DUP1 REVERT JUMPDEST POP PUSH1 0x40 MLOAD PUSH3 0x501F CODESIZE SUB DUP1 PUSH3 0x501F DUP4 CODECOPY DUP2 ADD PUSH1 0x40 DUP2 SWAP1 MSTORE PUSH3 0x4B SWAP2 PUSH3 0x23D JUMP JUMPDEST PUSH3 0x56 CALLER PUSH3 0x7C JUMP JUMPDEST PUSH1 0x1 DUP1 SLOAD PUSH1 0x1 PUSH1 0x1 PUSH1 0xA0 SHL SUB NOT AND PUSH1 0x1 PUSH1 0x1 PUSH1 0xA0 SHL SUB SWAP3 SWAP1 SWAP3 AND SWAP2 SWAP1 SWAP2 OR SWAP1 SSTORE PUSH3 0x26F JUMP JUMPDEST PUSH1 0x0 DUP1 SLOAD PUSH1 0x1 PUSH1 0x1 PUSH1 0xA0 SHL SUB DUP4 DUP2 AND PUSH1 0x1 PUSH1 0x1 PUSH1 0xA0 SHL SUB NOT DUP4 AND DUP2 OR DUP5 SSTORE PUSH1 0x40 MLOAD SWAP2 SWAP1 SWAP3 AND SWAP3 DUP4 SWAP2 PUSH32 0x8BE0079C531659141344CD1FD0A4F28419497F9722A3DAAFE3B4186F6B6457E0 SWAP2 SWAP1 LOG3 POP POP JUMP JUMPDEST PUSH4 0x4E487B71 PUSH1 0xE0 SHL PUSH1 0x0 MSTORE PUSH1 0x41 PUSH1 0x4 MSTORE PUSH1 0x24 PUSH1 0x0 REVERT JUMPDEST PUSH1 0x1 DUP2 DUP2 SHR SWAP1 DUP3 AND DUP1 PUSH3 0xF7 JUMPI PUSH1 0x7F DUP3 AND SWAP2 POP JUMPDEST PUSH1 0x20 DUP3 LT DUP2 SUB PUSH3 0x118 JUMPI PUSH4 0x4E487B71 PUSH1 0xE0 SHL PUSH1 0x0 MSTORE PUSH1 0x22 PUSH1 0x4 MSTORE PUSH1 0x24 PUSH1 0x0 REVERT JUMPDEST POP SWAP2 SWAP1 POP JUMP JUMPDEST PUSH1 0x1F DUP3 GT ISZERO PUSH3 0x16C JUMPI PUSH1 0x0 DUP2 DUP2 MSTORE PUSH1 0x20 DUP2 KECCAK256 PUSH1 0x1F DUP6 ADD PUSH1 0x5 SHR DUP2 ADD PUSH1 0x20 DUP7 LT ISZERO PUSH3 0x147 JUMPI POP DUP1 JUMPDEST PUSH1 0x1F DUP6 ADD PUSH1 0x5 SHR DUP3 ADD SWAP2 POP JUMPDEST DUP2 DUP2 LT ISZERO PUSH3 0x168 JUMPI DUP3 DUP2 SSTORE PUSH1 0x1 ADD PUSH3 0x153 JUMP JUMPDEST POP POP POP JUMPDEST POP POP POP JUMP JUMPDEST DUP2 MLOAD PUSH1 0x1 PUSH1 0x1 PUSH1 0x40 SHL SUB DUP2 GT ISZERO PUSH3 0x18D JUMPI PUSH3 0x18D PUSH3 0xCC JUMP JUMPDEST PUSH3 0x1A5 DUP2 PUSH3 0x19E DUP5 SLOAD PUSH3 0xE2 JUMP JUMPDEST DUP5 PUSH3 0x11E JUMP JUMPDEST PUSH1 0x20 DUP1 PUSH1 0x1F DUP4 GT PUSH1 0x1 DUP2 EQ PUSH3 0x1DD JUMPI PUSH1 0x0 DUP5 ISZERO PUSH3 0x1C4 JUMPI POP DUP6 DUP4 ADD MLOAD JUMPDEST PUSH1 0x0 NOT PUSH1 0x3 DUP7 SWAP1 SHL SHR NOT AND PUSH1 0x1 DUP6 SWAP1 SHL OR DUP6 SSTORE PUSH3 0x168 JUMP JUMPDEST PUSH1 0x0 DUP6 DUP2 MSTORE PUSH1 0x20 DUP2 KECCAK256 PUSH1 0x1F NOT DUP7 AND SWAP2 JUMPDEST DUP3 DUP2 LT ISZERO PUSH3 0x20E JUMPI DUP9 DUP7 ADD MLOAD DUP3 SSTORE SWAP5 DUP5 ADD SWAP5 PUSH1 0x1 SWAP1 SWAP2 ADD SWAP1 DUP5 ADD PUSH3 0x1ED JUMP JUMPDEST POP DUP6 DUP3 LT ISZERO PUSH3 0x22D JUMPI DUP8 DUP6 ADD MLOAD PUSH1 0x0 NOT PUSH1 0x3 DUP9 SWAP1 SHL PUSH1 0xF8 AND SHR NOT AND DUP2 SSTORE JUMPDEST POP POP POP POP POP PUSH1 0x1 SWAP1 DUP2 SHL ADD SWAP1 SSTORE POP JUMP JUMPDEST PUSH1 0x0 PUSH1 0x20 DUP3 DUP5 SUB SLT ISZERO PUSH3 0x250 JUMPI PUSH1 0x0 DUP1 REVERT JUMPDEST DUP2 MLOAD PUSH1 0x1 PUSH1 0x1 PUSH1 0xA0 SHL SUB DUP2 AND DUP2 EQ PUSH3 0x268 JUMPI PUSH1 0x0 DUP1 REVERT JUMPDEST SWAP4 SWAP3 POP POP POP JUMP JUMPDEST PUSH2 0x4DA0 DUP1 PUSH3 0x27F PUSH1 0x0 CODECOPY PUSH1 0x0 RETURN INVALID PUSH1 0x80 PUSH1 0x40 MSTORE CALLVALUE DUP1 ISZERO PUSH3 0x11 JUMPI PUSH1 0x0 DUP1 REVERT JUMPDEST POP PUSH1 0x4 CALLDATASIZE LT PUSH3 0x192 JUMPI PUSH1 0x0 CALLDATALOAD PUSH1 0xE0 SHR DUP1 PUSH4 0x8AC843BA GT PUSH3 0xF0 JUMPI DUP1 PUSH4 0xD01C3B41 GT PUSH3 0xA3 JUMPI DUP1 PUSH4 0xDBB5313F GT PUSH3 0x7A JUMPI DUP1 PUSH4 0xDBB5313F EQ PUSH3 0x3C6 JUMPI DUP1 PUSH4 0xDCC60128 EQ PUSH3 0x3DD JUMPI DUP1 PUSH4 0xF0F3F2C8 EQ PUSH3 0x3F6 JUMPI DUP1 PUSH4 0xF2FDE38B EQ PUSH3 0x40D JUMPI PUSH1 0x0 DUP1 REVERT JUMPDEST DUP1 PUSH4 0xD01C3B41 EQ PUSH3 0x381 JUMPI DUP1 PUSH4 0xD1E6DF97 EQ PUSH3 0x398 JUMPI DUP1 PUSH4 0xDB0BEF51 EQ PUSH3 0x3AF JUMPI PUSH1 0x0 DUP1 REVERT JUMPDEST DUP1 PUSH4 0x8AC843BA EQ PUSH3 0x2F6 JUMPI DUP1 PUSH4 0x8DA5CB5B EQ PUSH3 0x323 JUMPI DUP1 PUSH4 0x8F0C3B1A EQ PUSH3 0x335 JUMPI DUP1 PUSH4 0x92FD4FC2 EQ PUSH3 0x34C JUMPI DUP1 PUSH4 0xA98AD46C EQ PUSH3 0x356 JUMPI DUP1 PUSH4 0xBE57B5EF EQ PUSH3 0x36A JUMPI PUSH1 0x0 DUP1 REVERT JUMPDEST DUP1 PUSH4 0x38E58D99 GT PUSH3 0x149 JUMPI DUP1 PUSH4 0x38E58D99 EQ PUSH3 0x260 JUMPI DUP1 PUSH4 0x4240C961 EQ PUSH3 0x290 JUMPI DUP1 PUSH4 0x694CD7F9 EQ PUSH3 0x2A7 JUMPI DUP1 PUSH4 0x715018A6 EQ PUSH3 0x2BE JUMPI DUP1 PUSH4 0x7A2E2BFD EQ PUSH3 0x2C8 JUMPI DUP1 PUSH4 0x89B94D23 EQ PUSH3 0x2DF JUMPI PUSH1 0x0 DUP1 REVERT JUMPDEST DUP1 PUSH4 0x40821FC EQ PUSH3 0x197 JUMPI DUP1 PUSH4 0x7481175 EQ PUSH3 0x1B0 JUMPI DUP1 PUSH4 0x107046BD EQ PUSH3 0x1DA JUMPI DUP1 PUSH4 0x246FBD35 EQ PUSH3 0x20C JUMPI DUP1 PUSH4 0x2A197DF8 EQ PUSH3 0x232 JUMPI DUP1 PUSH4 0x2FA8C4E1 EQ PUSH3 0x249 JUMPI JUMPDEST PUSH1 0x0 DUP1 REVERT JUMPDEST PUSH3 0x1AE PUSH3 0x1A8 CALLDATASIZE PUSH1 0x4 PUSH3 0x29A0 JUMP JUMPDEST PUSH3 0x424 JUMP JUMPDEST STOP JUMPDEST PUSH3 0x1C7 PUSH3 0x1C1 CALLDATASIZE PUSH1 0x4 PUSH3 0x29A0 JUMP JUMPDEST PUSH3 0x663 JUMP JUMPDEST PUSH1 0x40 MLOAD SWAP1 DUP2 MSTORE PUSH1 0x20 ADD JUMPDEST PUSH1 0x40 MLOAD DUP1 SWAP2 SUB SWAP1 RETURN JUMPDEST PUSH3 0x1F1 PUSH3 0x1EB CALLDATASIZE PUSH1 0x4 PUSH3 0x29A0 JUMP JUMPDEST PUSH3 0x739 JUMP JUMPDEST PUSH1 0x40 MLOAD PUSH3 0x1D1 SWAP14 SWAP13 SWAP12 SWAP11 SWAP10 SWAP9 SWAP8 SWAP7 SWAP6 SWAP5 SWAP4 SWAP3 SWAP2 SWAP1 PUSH3 0x2A02 JUMP JUMPDEST PUSH3 0x223 PUSH3 0x21D CALLDATASIZE PUSH1 0x4 PUSH3 0x2B54 JUMP JUMPDEST PUSH3 0x96C JUMP JUMPDEST PUSH1 0x40 MLOAD PUSH3 0x1D1 SWAP2 SWAP1 PUSH3 0x2D1A JUMP JUMPDEST PUSH3 0x1AE PUSH3 0x243 CALLDATASIZE PUSH1 0x4 PUSH3 0x2D45 JUMP JUMPDEST PUSH3 0xC10 JUMP JUMPDEST PUSH3 0x1AE PUSH3 0x25A CALLDATASIZE PUSH1 0x4 PUSH3 0x2D45 JUMP JUMPDEST PUSH3 0xE38 JUMP JUMPDEST PUSH3 0x277 PUSH3 0x271 CALLDATASIZE PUSH1 0x4 PUSH3 0x2D78 JUMP JUMPDEST PUSH3 0xEB7 JUMP JUMPDEST PUSH1 0x40 MLOAD PUSH1 0x1 PUSH1 0x1 PUSH1 0xA0 SHL SUB SWAP1 SWAP2 AND DUP2 MSTORE PUSH1 0x20 ADD PUSH3 0x1D1 JUMP JUMPDEST PUSH3 0x1AE PUSH3 0x2A1 CALLDATASIZE PUSH1 0x4 PUSH3 0x2D9B JUMP JUMPDEST PUSH3 0xF58 JUMP JUMPDEST PUSH3 0x1AE PUSH3 0x2B8 CALLDATASIZE PUSH1 0x4 PUSH3 0x2DD6 JUMP JUMPDEST PUSH3 0x1013 JUMP JUMPDEST PUSH3 0x1AE PUSH3 0x12FD JUMP JUMPDEST PUSH3 0x1AE PUSH3 0x2D9 CALLDATASIZE PUSH1 0x4 PUSH3 0x2D78 JUMP JUMPDEST PUSH3 0x1315 JUMP JUMPDEST PUSH3 0x1AE PUSH3 0x2F0 CALLDATASIZE PUSH1 0x4 PUSH3 0x29A0 JUMP JUMPDEST PUSH3 0x1510 JUMP JUMPDEST PUSH3 0x30D PUSH3 0x307 CALLDATASIZE PUSH1 0x4 PUSH3 0x2D78 JUMP JUMPDEST PUSH3 0x157B JUMP JUMPDEST PUSH1 0x40 DUP1 MLOAD SWAP3 DUP4 MSTORE PUSH1 0x20 DUP4 ADD SWAP2 SWAP1 SWAP2 MSTORE ADD PUSH3 0x1D1 JUMP JUMPDEST PUSH1 0x0 SLOAD PUSH1 0x1 PUSH1 0x1 PUSH1 0xA0 SHL SUB AND PUSH3 0x277 JUMP JUMPDEST PUSH3 0x1AE PUSH3 0x346 CALLDATASIZE PUSH1 0x4 PUSH3 0x2D78 JUMP JUMPDEST PUSH3 0x16C0 JUMP JUMPDEST PUSH3 0x1C7 PUSH1 0x3 SLOAD DUP2 JUMP JUMPDEST PUSH1 0x1 SLOAD PUSH3 0x277 SWAP1 PUSH1 0x1 PUSH1 0x1 PUSH1 0xA0 SHL SUB AND DUP2 JUMP JUMPDEST PUSH3 0x1AE PUSH3 0x37B CALLDATASIZE PUSH1 0x4 PUSH3 0x2D45 JUMP JUMPDEST PUSH3 0x1C71 JUMP JUMPDEST PUSH3 0x1C7 PUSH3 0x392 CALLDATASIZE PUSH1 0x4 PUSH3 0x29A0 JUMP JUMPDEST PUSH3 0x1D34 JUMP JUMPDEST PUSH3 0x1AE PUSH3 0x3A9 CALLDATASIZE PUSH1 0x4 PUSH3 0x2D45 JUMP JUMPDEST PUSH3 0x1DDA JUMP JUMPDEST PUSH3 0x1AE PUSH3 0x3C0 CALLDATASIZE PUSH1 0x4 PUSH3 0x2E18 JUMP JUMPDEST PUSH3 0x1F6C JUMP JUMPDEST PUSH3 0x1AE PUSH3 0x3D7 CALLDATASIZE PUSH1 0x4 PUSH3 0x2D9B JUMP JUMPDEST PUSH3 0x21E2 JUMP JUMPDEST PUSH3 0x3E7 PUSH3 0x22D9 JUMP JUMPDEST PUSH1 0x40 MLOAD PUSH3 0x1D1 SWAP2 SWAP1 PUSH3 0x2E55 JUMP JUMPDEST PUSH3 0x223 PUSH3 0x407 CALLDATASIZE PUSH1 0x4 PUSH3 0x29A0 JUMP JUMPDEST PUSH3 0x27B7 JUMP JUMPDEST PUSH3 0x1AE PUSH3 0x41E CALLDATASIZE PUSH1 0x4 PUSH3 0x2EBB JUMP JUMPDEST PUSH3 0x27F4 JUMP JUMPDEST PUSH3 0x42E PUSH3 0x2873 JUMP JUMPDEST PUSH1 0x4 SLOAD DUP2 LT PUSH3 0x45B JUMPI PUSH1 0x40 MLOAD PUSH3 0x461BCD PUSH1 0xE5 SHL DUP2 MSTORE PUSH1 0x4 ADD PUSH3 0x452 SWAP1 PUSH3 0x2EDB JUMP JUMPDEST PUSH1 0x40 MLOAD DUP1 SWAP2 SUB SWAP1 REVERT JUMPDEST PUSH1 0x0 PUSH3 0xF4240 SWAP1 POP PUSH1 0x0 PUSH1 0x4 DUP4 DUP2 SLOAD DUP2 LT PUSH3 0x47B JUMPI PUSH3 0x47B PUSH3 0x2F06 JUMP JUMPDEST PUSH1 0x0 SWAP2 DUP3 MSTORE PUSH1 0x20 SWAP1 SWAP2 KECCAK256 PUSH1 0xD SWAP1 SWAP2 MUL ADD DUP1 SLOAD PUSH1 0x40 MLOAD PUSH4 0xA1167B0D PUSH1 0xE0 SHL DUP2 MSTORE SWAP2 SWAP3 POP PUSH1 0x1 PUSH1 0x1 PUSH1 0xA0 SHL SUB AND SWAP1 PUSH4 0xA1167B0D SWAP1 PUSH3 0x4BF SWAP1 ADDRESS SWAP1 DUP7 SWAP1 PUSH1 0x4 ADD PUSH3 0x2F1C JUMP JUMPDEST PUSH1 0x0 PUSH1 0x40 MLOAD DUP1 DUP4 SUB DUP2 PUSH1 0x0 DUP8 DUP1 EXTCODESIZE ISZERO DUP1 ISZERO PUSH3 0x4DA JUMPI PUSH1 0x0 DUP1 REVERT JUMPDEST POP GAS CALL ISZERO DUP1 ISZERO PUSH3 0x4EF JUMPI RETURNDATASIZE PUSH1 0x0 DUP1 RETURNDATACOPY RETURNDATASIZE PUSH1 0x0 REVERT JUMPDEST POP POP PUSH1 0x1 SLOAD DUP4 SLOAD PUSH1 0x40 MLOAD PUSH4 0x70A08231 PUSH1 0xE0 SHL DUP2 MSTORE PUSH1 0x1 PUSH1 0x1 PUSH1 0xA0 SHL SUB SWAP2 DUP3 AND PUSH1 0x4 DUP3 ADD MSTORE PUSH1 0x0 SWAP5 POP SWAP2 AND SWAP2 POP PUSH4 0x70A08231 SWAP1 PUSH1 0x24 ADD PUSH1 0x20 PUSH1 0x40 MLOAD DUP1 DUP4 SUB DUP2 DUP7 GAS STATICCALL ISZERO DUP1 ISZERO PUSH3 0x542 JUMPI RETURNDATASIZE PUSH1 0x0 DUP1 RETURNDATACOPY RETURNDATASIZE PUSH1 0x0 REVERT JUMPDEST POP POP POP POP PUSH1 0x40 MLOAD RETURNDATASIZE PUSH1 0x1F NOT PUSH1 0x1F DUP3 ADD AND DUP3 ADD DUP1 PUSH1 0x40 MSTORE POP DUP2 ADD SWAP1 PUSH3 0x568 SWAP2 SWAP1 PUSH3 0x2F35 JUMP JUMPDEST SWAP1 POP DUP3 DUP2 LT ISZERO PUSH3 0x5CA JUMPI PUSH1 0x40 MLOAD PUSH3 0x461BCD PUSH1 0xE5 SHL DUP2 MSTORE PUSH1 0x20 PUSH1 0x4 DUP3 ADD MSTORE PUSH1 0x25 PUSH1 0x24 DUP3 ADD MSTORE PUSH32 0x526966612062616C616E6365206973206C657373207468616E20746573742061 PUSH1 0x44 DUP3 ADD MSTORE PUSH5 0x1B5BDD5B9D PUSH1 0xDA SHL PUSH1 0x64 DUP3 ADD MSTORE PUSH1 0x84 ADD PUSH3 0x452 JUMP JUMPDEST PUSH1 0x1 SLOAD DUP3 SLOAD PUSH1 0x1 PUSH1 0x1 PUSH1 0xA0 SHL SUB SWAP2 DUP3 AND SWAP2 PUSH4 0x23B872DD SWAP2 AND PUSH3 0x5F5 PUSH1 0x0 SLOAD PUSH1 0x1 PUSH1 0x1 PUSH1 0xA0 SHL SUB AND SWAP1 JUMP JUMPDEST DUP7 PUSH1 0x40 MLOAD DUP5 PUSH4 0xFFFFFFFF AND PUSH1 0xE0 SHL DUP2 MSTORE PUSH1 0x4 ADD PUSH3 0x616 SWAP4 SWAP3 SWAP2 SWAP1 PUSH3 0x2F4F JUMP JUMPDEST PUSH1 0x20 PUSH1 0x40 MLOAD DUP1 DUP4 SUB DUP2 PUSH1 0x0 DUP8 GAS CALL ISZERO DUP1 ISZERO PUSH3 0x636 JUMPI RETURNDATASIZE PUSH1 0x0 DUP1 RETURNDATACOPY RETURNDATASIZE PUSH1 0x0 REVERT JUMPDEST POP POP POP POP PUSH1 0x40 MLOAD RETURNDATASIZE PUSH1 0x1F NOT PUSH1 0x1F DUP3 ADD AND DUP3 ADD DUP1 PUSH1 0x40 MSTORE POP DUP2 ADD SWAP1 PUSH3 0x65C SWAP2 SWAP1 PUSH3 0x2F73 JUMP JUMPDEST POP POP POP POP POP JUMP JUMPDEST PUSH1 0x4 SLOAD PUSH1 0x0 SWAP1 DUP3 LT PUSH3 0x68A JUMPI PUSH1 0x40 MLOAD PUSH3 0x461BCD PUSH1 0xE5 SHL DUP2 MSTORE PUSH1 0x4 ADD PUSH3 0x452 SWAP1 PUSH3 0x2EDB JUMP JUMPDEST PUSH1 0x1 SLOAD PUSH1 0x4 DUP1 SLOAD PUSH1 0x1 PUSH1 0x1 PUSH1 0xA0 SHL SUB SWAP1 SWAP3 AND SWAP2 PUSH4 0x70A08231 SWAP2 SWAP1 DUP6 SWAP1 DUP2 LT PUSH3 0x6B7 JUMPI PUSH3 0x6B7 PUSH3 0x2F06 JUMP JUMPDEST PUSH1 0x0 SWAP2 DUP3 MSTORE PUSH1 0x20 SWAP1 SWAP2 KECCAK256 PUSH1 0xD SWAP1 SWAP2 MUL ADD SLOAD PUSH1 0x40 MLOAD PUSH1 0xE0 DUP4 SWAP1 SHL PUSH1 0x1 PUSH1 0x1 PUSH1 0xE0 SHL SUB NOT AND DUP2 MSTORE PUSH1 0x1 PUSH1 0x1 PUSH1 0xA0 SHL SUB SWAP1 SWAP2 AND PUSH1 0x4 DUP3 ADD MSTORE PUSH1 0x24 ADD PUSH1 0x20 PUSH1 0x40 MLOAD DUP1 DUP4 SUB DUP2 DUP7 GAS STATICCALL ISZERO DUP1 ISZERO PUSH3 0x70D JUMPI RETURNDATASIZE PUSH1 0x0 DUP1 RETURNDATACOPY RETURNDATASIZE PUSH1 0x0 REVERT JUMPDEST POP POP POP POP PUSH1 0x40 MLOAD RETURNDATASIZE PUSH1 0x1F NOT PUSH1 0x1F DUP3 ADD AND DUP3 ADD DUP1 PUSH1 0x40 MSTORE POP DUP2 ADD SWAP1 PUSH3 0x733 SWAP2 SWAP1 PUSH3 0x2F35 JUMP JUMPDEST SWAP3 SWAP2 POP POP JUMP JUMPDEST PUSH1 0x4 DUP2 DUP2 SLOAD DUP2 LT PUSH3 0x74A JUMPI PUSH1 0x0 DUP1 REVERT JUMPDEST PUSH1 0x0 SWAP2 DUP3 MSTORE PUSH1 0x20 SWAP1 SWAP2 KECCAK256 PUSH1 0xD SWAP1 SWAP2 MUL ADD DUP1 SLOAD PUSH1 0x1 DUP3 ADD DUP1 SLOAD PUSH1 0x1 PUSH1 0x1 PUSH1 0xA0 SHL SUB SWAP1 SWAP3 AND SWAP4 POP SWAP1 PUSH3 0x77B SWAP1 PUSH3 0x2F97 JUMP JUMPDEST DUP1 PUSH1 0x1F ADD PUSH1 0x20 DUP1 SWAP2 DIV MUL PUSH1 0x20 ADD PUSH1 0x40 MLOAD SWAP1 DUP2 ADD PUSH1 0x40 MSTORE DUP1 SWAP3 SWAP2 SWAP1 DUP2 DUP2 MSTORE PUSH1 0x20 ADD DUP3 DUP1 SLOAD PUSH3 0x7A9 SWAP1 PUSH3 0x2F97 JUMP JUMPDEST DUP1 ISZERO PUSH3 0x7FA JUMPI DUP1 PUSH1 0x1F LT PUSH3 0x7CE JUMPI PUSH2 0x100 DUP1 DUP4 SLOAD DIV MUL DUP4 MSTORE SWAP2 PUSH1 0x20 ADD SWAP2 PUSH3 0x7FA JUMP JUMPDEST DUP3 ADD SWAP2 SWAP1 PUSH1 0x0 MSTORE PUSH1 0x20 PUSH1 0x0 KECCAK256 SWAP1 JUMPDEST DUP2 SLOAD DUP2 MSTORE SWAP1 PUSH1 0x1 ADD SWAP1 PUSH1 0x20 ADD DUP1 DUP4 GT PUSH3 0x7DC JUMPI DUP3 SWAP1 SUB PUSH1 0x1F AND DUP3 ADD SWAP2 JUMPDEST POP POP POP POP POP SWAP1 DUP1 PUSH1 0x2 ADD DUP1 SLOAD PUSH3 0x811 SWAP1 PUSH3 0x2F97 JUMP JUMPDEST DUP1 PUSH1 0x1F ADD PUSH1 0x20 DUP1 SWAP2 DIV MUL PUSH1 0x20 ADD PUSH1 0x40 MLOAD SWAP1 DUP2 ADD PUSH1 0x40 MSTORE DUP1 SWAP3 SWAP2 SWAP1 DUP2 DUP2 MSTORE PUSH1 0x20 ADD DUP3 DUP1 SLOAD PUSH3 0x83F SWAP1 PUSH3 0x2F97 JUMP JUMPDEST DUP1 ISZERO PUSH3 0x890 JUMPI DUP1 PUSH1 0x1F LT PUSH3 0x864 JUMPI PUSH2 0x100 DUP1 DUP4 SLOAD DIV MUL DUP4 MSTORE SWAP2 PUSH1 0x20 ADD SWAP2 PUSH3 0x890 JUMP JUMPDEST DUP3 ADD SWAP2 SWAP1 PUSH1 0x0 MSTORE PUSH1 0x20 PUSH1 0x0 KECCAK256 SWAP1 JUMPDEST DUP2 SLOAD DUP2 MSTORE SWAP1 PUSH1 0x1 ADD SWAP1 PUSH1 0x20 ADD DUP1 DUP4 GT PUSH3 0x872 JUMPI DUP3 SWAP1 SUB PUSH1 0x1F AND DUP3 ADD SWAP2 JUMPDEST POP POP POP POP POP SWAP1 DUP1 PUSH1 0x3 ADD SLOAD SWAP1 DUP1 PUSH1 0x4 ADD SLOAD SWAP1 DUP1 PUSH1 0x5 ADD SLOAD SWAP1 DUP1 PUSH1 0x6 ADD SLOAD SWAP1 DUP1 PUSH1 0x7 ADD SLOAD SWAP1 DUP1 PUSH1 0x8 ADD SLOAD SWAP1 DUP1 PUSH1 0x9 ADD DUP1 SLOAD PUSH3 0x8CB SWAP1 PUSH3 0x2F97 JUMP JUMPDEST DUP1 PUSH1 0x1F ADD PUSH1 0x20 DUP1 SWAP2 DIV MUL PUSH1 0x20 ADD PUSH1 0x40 MLOAD SWAP1 DUP2 ADD PUSH1 0x40 MSTORE DUP1 SWAP3 SWAP2 SWAP1 DUP2 DUP2 MSTORE PUSH1 0x20 ADD DUP3 DUP1 SLOAD PUSH3 0x8F9 SWAP1 PUSH3 0x2F97 JUMP JUMPDEST DUP1 ISZERO PUSH3 0x94A JUMPI DUP1 PUSH1 0x1F LT PUSH3 0x91E JUMPI PUSH2 0x100 DUP1 DUP4 SLOAD DIV MUL DUP4 MSTORE SWAP2 PUSH1 0x20 ADD SWAP2 PUSH3 0x94A JUMP JUMPDEST DUP3 ADD SWAP2 SWAP1 PUSH1 0x0 MSTORE PUSH1 0x20 PUSH1 0x0 KECCAK256 SWAP1 JUMPDEST DUP2 SLOAD DUP2 MSTORE SWAP1 PUSH1 0x1 ADD SWAP1 PUSH1 0x20 ADD DUP1 DUP4 GT PUSH3 0x92C JUMPI DUP3 SWAP1 SUB PUSH1 0x1F AND DUP3 ADD SWAP2 JUMPDEST POP POP POP POP PUSH1 0xA DUP4 ADD SLOAD PUSH1 0xB DUP5 ADD SLOAD PUSH1 0xC SWAP1 SWAP5 ADD SLOAD SWAP3 SWAP4 PUSH1 0xFF SWAP1 SWAP2 AND SWAP3 SWAP1 SWAP2 POP DUP14 JUMP JUMPDEST PUSH3 0x976 PUSH3 0x291F JUMP JUMPDEST PUSH3 0x980 PUSH3 0x2873 JUMP JUMPDEST PUSH1 0x64 DUP6 GT ISZERO PUSH3 0x9A4 JUMPI PUSH1 0x40 MLOAD PUSH3 0x461BCD PUSH1 0xE5 SHL DUP2 MSTORE PUSH1 0x4 ADD PUSH3 0x452 SWAP1 PUSH3 0x2FCD JUMP JUMPDEST PUSH1 0x1 SLOAD PUSH1 0x40 MLOAD PUSH1 0x0 SWAP2 DUP13 SWAP2 DUP13 SWAP2 PUSH1 0x1 PUSH1 0x1 PUSH1 0xA0 SHL SUB AND SWAP1 DUP12 SWAP1 PUSH3 0x9C8 SWAP1 PUSH3 0x2992 JUMP JUMPDEST PUSH3 0x9D7 SWAP5 SWAP4 SWAP3 SWAP2 SWAP1 PUSH3 0x3012 JUMP JUMPDEST PUSH1 0x40 MLOAD DUP1 SWAP2 SUB SWAP1 PUSH1 0x0 CREATE DUP1 ISZERO DUP1 ISZERO PUSH3 0x9F4 JUMPI RETURNDATASIZE PUSH1 0x0 DUP1 RETURNDATACOPY RETURNDATASIZE PUSH1 0x0 REVERT JUMPDEST POP PUSH1 0x40 MLOAD PUSH4 0x34FF2619 PUSH1 0xE2 SHL DUP2 MSTORE SWAP1 SWAP2 POP PUSH1 0x1 PUSH1 0x1 PUSH1 0xA0 SHL SUB DUP3 AND SWAP1 PUSH4 0xD3FC9864 SWAP1 PUSH3 0xA2A SWAP1 DUP5 SWAP1 DUP14 SWAP1 DUP9 SWAP1 PUSH1 0x4 ADD PUSH3 0x3058 JUMP JUMPDEST PUSH1 0x0 PUSH1 0x40 MLOAD DUP1 DUP4 SUB DUP2 PUSH1 0x0 DUP8 DUP1 EXTCODESIZE ISZERO DUP1 ISZERO PUSH3 0xA45 JUMPI PUSH1 0x0 DUP1 REVERT JUMPDEST POP GAS CALL ISZERO DUP1 ISZERO PUSH3 0xA5A JUMPI RETURNDATASIZE PUSH1 0x0 DUP1 RETURNDATACOPY RETURNDATASIZE PUSH1 0x0 REVERT JUMPDEST POP POP POP POP DUP3 PUSH1 0x2 SWAP1 DUP2 PUSH3 0xA6F SWAP2 SWAP1 PUSH3 0x30D4 JUMP JUMPDEST POP PUSH1 0x40 DUP1 MLOAD PUSH2 0x1A0 DUP2 ADD DUP3 MSTORE PUSH1 0x1 PUSH1 0x1 PUSH1 0xA0 SHL SUB DUP4 DUP2 AND DUP3 MSTORE PUSH1 0x20 DUP3 ADD DUP15 DUP2 MSTORE SWAP3 DUP3 ADD DUP14 SWAP1 MSTORE PUSH1 0x60 DUP3 ADD DUP13 SWAP1 MSTORE PUSH1 0x0 PUSH1 0x80 DUP4 ADD DUP2 SWAP1 MSTORE PUSH1 0xA0 DUP4 ADD DUP12 SWAP1 MSTORE PUSH1 0xC0 DUP4 ADD DUP11 SWAP1 MSTORE PUSH1 0xE0 DUP4 ADD DUP2 SWAP1 MSTORE PUSH2 0x100 DUP4 ADD DUP13 SWAP1 MSTORE PUSH2 0x120 DUP4 ADD DUP10 SWAP1 MSTORE PUSH2 0x140 DUP4 ADD DUP2 SWAP1 MSTORE PUSH2 0x160 DUP4 ADD DUP9 SWAP1 MSTORE PUSH1 0x4 DUP1 SLOAD PUSH2 0x180 DUP6 ADD DUP2 SWAP1 MSTORE PUSH1 0x1 DUP2 ADD DUP3 SSTORE SWAP2 MSTORE DUP3 MLOAD PUSH32 0x8A35ACFBC15FF81A39AE7D344FD709F28E8600B4AA8C65C6B64BFE7FE36BD19B PUSH1 0xD SWAP1 SWAP3 MUL SWAP2 DUP3 ADD DUP1 SLOAD PUSH1 0x1 PUSH1 0x1 PUSH1 0xA0 SHL SUB NOT AND SWAP2 SWAP1 SWAP4 AND OR DUP3 SSTORE SWAP3 MLOAD SWAP2 SWAP3 DUP4 SWAP3 PUSH32 0x8A35ACFBC15FF81A39AE7D344FD709F28E8600B4AA8C65C6B64BFE7FE36BD19C SWAP1 SWAP2 ADD SWAP1 PUSH3 0xB63 SWAP1 DUP3 PUSH3 0x30D4 JUMP JUMPDEST POP PUSH1 0x40 DUP3 ADD MLOAD PUSH1 0x2 DUP3 ADD SWAP1 PUSH3 0xB7A SWAP1 DUP3 PUSH3 0x30D4 JUMP JUMPDEST POP PUSH1 0x60 DUP3 ADD MLOAD PUSH1 0x3 DUP3 ADD SSTORE PUSH1 0x80 DUP3 ADD MLOAD PUSH1 0x4 DUP3 ADD SSTORE PUSH1 0xA0 DUP3 ADD MLOAD PUSH1 0x5 DUP3 ADD SSTORE PUSH1 0xC0 DUP3 ADD MLOAD PUSH1 0x6 DUP3 ADD SSTORE PUSH1 0xE0 DUP3 ADD MLOAD PUSH1 0x7 DUP3 ADD SSTORE PUSH2 0x100 DUP3 ADD MLOAD PUSH1 0x8 DUP3 ADD SSTORE PUSH2 0x120 DUP3 ADD MLOAD PUSH1 0x9 DUP3 ADD SWAP1 PUSH3 0xBCF SWAP1 DUP3 PUSH3 0x30D4 JUMP JUMPDEST POP PUSH2 0x140 DUP3 ADD MLOAD PUSH1 0xA DUP3 ADD DUP1 SLOAD PUSH1 0xFF NOT AND SWAP2 ISZERO ISZERO SWAP2 SWAP1 SWAP2 OR SWAP1 SSTORE PUSH2 0x160 DUP3 ADD MLOAD PUSH1 0xB DUP3 ADD SSTORE PUSH2 0x180 SWAP1 SWAP2 ADD MLOAD PUSH1 0xC SWAP1 SWAP2 ADD SSTORE SWAP12 SWAP11 POP POP POP POP POP POP POP POP POP POP POP JUMP JUMPDEST PUSH3 0xC1A PUSH3 0x2873 JUMP JUMPDEST PUSH1 0x4 SLOAD DUP3 LT PUSH3 0xC3E JUMPI PUSH1 0x40 MLOAD PUSH3 0x461BCD PUSH1 0xE5 SHL DUP2 MSTORE PUSH1 0x4 ADD PUSH3 0x452 SWAP1 PUSH3 0x2EDB JUMP JUMPDEST PUSH1 0x0 PUSH3 0xF4240 SWAP1 POP PUSH1 0x0 PUSH1 0x4 DUP5 DUP2 SLOAD DUP2 LT PUSH3 0xC5E JUMPI PUSH3 0xC5E PUSH3 0x2F06 JUMP JUMPDEST PUSH1 0x0 SWAP2 DUP3 MSTORE PUSH1 0x20 SWAP1 SWAP2 KECCAK256 PUSH1 0xD SWAP1 SWAP2 MUL ADD DUP1 SLOAD PUSH1 0x40 MLOAD PUSH4 0xA1167B0D PUSH1 0xE0 SHL DUP2 MSTORE SWAP2 SWAP3 POP PUSH1 0x1 PUSH1 0x1 PUSH1 0xA0 SHL SUB AND SWAP1 PUSH4 0xA1167B0D SWAP1 PUSH3 0xCA2 SWAP1 ADDRESS SWAP1 DUP7 SWAP1 PUSH1 0x4 ADD PUSH3 0x2F1C JUMP JUMPDEST PUSH1 0x0 PUSH1 0x40 MLOAD DUP1 DUP4 SUB DUP2 PUSH1 0x0 DUP8 DUP1 EXTCODESIZE ISZERO DUP1 ISZERO PUSH3 0xCBD JUMPI PUSH1 0x0 DUP1 REVERT JUMPDEST POP GAS CALL ISZERO DUP1 ISZERO PUSH3 0xCD2 JUMPI RETURNDATASIZE PUSH1 0x0 DUP1 RETURNDATACOPY RETURNDATASIZE PUSH1 0x0 REVERT JUMPDEST POP POP PUSH1 0x1 SLOAD DUP4 SLOAD PUSH1 0x40 MLOAD PUSH4 0x70A08231 PUSH1 0xE0 SHL DUP2 MSTORE PUSH1 0x1 PUSH1 0x1 PUSH1 0xA0 SHL SUB SWAP2 DUP3 AND PUSH1 0x4 DUP3 ADD MSTORE PUSH1 0x0 SWAP5 POP SWAP2 AND SWAP2 POP PUSH4 0x70A08231 SWAP1 PUSH1 0x24 ADD PUSH1 0x20 PUSH1 0x40 MLOAD DUP1 DUP4 SUB DUP2 DUP7 GAS STATICCALL ISZERO DUP1 ISZERO PUSH3 0xD25 JUMPI RETURNDATASIZE PUSH1 0x0 DUP1 RETURNDATACOPY RETURNDATASIZE PUSH1 0x0 REVERT JUMPDEST POP POP POP POP PUSH1 0x40 MLOAD RETURNDATASIZE PUSH1 0x1F NOT PUSH1 0x1F DUP3 ADD AND DUP3 ADD DUP1 PUSH1 0x40 MSTORE POP DUP2 ADD SWAP1 PUSH3 0xD4B SWAP2 SWAP1 PUSH3 0x2F35 JUMP JUMPDEST SWAP1 POP DUP3 DUP2 LT ISZERO PUSH3 0xDB1 JUMPI PUSH1 0x40 MLOAD PUSH3 0x461BCD PUSH1 0xE5 SHL DUP2 MSTORE PUSH1 0x20 PUSH1 0x4 DUP3 ADD MSTORE PUSH1 0x29 PUSH1 0x24 DUP3 ADD MSTORE PUSH32 0x526966612062616C616E6365206973206C657373207468616E207472616E7366 PUSH1 0x44 DUP3 ADD MSTORE PUSH9 0x195C88185B5BDD5B9D PUSH1 0xBA SHL PUSH1 0x64 DUP3 ADD MSTORE PUSH1 0x84 ADD PUSH3 0x452 JUMP JUMPDEST PUSH1 0x1 SLOAD DUP3 SLOAD PUSH1 0x40 MLOAD PUSH4 0x23B872DD PUSH1 0xE0 SHL DUP2 MSTORE PUSH1 0x1 PUSH1 0x1 PUSH1 0xA0 SHL SUB SWAP3 DUP4 AND SWAP3 PUSH4 0x23B872DD SWAP3 PUSH3 0xDEA SWAP3 SWAP2 AND SWAP1 DUP9 SWAP1 DUP9 SWAP1 PUSH1 0x4 ADD PUSH3 0x2F4F JUMP JUMPDEST PUSH1 0x20 PUSH1 0x40 MLOAD DUP1 DUP4 SUB DUP2 PUSH1 0x0 DUP8 GAS CALL ISZERO DUP1 ISZERO PUSH3 0xE0A JUMPI RETURNDATASIZE PUSH1 0x0 DUP1 RETURNDATACOPY RETURNDATASIZE PUSH1 0x0 REVERT JUMPDEST POP POP POP POP PUSH1 0x40 MLOAD RETURNDATASIZE PUSH1 0x1F NOT PUSH1 0x1F DUP3 ADD AND DUP3 ADD DUP1 PUSH1 0x40 MSTORE POP DUP2 ADD SWAP1 PUSH3 0xE30 SWAP2 SWAP1 PUSH3 0x2F73 JUMP JUMPDEST POP POP POP POP POP POP JUMP JUMPDEST PUSH1 0x1 SLOAD PUSH1 0x40 MLOAD PUSH4 0x95EA7B3 PUSH1 0xE0 SHL DUP2 MSTORE PUSH1 0x1 PUSH1 0x1 PUSH1 0xA0 SHL SUB SWAP1 SWAP2 AND SWAP1 PUSH4 0x95EA7B3 SWAP1 PUSH3 0xE6C SWAP1 DUP5 SWAP1 DUP7 SWAP1 PUSH1 0x4 ADD PUSH3 0x2F1C JUMP JUMPDEST PUSH1 0x20 PUSH1 0x40 MLOAD DUP1 DUP4 SUB DUP2 PUSH1 0x0 DUP8 GAS CALL ISZERO DUP1 ISZERO PUSH3 0xE8C JUMPI RETURNDATASIZE PUSH1 0x0 DUP1 RETURNDATACOPY RETURNDATASIZE PUSH1 0x0 REVERT JUMPDEST POP POP POP POP PUSH1 0x40 MLOAD RETURNDATASIZE PUSH1 0x1F NOT PUSH1 0x1F DUP3 ADD AND DUP3 ADD DUP1 PUSH1 0x40 MSTORE POP DUP2 ADD SWAP1 PUSH3 0xEB2 SWAP2 SWAP1 PUSH3 0x2F73 JUMP JUMPDEST POP POP POP JUMP JUMPDEST PUSH1 0x0 DUP1 PUSH1 0x4 DUP5 DUP2 SLOAD DUP2 LT PUSH3 0xED0 JUMPI PUSH3 0xED0 PUSH3 0x2F06 JUMP JUMPDEST PUSH1 0x0 SWAP2 DUP3 MSTORE PUSH1 0x20 SWAP1 SWAP2 KECCAK256 PUSH1 0xD SWAP1 SWAP2 MUL ADD DUP1 SLOAD PUSH1 0x40 MLOAD PUSH4 0x31A9108F PUSH1 0xE1 SHL DUP2 MSTORE PUSH1 0x4 DUP2 ADD DUP7 SWAP1 MSTORE SWAP2 SWAP3 POP PUSH1 0x1 PUSH1 0x1 PUSH1 0xA0 SHL SUB AND SWAP1 PUSH4 0x6352211E SWAP1 PUSH1 0x24 ADD PUSH1 0x20 PUSH1 0x40 MLOAD DUP1 DUP4 SUB DUP2 DUP7 GAS STATICCALL ISZERO DUP1 ISZERO PUSH3 0xF2A JUMPI RETURNDATASIZE PUSH1 0x0 DUP1 RETURNDATACOPY RETURNDATASIZE PUSH1 0x0 REVERT JUMPDEST POP POP POP POP PUSH1 0x40 MLOAD RETURNDATASIZE PUSH1 0x1F NOT PUSH1 0x1F DUP3 ADD AND DUP3 ADD DUP1 PUSH1 0x40 MSTORE POP DUP2 ADD SWAP1 PUSH3 0xF50 SWAP2 SWAP1 PUSH3 0x31A1 JUMP JUMPDEST SWAP5 SWAP4 POP POP POP POP JUMP JUMPDEST PUSH1 0x4 SLOAD DUP4 LT PUSH3 0xF7C JUMPI PUSH1 0x40 MLOAD PUSH3 0x461BCD PUSH1 0xE5 SHL DUP2 MSTORE PUSH1 0x4 ADD PUSH3 0x452 SWAP1 PUSH3 0x2EDB JUMP JUMPDEST PUSH1 0x0 PUSH1 0x4 DUP5 DUP2 SLOAD DUP2 LT PUSH3 0xF94 JUMPI PUSH3 0xF94 PUSH3 0x2F06 JUMP JUMPDEST PUSH1 0x0 SWAP2 DUP3 MSTORE PUSH1 0x20 SWAP1 SWAP2 KECCAK256 PUSH1 0xD SWAP1 SWAP2 MUL ADD SLOAD PUSH1 0x40 MLOAD PUSH4 0xA1167B0D PUSH1 0xE0 SHL DUP2 MSTORE PUSH1 0x1 PUSH1 0x1 PUSH1 0xA0 SHL SUB SWAP1 SWAP2 AND SWAP2 POP DUP2 SWAP1 PUSH4 0xA1167B0D SWAP1 PUSH3 0xFD9 SWAP1 DUP7 SWAP1 DUP7 SWAP1 PUSH1 0x4 ADD PUSH3 0x2F1C JUMP JUMPDEST PUSH1 0x0 PUSH1 0x40 MLOAD DUP1 DUP4 SUB DUP2 PUSH1 0x0 DUP8 DUP1 EXTCODESIZE ISZERO DUP1 ISZERO PUSH3 0xFF4 JUMPI PUSH1 0x0 DUP1 REVERT JUMPDEST POP GAS CALL ISZERO DUP1 ISZERO PUSH3 0x1009 JUMPI RETURNDATASIZE PUSH1 0x0 DUP1 RETURNDATACOPY RETURNDATASIZE PUSH1 0x0 REVERT JUMPDEST POP POP POP POP POP POP POP POP JUMP JUMPDEST PUSH3 0x101D PUSH3 0x2873 JUMP JUMPDEST PUSH1 0x4 SLOAD DUP5 LT PUSH3 0x1041 JUMPI PUSH1 0x40 MLOAD PUSH3 0x461BCD PUSH1 0xE5 SHL DUP2 MSTORE PUSH1 0x4 ADD PUSH3 0x452 SWAP1 PUSH3 0x2EDB JUMP JUMPDEST PUSH1 0x0 DUP1 PUSH3 0x1050 DUP7 DUP5 PUSH3 0x157B JUMP JUMPDEST SWAP2 POP SWAP2 POP PUSH1 0x0 PUSH1 0x4 DUP8 DUP2 SLOAD DUP2 LT PUSH3 0x106C JUMPI PUSH3 0x106C PUSH3 0x2F06 JUMP JUMPDEST PUSH1 0x0 SWAP2 DUP3 MSTORE PUSH1 0x20 DUP3 KECCAK256 PUSH1 0x1 SLOAD PUSH1 0xD SWAP3 SWAP1 SWAP3 MUL ADD DUP1 SLOAD PUSH1 0x40 MLOAD PUSH4 0x70A08231 PUSH1 0xE0 SHL DUP2 MSTORE PUSH1 0x1 PUSH1 0x1 PUSH1 0xA0 SHL SUB SWAP2 DUP3 AND PUSH1 0x4 DUP3 ADD MSTORE SWAP2 SWAP5 POP SWAP1 SWAP2 AND SWAP1 PUSH4 0x70A08231 SWAP1 PUSH1 0x24 ADD PUSH1 0x20 PUSH1 0x40 MLOAD DUP1 DUP4 SUB DUP2 DUP7 GAS STATICCALL ISZERO DUP1 ISZERO PUSH3 0x10CC JUMPI RETURNDATASIZE PUSH1 0x0 DUP1 RETURNDATACOPY RETURNDATASIZE PUSH1 0x0 REVERT JUMPDEST POP POP POP POP PUSH1 0x40 MLOAD RETURNDATASIZE PUSH1 0x1F NOT PUSH1 0x1F DUP3 ADD AND DUP3 ADD DUP1 PUSH1 0x40 MSTORE POP DUP2 ADD SWAP1 PUSH3 0x10F2 SWAP2 SWAP1 PUSH3 0x2F35 JUMP JUMPDEST SWAP1 POP PUSH1 0x0 DUP2 GT PUSH3 0x1117 JUMPI PUSH1 0x40 MLOAD PUSH3 0x461BCD PUSH1 0xE5 SHL DUP2 MSTORE PUSH1 0x4 ADD PUSH3 0x452 SWAP1 PUSH3 0x31C1 JUMP JUMPDEST DUP2 SLOAD PUSH1 0x40 MLOAD PUSH4 0xA1167B0D PUSH1 0xE0 SHL DUP2 MSTORE PUSH1 0x1 PUSH1 0x1 PUSH1 0xA0 SHL SUB SWAP1 SWAP2 AND SWAP1 PUSH4 0xA1167B0D SWAP1 PUSH3 0x114A SWAP1 ADDRESS SWAP1 DUP6 SWAP1 PUSH1 0x4 ADD PUSH3 0x2F1C JUMP JUMPDEST PUSH1 0x0 PUSH1 0x40 MLOAD DUP1 DUP4 SUB DUP2 PUSH1 0x0 DUP8 DUP1 EXTCODESIZE ISZERO DUP1 ISZERO PUSH3 0x1165 JUMPI PUSH1 0x0 DUP1 REVERT JUMPDEST POP GAS CALL ISZERO DUP1 ISZERO PUSH3 0x117A JUMPI RETURNDATASIZE PUSH1 0x0 DUP1 RETURNDATACOPY RETURNDATASIZE PUSH1 0x0 REVERT JUMPDEST POP POP DUP4 SLOAD PUSH1 0x40 MLOAD PUSH4 0x31A9108F PUSH1 0xE1 SHL DUP2 MSTORE PUSH1 0x4 DUP2 ADD DUP12 SWAP1 MSTORE PUSH1 0x0 SWAP4 POP PUSH1 0x1 PUSH1 0x1 PUSH1 0xA0 SHL SUB SWAP1 SWAP2 AND SWAP2 POP PUSH4 0x6352211E SWAP1 PUSH1 0x24 ADD PUSH1 0x20 PUSH1 0x40 MLOAD DUP1 DUP4 SUB DUP2 DUP7 GAS STATICCALL ISZERO DUP1 ISZERO PUSH3 0x11CA JUMPI RETURNDATASIZE PUSH1 0x0 DUP1 RETURNDATACOPY RETURNDATASIZE PUSH1 0x0 REVERT JUMPDEST POP POP POP POP PUSH1 0x40 MLOAD RETURNDATASIZE PUSH1 0x1F NOT PUSH1 0x1F DUP3 ADD AND DUP3 ADD DUP1 PUSH1 0x40 MSTORE POP DUP2 ADD SWAP1 PUSH3 0x11F0 SWAP2 SWAP1 PUSH3 0x31A1 JUMP JUMPDEST PUSH1 0x1 SLOAD DUP5 SLOAD PUSH1 0x40 MLOAD PUSH4 0x23B872DD PUSH1 0xE0 SHL DUP2 MSTORE SWAP3 SWAP4 POP PUSH1 0x1 PUSH1 0x1 PUSH1 0xA0 SHL SUB SWAP2 DUP3 AND SWAP3 PUSH4 0x23B872DD SWAP3 PUSH3 0x122B SWAP3 AND SWAP1 DUP6 SWAP1 DUP11 SWAP1 PUSH1 0x4 ADD PUSH3 0x2F4F JUMP JUMPDEST PUSH1 0x20 PUSH1 0x40 MLOAD DUP1 DUP4 SUB DUP2 PUSH1 0x0 DUP8 GAS CALL ISZERO DUP1 ISZERO PUSH3 0x124B JUMPI RETURNDATASIZE PUSH1 0x0 DUP1 RETURNDATACOPY RETURNDATASIZE PUSH1 0x0 REVERT JUMPDEST POP POP POP POP PUSH1 0x40 MLOAD RETURNDATASIZE PUSH1 0x1F NOT PUSH1 0x1F DUP3 ADD AND DUP3 ADD DUP1 PUSH1 0x40 MSTORE POP DUP2 ADD SWAP1 PUSH3 0x1271 SWAP2 SWAP1 PUSH3 0x2F73 JUMP JUMPDEST POP PUSH1 0x1 SLOAD DUP4 SLOAD PUSH1 0x40 MLOAD PUSH4 0x23B872DD PUSH1 0xE0 SHL DUP2 MSTORE PUSH1 0x1 PUSH1 0x1 PUSH1 0xA0 SHL SUB SWAP3 DUP4 AND SWAP3 PUSH4 0x23B872DD SWAP3 PUSH3 0x12AB SWAP3 SWAP2 AND SWAP1 DUP12 SWAP1 DUP10 SWAP1 PUSH1 0x4 ADD PUSH3 0x2F4F JUMP JUMPDEST PUSH1 0x20 PUSH1 0x40 MLOAD DUP1 DUP4 SUB DUP2 PUSH1 0x0 DUP8 GAS CALL ISZERO DUP1 ISZERO PUSH3 0x12CB JUMPI RETURNDATASIZE PUSH1 0x0 DUP1 RETURNDATACOPY RETURNDATASIZE PUSH1 0x0 REVERT JUMPDEST POP POP POP POP PUSH1 0x40 MLOAD RETURNDATASIZE PUSH1 0x1F NOT PUSH1 0x1F DUP3 ADD AND DUP3 ADD DUP1 PUSH1 0x40 MSTORE POP DUP2 ADD SWAP1 PUSH3 0x12F1 SWAP2 SWAP1 PUSH3 0x2F73 JUMP JUMPDEST POP POP POP POP POP POP POP POP POP POP JUMP JUMPDEST PUSH3 0x1307 PUSH3 0x2873 JUMP JUMPDEST PUSH3 0x1313 PUSH1 0x0 PUSH3 0x28CF JUMP JUMPDEST JUMP JUMPDEST PUSH3 0x131F PUSH3 0x2873 JUMP JUMPDEST PUSH1 0x4 SLOAD DUP3 LT PUSH3 0x1343 JUMPI PUSH1 0x40 MLOAD PUSH3 0x461BCD PUSH1 0xE5 SHL DUP2 MSTORE PUSH1 0x4 ADD PUSH3 0x452 SWAP1 PUSH3 0x2EDB JUMP JUMPDEST PUSH1 0x0 PUSH1 0x4 DUP4 DUP2 SLOAD DUP2 LT PUSH3 0x135B JUMPI PUSH3 0x135B PUSH3 0x2F06 JUMP JUMPDEST PUSH1 0x0 SWAP2 DUP3 MSTORE PUSH1 0x20 SWAP1 SWAP2 KECCAK256 PUSH1 0xD SWAP1 SWAP2 MUL ADD SLOAD PUSH1 0x40 MLOAD PUSH4 0x31A9108F PUSH1 0xE1 SHL DUP2 MSTORE PUSH1 0x4 DUP2 ADD DUP5 SWAP1 MSTORE PUSH1 0x1 PUSH1 0x1 PUSH1 0xA0 SHL SUB SWAP1 SWAP2 AND SWAP1 PUSH4 0x6352211E SWAP1 PUSH1 0x24 ADD PUSH1 0x20 PUSH1 0x40 MLOAD DUP1 DUP4 SUB DUP2 DUP7 GAS STATICCALL ISZERO DUP1 ISZERO PUSH3 0x13B3 JUMPI RETURNDATASIZE PUSH1 0x0 DUP1 RETURNDATACOPY RETURNDATASIZE PUSH1 0x0 REVERT JUMPDEST POP POP POP POP PUSH1 0x40 MLOAD RETURNDATASIZE PUSH1 0x1F NOT PUSH1 0x1F DUP3 ADD AND DUP3 ADD DUP1 PUSH1 0x40 MSTORE POP DUP2 ADD SWAP1 PUSH3 0x13D9 SWAP2 SWAP1 PUSH3 0x31A1 JUMP JUMPDEST PUSH1 0x1 SLOAD PUSH1 0x4 DUP1 SLOAD SWAP3 SWAP4 POP PUSH1 0x0 SWAP3 PUSH1 0x1 PUSH1 0x1 PUSH1 0xA0 SHL SUB SWAP1 SWAP3 AND SWAP2 PUSH4 0x70A08231 SWAP2 SWAP1 DUP8 SWAP1 DUP2 LT PUSH3 0x140C JUMPI PUSH3 0x140C PUSH3 0x2F06 JUMP JUMPDEST PUSH1 0x0 SWAP2 DUP3 MSTORE PUSH1 0x20 SWAP1 SWAP2 KECCAK256 PUSH1 0xD SWAP1 SWAP2 MUL ADD SLOAD PUSH1 0x40 MLOAD PUSH1 0xE0 DUP4 SWAP1 SHL PUSH1 0x1 PUSH1 0x1 PUSH1 0xE0 SHL SUB NOT AND DUP2 MSTORE PUSH1 0x1 PUSH1 0x1 PUSH1 0xA0 SHL SUB SWAP1 SWAP2 AND PUSH1 0x4 DUP3 ADD MSTORE PUSH1 0x24 ADD PUSH1 0x20 PUSH1 0x40 MLOAD DUP1 DUP4 SUB DUP2 DUP7 GAS STATICCALL ISZERO DUP1 ISZERO PUSH3 0x1462 JUMPI RETURNDATASIZE PUSH1 0x0 DUP1 RETURNDATACOPY RETURNDATASIZE PUSH1 0x0 REVERT JUMPDEST POP POP POP POP PUSH1 0x40 MLOAD RETURNDATASIZE PUSH1 0x1F NOT PUSH1 0x1F DUP3 ADD AND DUP3 ADD DUP1 PUSH1 0x40 MSTORE POP DUP2 ADD SWAP1 PUSH3 0x1488 SWAP2 SWAP1 PUSH3 0x2F35 JUMP JUMPDEST SWAP1 POP PUSH1 0x0 DUP2 GT PUSH3 0x14DC JUMPI PUSH1 0x40 MLOAD PUSH3 0x461BCD PUSH1 0xE5 SHL DUP2 MSTORE PUSH1 0x20 PUSH1 0x4 DUP3 ADD MSTORE PUSH1 0x1D PUSH1 0x24 DUP3 ADD MSTORE PUSH32 0x496E73756666696369656E7420636F6E74726163742062616C616E6365000000 PUSH1 0x44 DUP3 ADD MSTORE PUSH1 0x64 ADD PUSH3 0x452 JUMP JUMPDEST PUSH1 0x1 SLOAD PUSH1 0x40 MLOAD PUSH4 0xA9059CBB PUSH1 0xE0 SHL DUP2 MSTORE PUSH1 0x1 PUSH1 0x1 PUSH1 0xA0 SHL SUB SWAP1 SWAP2 AND SWAP1 PUSH4 0xA9059CBB SWAP1 PUSH3 0x616 SWAP1 DUP6 SWAP1 DUP6 SWAP1 PUSH1 0x4 ADD PUSH3 0x2F1C JUMP JUMPDEST PUSH3 0x151A PUSH3 0x2873 JUMP JUMPDEST PUSH1 0x4 SLOAD DUP2 LT PUSH3 0x153E JUMPI PUSH1 0x40 MLOAD PUSH3 0x461BCD PUSH1 0xE5 SHL DUP2 MSTORE PUSH1 0x4 ADD PUSH3 0x452 SWAP1 PUSH3 0x2EDB JUMP JUMPDEST PUSH1 0x1 PUSH1 0x4 DUP3 DUP2 SLOAD DUP2 LT PUSH3 0x1556 JUMPI PUSH3 0x1556 PUSH3 0x2F06 JUMP JUMPDEST PUSH1 0x0 SWAP2 DUP3 MSTORE PUSH1 0x20 SWAP1 SWAP2 KECCAK256 PUSH1 0xD SWAP1 SWAP2 MUL ADD PUSH1 0xA ADD DUP1 SLOAD PUSH1 0xFF NOT AND SWAP2 ISZERO ISZERO SWAP2 SWAP1 SWAP2 OR SWAP1 SSTORE POP JUMP JUMPDEST PUSH1 0x4 SLOAD PUSH1 0x0 SWAP1 DUP2 SWAP1 DUP5 LT PUSH3 0x15A4 JUMPI PUSH1 0x40 MLOAD PUSH3 0x461BCD PUSH1 0xE5 SHL DUP2 MSTORE PUSH1 0x4 ADD PUSH3 0x452 SWAP1 PUSH3 0x2EDB JUMP JUMPDEST PUSH1 0x64 DUP4 GT ISZERO PUSH3 0x15C8 JUMPI PUSH1 0x40 MLOAD PUSH3 0x461BCD PUSH1 0xE5 SHL DUP2 MSTORE PUSH1 0x4 ADD PUSH3 0x452 SWAP1 PUSH3 0x2FCD JUMP JUMPDEST PUSH1 0x0 PUSH1 0x4 DUP6 DUP2 SLOAD DUP2 LT PUSH3 0x15E0 JUMPI PUSH3 0x15E0 PUSH3 0x2F06 JUMP JUMPDEST PUSH1 0x0 SWAP2 DUP3 MSTORE PUSH1 0x20 DUP3 KECCAK256 PUSH1 0x1 SLOAD PUSH1 0xD SWAP3 SWAP1 SWAP3 MUL ADD DUP1 SLOAD PUSH1 0x40 MLOAD PUSH4 0x70A08231 PUSH1 0xE0 SHL DUP2 MSTORE PUSH1 0x1 PUSH1 0x1 PUSH1 0xA0 SHL SUB SWAP2 DUP3 AND PUSH1 0x4 DUP3 ADD MSTORE SWAP2 SWAP5 POP SWAP1 SWAP2 AND SWAP1 PUSH4 0x70A08231 SWAP1 PUSH1 0x24 ADD PUSH1 0x20 PUSH1 0x40 MLOAD DUP1 DUP4 SUB DUP2 DUP7 GAS STATICCALL ISZERO DUP1 ISZERO PUSH3 0x1640 JUMPI RETURNDATASIZE PUSH1 0x0 DUP1 RETURNDATACOPY RETURNDATASIZE PUSH1 0x0 REVERT JUMPDEST POP POP POP POP PUSH1 0x40 MLOAD RETURNDATASIZE PUSH1 0x1F NOT PUSH1 0x1F DUP3 ADD AND DUP3 ADD DUP1 PUSH1 0x40 MSTORE POP DUP2 ADD SWAP1 PUSH3 0x1666 SWAP2 SWAP1 PUSH3 0x2F35 JUMP JUMPDEST SWAP1 POP PUSH1 0x0 DUP2 GT PUSH3 0x168B JUMPI PUSH1 0x40 MLOAD PUSH3 0x461BCD PUSH1 0xE5 SHL DUP2 MSTORE PUSH1 0x4 ADD PUSH3 0x452 SWAP1 PUSH3 0x31C1 JUMP JUMPDEST DUP1 PUSH1 0x64 PUSH3 0x169A DUP8 DUP4 PUSH3 0x3205 JUMP JUMPDEST PUSH3 0x16A6 SWAP2 SWAP1 PUSH3 0x321F JUMP JUMPDEST SWAP4 POP PUSH3 0x16B4 DUP5 DUP3 PUSH3 0x3242 JUMP JUMPDEST SWAP5 POP POP POP POP SWAP3 POP SWAP3 SWAP1 POP JUMP JUMPDEST PUSH1 0x0 PUSH1 0x4 DUP4 DUP2 SLOAD DUP2 LT PUSH3 0x16D8 JUMPI PUSH3 0x16D8 PUSH3 0x2F06 JUMP JUMPDEST SWAP1 PUSH1 0x0 MSTORE PUSH1 0x20 PUSH1 0x0 KECCAK256 SWAP1 PUSH1 0xD MUL ADD SWAP1 POP PUSH1 0x0 DUP3 GT PUSH3 0x174D JUMPI PUSH1 0x40 MLOAD PUSH3 0x461BCD PUSH1 0xE5 SHL DUP2 MSTORE PUSH1 0x20 PUSH1 0x4 DUP3 ADD MSTORE PUSH1 0x2A PUSH1 0x24 DUP3 ADD MSTORE PUSH32 0x4E756D626572206F6620746F6B656E73206D7573742062652067726561746572 PUSH1 0x44 DUP3 ADD MSTORE PUSH10 0x207468616E207A65726F PUSH1 0xB0 SHL PUSH1 0x64 DUP3 ADD MSTORE PUSH1 0x84 ADD PUSH3 0x452 JUMP JUMPDEST PUSH1 0x64 DUP2 PUSH1 0x3 ADD SLOAD GT ISZERO PUSH3 0x17A4 JUMPI PUSH1 0x40 MLOAD PUSH3 0x461BCD PUSH1 0xE5 SHL DUP2 MSTORE PUSH1 0x20 PUSH1 0x4 DUP3 ADD MSTORE PUSH1 0x1D PUSH1 0x24 DUP3 ADD MSTORE PUSH32 0x5061706920617175692073652070617361206465206C612063696E7461000000 PUSH1 0x44 DUP3 ADD MSTORE PUSH1 0x64 ADD PUSH3 0x452 JUMP JUMPDEST PUSH1 0x0 DUP2 PUSH1 0x8 ADD SLOAD DUP4 PUSH3 0x17B8 SWAP2 SWAP1 PUSH3 0x3205 JUMP JUMPDEST PUSH3 0x17C7 SWAP1 PUSH3 0xF4240 PUSH3 0x3205 JUMP JUMPDEST PUSH1 0x1 SLOAD PUSH1 0x40 MLOAD PUSH4 0x23B872DD PUSH1 0xE0 SHL DUP2 MSTORE SWAP2 SWAP3 POP PUSH1 0x1 PUSH1 0x1 PUSH1 0xA0 SHL SUB AND SWAP1 PUSH4 0x23B872DD SWAP1 PUSH3 0x17FE SWAP1 CALLER SWAP1 ADDRESS SWAP1 DUP7 SWAP1 PUSH1 0x4 ADD PUSH3 0x2F4F JUMP JUMPDEST PUSH1 0x20 PUSH1 0x40 MLOAD DUP1 DUP4 SUB DUP2 PUSH1 0x0 DUP8 GAS CALL ISZERO DUP1 ISZERO PUSH3 0x181E JUMPI RETURNDATASIZE PUSH1 0x0 DUP1 RETURNDATACOPY RETURNDATASIZE PUSH1 0x0 REVERT JUMPDEST POP POP POP POP PUSH1 0x40 MLOAD RETURNDATASIZE PUSH1 0x1F NOT PUSH1 0x1F DUP3 ADD AND DUP3 ADD DUP1 PUSH1 0x40 MSTORE POP DUP2 ADD SWAP1 PUSH3 0x1844 SWAP2 SWAP1 PUSH3 0x2F73 JUMP JUMPDEST PUSH3 0x189E JUMPI PUSH1 0x40 MLOAD PUSH3 0x461BCD PUSH1 0xE5 SHL DUP2 MSTORE PUSH1 0x20 PUSH1 0x4 DUP3 ADD MSTORE PUSH1 0x23 PUSH1 0x24 DUP3 ADD MSTORE PUSH32 0x4661696C656420746F207472616E73666572205553445420746F20636F6E7472 PUSH1 0x44 DUP3 ADD MSTORE PUSH3 0x1858DD PUSH1 0xEA SHL PUSH1 0x64 DUP3 ADD MSTORE PUSH1 0x84 ADD PUSH3 0x452 JUMP JUMPDEST PUSH1 0x1 SLOAD DUP3 SLOAD PUSH1 0x40 MLOAD PUSH4 0x95EA7B3 PUSH1 0xE0 SHL DUP2 MSTORE PUSH1 0x1 PUSH1 0x1 PUSH1 0xA0 SHL SUB SWAP3 DUP4 AND SWAP3 PUSH4 0x95EA7B3 SWAP3 PUSH3 0x18D5 SWAP3 SWAP2 AND SWAP1 DUP6 SWAP1 PUSH1 0x4 ADD PUSH3 0x2F1C JUMP JUMPDEST PUSH1 0x20 PUSH1 0x40 MLOAD DUP1 DUP4 SUB DUP2 PUSH1 0x0 DUP8 GAS CALL ISZERO DUP1 ISZERO PUSH3 0x18F5 JUMPI RETURNDATASIZE PUSH1 0x0 DUP1 RETURNDATACOPY RETURNDATASIZE PUSH1 0x0 REVERT JUMPDEST POP POP POP POP PUSH1 0x40 MLOAD RETURNDATASIZE PUSH1 0x1F NOT PUSH1 0x1F DUP3 ADD AND DUP3 ADD DUP1 PUSH1 0x40 MSTORE POP DUP2 ADD SWAP1 PUSH3 0x191B SWAP2 SWAP1 PUSH3 0x2F73 JUMP JUMPDEST PUSH3 0x1973 JUMPI PUSH1 0x40 MLOAD PUSH3 0x461BCD PUSH1 0xE5 SHL DUP2 MSTORE PUSH1 0x20 PUSH1 0x4 DUP3 ADD MSTORE PUSH1 0x21 PUSH1 0x24 DUP3 ADD MSTORE PUSH32 0x417070726F76616C20746F20526966617320636F6E7472616374206661696C65 PUSH1 0x44 DUP3 ADD MSTORE PUSH1 0x19 PUSH1 0xFA SHL PUSH1 0x64 DUP3 ADD MSTORE PUSH1 0x84 ADD PUSH3 0x452 JUMP JUMPDEST PUSH1 0x1 SLOAD DUP3 SLOAD PUSH1 0x40 MLOAD PUSH4 0xA9059CBB PUSH1 0xE0 SHL DUP2 MSTORE PUSH1 0x1 PUSH1 0x1 PUSH1 0xA0 SHL SUB SWAP3 DUP4 AND SWAP3 PUSH4 0xA9059CBB SWAP3 PUSH3 0x19AA SWAP3 SWAP2 AND SWAP1 DUP6 SWAP1 PUSH1 0x4 ADD PUSH3 0x2F1C JUMP JUMPDEST PUSH1 0x20 PUSH1 0x40 MLOAD DUP1 DUP4 SUB DUP2 PUSH1 0x0 DUP8 GAS CALL ISZERO DUP1 ISZERO PUSH3 0x19CA JUMPI RETURNDATASIZE PUSH1 0x0 DUP1 RETURNDATACOPY RETURNDATASIZE PUSH1 0x0 REVERT JUMPDEST POP POP POP POP PUSH1 0x40 MLOAD RETURNDATASIZE PUSH1 0x1F NOT PUSH1 0x1F DUP3 ADD AND DUP3 ADD DUP1 PUSH1 0x40 MSTORE POP DUP2 ADD SWAP1 PUSH3 0x19F0 SWAP2 SWAP1 PUSH3 0x2F73 JUMP JUMPDEST POP PUSH1 0x0 JUMPDEST DUP4 DUP2 LT ISZERO PUSH3 0x1A9A JUMPI DUP3 SLOAD PUSH1 0x4 DUP1 DUP6 ADD SLOAD PUSH1 0x40 MLOAD PUSH4 0x34FF2619 PUSH1 0xE2 SHL DUP2 MSTORE PUSH1 0x1 PUSH1 0x1 PUSH1 0xA0 SHL SUB SWAP1 SWAP4 AND SWAP3 PUSH4 0xD3FC9864 SWAP3 PUSH3 0x1A37 SWAP3 CALLER SWAP3 SWAP1 SWAP2 PUSH1 0x2 SWAP2 ADD PUSH3 0x3258 JUMP JUMPDEST PUSH1 0x0 PUSH1 0x40 MLOAD DUP1 DUP4 SUB DUP2 PUSH1 0x0 DUP8 DUP1 EXTCODESIZE ISZERO DUP1 ISZERO PUSH3 0x1A52 JUMPI PUSH1 0x0 DUP1 REVERT JUMPDEST POP GAS CALL ISZERO DUP1 ISZERO PUSH3 0x1A67 JUMPI RETURNDATASIZE PUSH1 0x0 DUP1 RETURNDATACOPY RETURNDATASIZE PUSH1 0x0 REVERT JUMPDEST POP POP POP PUSH1 0x4 DUP5 ADD DUP1 SLOAD SWAP2 POP PUSH1 0x0 PUSH3 0x1A7F DUP4 PUSH3 0x3302 JUMP JUMPDEST SWAP2 SWAP1 POP SSTORE POP DUP1 DUP1 PUSH3 0x1A91 SWAP1 PUSH3 0x3302 JUMP JUMPDEST SWAP2 POP POP PUSH3 0x19F4 JUMP JUMPDEST POP CALLER PUSH1 0x1 PUSH1 0x1 PUSH1 0xA0 SHL SUB AND DUP5 PUSH32 0x2DE0D25813B7EE3E192A74A42A2F64C302B46C8C28AC56B6F91C2547C82558F1 PUSH4 0x5F5E100 PUSH1 0x4 DUP9 DUP2 SLOAD DUP2 LT PUSH3 0x1AE2 JUMPI PUSH3 0x1AE2 PUSH3 0x2F06 JUMP JUMPDEST SWAP1 PUSH1 0x0 MSTORE PUSH1 0x20 PUSH1 0x0 KECCAK256 SWAP1 PUSH1 0xD MUL ADD PUSH1 0x6 ADD SLOAD PUSH1 0x64 PUSH3 0x1B02 SWAP2 SWAP1 PUSH3 0x3242 JUMP JUMPDEST PUSH1 0x1 SLOAD PUSH1 0x4 DUP1 SLOAD PUSH1 0x1 PUSH1 0x1 PUSH1 0xA0 SHL SUB SWAP1 SWAP3 AND SWAP2 PUSH4 0x70A08231 SWAP2 SWAP1 DUP13 SWAP1 DUP2 LT PUSH3 0x1B2F JUMPI PUSH3 0x1B2F PUSH3 0x2F06 JUMP JUMPDEST PUSH1 0x0 SWAP2 DUP3 MSTORE PUSH1 0x20 SWAP1 SWAP2 KECCAK256 PUSH1 0xD SWAP1 SWAP2 MUL ADD SLOAD PUSH1 0x40 MLOAD PUSH1 0xE0 DUP4 SWAP1 SHL PUSH1 0x1 PUSH1 0x1 PUSH1 0xE0 SHL SUB NOT AND DUP2 MSTORE PUSH1 0x1 PUSH1 0x1 PUSH1 0xA0 SHL SUB SWAP1 SWAP2 AND PUSH1 0x4 DUP3 ADD MSTORE PUSH1 0x24 ADD PUSH1 0x20 PUSH1 0x40 MLOAD DUP1 DUP4 SUB DUP2 DUP7 GAS STATICCALL ISZERO DUP1 ISZERO PUSH3 0x1B85 JUMPI RETURNDATASIZE PUSH1 0x0 DUP1 RETURNDATACOPY RETURNDATASIZE PUSH1 0x0 REVERT JUMPDEST POP POP POP POP PUSH1 0x40 MLOAD RETURNDATASIZE PUSH1 0x1F NOT PUSH1 0x1F DUP3 ADD AND DUP3 ADD DUP1 PUSH1 0x40 MSTORE POP DUP2 ADD SWAP1 PUSH3 0x1BAB SWAP2 SWAP1 PUSH3 0x2F35 JUMP JUMPDEST PUSH3 0x1BB7 SWAP2 SWAP1 PUSH3 0x3205 JUMP JUMPDEST PUSH3 0x1BC3 SWAP2 SWAP1 PUSH3 0x321F JUMP JUMPDEST PUSH1 0x4 DUP9 DUP2 SLOAD DUP2 LT PUSH3 0x1BD9 JUMPI PUSH3 0x1BD9 PUSH3 0x2F06 JUMP JUMPDEST PUSH1 0x0 SWAP2 DUP3 MSTORE PUSH1 0x20 SWAP2 DUP3 SWAP1 KECCAK256 PUSH1 0xD SWAP1 SWAP2 MUL ADD SLOAD PUSH1 0x40 DUP1 MLOAD PUSH4 0xE2C79281 PUSH1 0xE0 SHL DUP2 MSTORE SWAP1 MLOAD PUSH1 0x1 PUSH1 0x1 PUSH1 0xA0 SHL SUB SWAP1 SWAP3 AND SWAP3 PUSH4 0xE2C79281 SWAP3 PUSH1 0x4 DUP1 DUP5 ADD SWAP4 DUP3 SWAP1 SUB ADD DUP2 DUP7 GAS STATICCALL ISZERO DUP1 ISZERO PUSH3 0x1C2D JUMPI RETURNDATASIZE PUSH1 0x0 DUP1 RETURNDATACOPY RETURNDATASIZE PUSH1 0x0 REVERT JUMPDEST POP POP POP POP PUSH1 0x40 MLOAD RETURNDATASIZE PUSH1 0x1F NOT PUSH1 0x1F DUP3 ADD AND DUP3 ADD DUP1 PUSH1 0x40 MSTORE POP DUP2 ADD SWAP1 PUSH3 0x1C53 SWAP2 SWAP1 PUSH3 0x2F35 JUMP JUMPDEST PUSH1 0x40 DUP1 MLOAD SWAP3 DUP4 MSTORE PUSH1 0x20 DUP4 ADD SWAP2 SWAP1 SWAP2 MSTORE ADD PUSH1 0x40 MLOAD DUP1 SWAP2 SUB SWAP1 LOG3 POP POP POP POP JUMP JUMPDEST PUSH1 0x40 MLOAD PUSH4 0x95EA7B3 PUSH1 0xE0 SHL DUP2 MSTORE PUSH20 0x68F4BFC14A87357D4FF686872A4B3CBA125C4008 SWAP1 DUP2 SWAP1 PUSH4 0x95EA7B3 SWAP1 PUSH3 0x1CAE SWAP1 DUP6 SWAP1 DUP8 SWAP1 PUSH1 0x4 ADD PUSH3 0x2F1C JUMP JUMPDEST PUSH1 0x20 PUSH1 0x40 MLOAD DUP1 DUP4 SUB DUP2 PUSH1 0x0 DUP8 GAS CALL ISZERO DUP1 ISZERO PUSH3 0x1CCE JUMPI RETURNDATASIZE PUSH1 0x0 DUP1 RETURNDATACOPY RETURNDATASIZE PUSH1 0x0 REVERT JUMPDEST POP POP POP POP PUSH1 0x40 MLOAD RETURNDATASIZE PUSH1 0x1F NOT PUSH1 0x1F DUP3 ADD AND DUP3 ADD DUP1 PUSH1 0x40 MSTORE POP DUP2 ADD SWAP1 PUSH3 0x1CF4 SWAP2 SWAP1 PUSH3 0x2F73 JUMP JUMPDEST PUSH3 0xEB2 JUMPI PUSH1 0x40 MLOAD PUSH3 0x461BCD PUSH1 0xE5 SHL DUP2 MSTORE PUSH1 0x20 PUSH1 0x4 DUP3 ADD MSTORE PUSH1 0xF PUSH1 0x24 DUP3 ADD MSTORE PUSH15 0x105C1C1C9BDD985B0819985A5B1959 PUSH1 0x8A SHL PUSH1 0x44 DUP3 ADD MSTORE PUSH1 0x64 ADD PUSH3 0x452 JUMP JUMPDEST PUSH1 0x0 DUP1 PUSH1 0x4 DUP4 DUP2 SLOAD DUP2 LT PUSH3 0x1D4D JUMPI PUSH3 0x1D4D PUSH3 0x2F06 JUMP JUMPDEST PUSH1 0x0 SWAP2 DUP3 MSTORE PUSH1 0x20 SWAP1 SWAP2 KECCAK256 PUSH1 0x1 SLOAD PUSH1 0xD SWAP1 SWAP3 MUL ADD DUP1 SLOAD PUSH1 0x40 MLOAD PUSH4 0x70A08231 PUSH1 0xE0 SHL DUP2 MSTORE PUSH1 0x1 PUSH1 0x1 PUSH1 0xA0 SHL SUB SWAP2 DUP3 AND PUSH1 0x4 DUP3 ADD MSTORE SWAP2 SWAP4 POP SWAP1 SWAP2 AND SWAP1 PUSH4 0x70A08231 SWAP1 PUSH1 0x24 ADD PUSH1 0x20 PUSH1 0x40 MLOAD DUP1 DUP4 SUB DUP2 DUP7 GAS STATICCALL ISZERO DUP1 ISZERO PUSH3 0x1DAD JUMPI RETURNDATASIZE PUSH1 0x0 DUP1 RETURNDATACOPY RETURNDATASIZE PUSH1 0x0 REVERT JUMPDEST POP POP POP POP PUSH1 0x40 MLOAD RETURNDATASIZE PUSH1 0x1F NOT PUSH1 0x1F DUP3 ADD AND DUP3 ADD DUP1 PUSH1 0x40 MSTORE POP DUP2 ADD SWAP1 PUSH3 0x1DD3 SWAP2 SWAP1 PUSH3 0x2F35 JUMP JUMPDEST SWAP4 SWAP3 POP POP POP JUMP JUMPDEST PUSH3 0x1DE4 PUSH3 0x2873 JUMP JUMPDEST PUSH1 0x4 SLOAD DUP3 LT PUSH3 0x1E08 JUMPI PUSH1 0x40 MLOAD PUSH3 0x461BCD PUSH1 0xE5 SHL DUP2 MSTORE PUSH1 0x4 ADD PUSH3 0x452 SWAP1 PUSH3 0x2EDB JUMP JUMPDEST PUSH1 0x0 PUSH1 0x4 DUP4 DUP2 SLOAD DUP2 LT PUSH3 0x1E20 JUMPI PUSH3 0x1E20 PUSH3 0x2F06 JUMP JUMPDEST PUSH1 0x0 SWAP2 DUP3 MSTORE PUSH1 0x20 DUP3 KECCAK256 PUSH1 0x1 SLOAD PUSH1 0xD SWAP3 SWAP1 SWAP3 MUL ADD DUP1 SLOAD PUSH1 0x40 MLOAD PUSH4 0x70A08231 PUSH1 0xE0 SHL DUP2 MSTORE PUSH1 0x1 PUSH1 0x1 PUSH1 0xA0 SHL SUB SWAP2 DUP3 AND PUSH1 0x4 DUP3 ADD MSTORE SWAP2 SWAP5 POP SWAP1 SWAP2 AND SWAP1 PUSH4 0x70A08231 SWAP1 PUSH1 0x24 ADD PUSH1 0x20 PUSH1 0x40 MLOAD DUP1 DUP4 SUB DUP2 DUP7 GAS STATICCALL ISZERO DUP1 ISZERO PUSH3 0x1E80 JUMPI RETURNDATASIZE PUSH1 0x0 DUP1 RETURNDATACOPY RETURNDATASIZE PUSH1 0x0 REVERT JUMPDEST POP POP POP POP PUSH1 0x40 MLOAD RETURNDATASIZE PUSH1 0x1F NOT PUSH1 0x1F DUP3 ADD AND DUP3 ADD DUP1 PUSH1 0x40 MSTORE POP DUP2 ADD SWAP1 PUSH3 0x1EA6 SWAP2 SWAP1 PUSH3 0x2F35 JUMP JUMPDEST SWAP1 POP PUSH1 0x0 DUP2 GT PUSH3 0x1ECB JUMPI PUSH1 0x40 MLOAD PUSH3 0x461BCD PUSH1 0xE5 SHL DUP2 MSTORE PUSH1 0x4 ADD PUSH3 0x452 SWAP1 PUSH3 0x31C1 JUMP JUMPDEST DUP2 SLOAD PUSH1 0x40 MLOAD PUSH4 0xA1167B0D PUSH1 0xE0 SHL DUP2 MSTORE PUSH1 0x1 PUSH1 0x1 PUSH1 0xA0 SHL SUB SWAP1 SWAP2 AND SWAP1 PUSH4 0xA1167B0D SWAP1 PUSH3 0x1EFE SWAP1 ADDRESS SWAP1 DUP6 SWAP1 PUSH1 0x4 ADD PUSH3 0x2F1C JUMP JUMPDEST PUSH1 0x0 PUSH1 0x40 MLOAD DUP1 DUP4 SUB DUP2 PUSH1 0x0 DUP8 DUP1 EXTCODESIZE ISZERO DUP1 ISZERO PUSH3 0x1F19 JUMPI PUSH1 0x0 DUP1 REVERT JUMPDEST POP GAS CALL ISZERO DUP1 ISZERO PUSH3 0x1F2E JUMPI RETURNDATASIZE PUSH1 0x0 DUP1 RETURNDATACOPY RETURNDATASIZE PUSH1 0x0 REVERT JUMPDEST POP POP PUSH1 0x1 SLOAD DUP5 SLOAD PUSH1 0x40 MLOAD PUSH4 0x23B872DD PUSH1 0xE0 SHL DUP2 MSTORE PUSH1 0x1 PUSH1 0x1 PUSH1 0xA0 SHL SUB SWAP3 DUP4 AND SWAP5 POP PUSH4 0x23B872DD SWAP4 POP PUSH3 0x616 SWAP3 SWAP1 SWAP2 AND SWAP1 DUP8 SWAP1 DUP7 SWAP1 PUSH1 0x4 ADD PUSH3 0x2F4F JUMP JUMPDEST PUSH3 0x1F76 PUSH3 0x2873 JUMP JUMPDEST PUSH1 0x4 SLOAD DUP5 LT PUSH3 0x1F9A JUMPI PUSH1 0x40 MLOAD PUSH3 0x461BCD PUSH1 0xE5 SHL DUP2 MSTORE PUSH1 0x4 ADD PUSH3 0x452 SWAP1 PUSH3 0x2EDB JUMP JUMPDEST PUSH1 0x0 DUP1 PUSH3 0x1FA9 DUP7 DUP5 PUSH3 0x157B JUMP JUMPDEST SWAP2 POP SWAP2 POP PUSH1 0x0 PUSH1 0x4 DUP8 DUP2 SLOAD DUP2 LT PUSH3 0x1FC5 JUMPI PUSH3 0x1FC5 PUSH3 0x2F06 JUMP JUMPDEST PUSH1 0x0 SWAP2 DUP3 MSTORE PUSH1 0x20 DUP3 KECCAK256 PUSH1 0x1 SLOAD PUSH1 0xD SWAP3 SWAP1 SWAP3 MUL ADD DUP1 SLOAD PUSH1 0x40 MLOAD PUSH4 0x70A08231 PUSH1 0xE0 SHL DUP2 MSTORE PUSH1 0x1 PUSH1 0x1 PUSH1 0xA0 SHL SUB SWAP2 DUP3 AND PUSH1 0x4 DUP3 ADD MSTORE SWAP2 SWAP5 POP SWAP1 SWAP2 AND SWAP1 PUSH4 0x70A08231 SWAP1 PUSH1 0x24 ADD PUSH1 0x20 PUSH1 0x40 MLOAD DUP1 DUP4 SUB DUP2 DUP7 GAS STATICCALL ISZERO DUP1 ISZERO PUSH3 0x2025 JUMPI RETURNDATASIZE PUSH1 0x0 DUP1 RETURNDATACOPY RETURNDATASIZE PUSH1 0x0 REVERT JUMPDEST POP POP POP POP PUSH1 0x40 MLOAD RETURNDATASIZE PUSH1 0x1F NOT PUSH1 0x1F DUP3 ADD AND DUP3 ADD DUP1 PUSH1 0x40 MSTORE POP DUP2 ADD SWAP1 PUSH3 0x204B SWAP2 SWAP1 PUSH3 0x2F35 JUMP JUMPDEST SWAP1 POP PUSH1 0x0 DUP2 GT PUSH3 0x2070 JUMPI PUSH1 0x40 MLOAD PUSH3 0x461BCD PUSH1 0xE5 SHL DUP2 MSTORE PUSH1 0x4 ADD PUSH3 0x452 SWAP1 PUSH3 0x31C1 JUMP JUMPDEST DUP2 SLOAD PUSH1 0x40 MLOAD PUSH4 0xA1167B0D PUSH1 0xE0 SHL DUP2 MSTORE PUSH1 0x1 PUSH1 0x1 PUSH1 0xA0 SHL SUB SWAP1 SWAP2 AND SWAP1 PUSH4 0xA1167B0D SWAP1 PUSH3 0x20A3 SWAP1 ADDRESS SWAP1 DUP6 SWAP1 PUSH1 0x4 ADD PUSH3 0x2F1C JUMP JUMPDEST PUSH1 0x0 PUSH1 0x40 MLOAD DUP1 DUP4 SUB DUP2 PUSH1 0x0 DUP8 DUP1 EXTCODESIZE ISZERO DUP1 ISZERO PUSH3 0x20BE JUMPI PUSH1 0x0 DUP1 REVERT JUMPDEST POP GAS CALL ISZERO DUP1 ISZERO PUSH3 0x20D3 JUMPI RETURNDATASIZE PUSH1 0x0 DUP1 RETURNDATACOPY RETURNDATASIZE PUSH1 0x0 REVERT JUMPDEST POP POP PUSH1 0x1 SLOAD DUP5 SLOAD PUSH1 0x40 MLOAD PUSH4 0x23B872DD PUSH1 0xE0 SHL DUP2 MSTORE PUSH1 0x1 PUSH1 0x1 PUSH1 0xA0 SHL SUB SWAP3 DUP4 AND SWAP5 POP PUSH4 0x23B872DD SWAP4 POP PUSH3 0x2111 SWAP3 SWAP1 SWAP2 AND SWAP1 DUP12 SWAP1 DUP10 SWAP1 PUSH1 0x4 ADD PUSH3 0x2F4F JUMP JUMPDEST PUSH1 0x20 PUSH1 0x40 MLOAD DUP1 DUP4 SUB DUP2 PUSH1 0x0 DUP8 GAS CALL ISZERO DUP1 ISZERO PUSH3 0x2131 JUMPI RETURNDATASIZE PUSH1 0x0 DUP1 RETURNDATACOPY RETURNDATASIZE PUSH1 0x0 REVERT JUMPDEST POP POP POP POP PUSH1 0x40 MLOAD RETURNDATASIZE PUSH1 0x1F NOT PUSH1 0x1F DUP3 ADD AND DUP3 ADD DUP1 PUSH1 0x40 MSTORE POP DUP2 ADD SWAP1 PUSH3 0x2157 SWAP2 SWAP1 PUSH3 0x2F73 JUMP JUMPDEST POP PUSH1 0x1 SLOAD DUP3 SLOAD PUSH1 0x40 MLOAD PUSH4 0x23B872DD PUSH1 0xE0 SHL DUP2 MSTORE PUSH1 0x1 PUSH1 0x1 PUSH1 0xA0 SHL SUB SWAP3 DUP4 AND SWAP3 PUSH4 0x23B872DD SWAP3 PUSH3 0x2191 SWAP3 SWAP2 AND SWAP1 DUP11 SWAP1 DUP9 SWAP1 PUSH1 0x4 ADD PUSH3 0x2F4F JUMP JUMPDEST PUSH1 0x20 PUSH1 0x40 MLOAD DUP1 DUP4 SUB DUP2 PUSH1 0x0 DUP8 GAS CALL ISZERO DUP1 ISZERO PUSH3 0x21B1 JUMPI RETURNDATASIZE PUSH1 0x0 DUP1 RETURNDATACOPY RETURNDATASIZE PUSH1 0x0 REVERT JUMPDEST POP POP POP POP PUSH1 0x40 MLOAD RETURNDATASIZE PUSH1 0x1F NOT PUSH1 0x1F DUP3 ADD AND DUP3 ADD DUP1 PUSH1 0x40 MSTORE POP DUP2 ADD SWAP1 PUSH3 0x21D7 SWAP2 SWAP1 PUSH3 0x2F73 JUMP JUMPDEST POP POP POP POP POP POP POP POP POP JUMP JUMPDEST PUSH1 0x0 PUSH1 0x4 DUP5 DUP2 SLOAD DUP2 LT PUSH3 0x21FA JUMPI PUSH3 0x21FA PUSH3 0x2F06 JUMP JUMPDEST SWAP1 PUSH1 0x0 MSTORE PUSH1 0x20 PUSH1 0x0 KECCAK256 SWAP1 PUSH1 0xD MUL ADD SWAP1 POP DUP1 PUSH1 0x3 ADD SLOAD DUP3 LT PUSH3 0x2251 JUMPI PUSH1 0x40 MLOAD PUSH3 0x461BCD PUSH1 0xE5 SHL DUP2 MSTORE PUSH1 0x20 PUSH1 0x4 DUP3 ADD MSTORE PUSH1 0xF PUSH1 0x24 DUP3 ADD MSTORE PUSH15 0x125B9D985B1A59081D1BDAD95B9259 PUSH1 0x8A SHL PUSH1 0x44 DUP3 ADD MSTORE PUSH1 0x64 ADD PUSH3 0x452 JUMP JUMPDEST DUP1 SLOAD PUSH1 0x40 MLOAD PUSH4 0x21421707 PUSH1 0xE1 SHL DUP2 MSTORE PUSH1 0x1 PUSH1 0x1 PUSH1 0xA0 SHL SUB SWAP1 SWAP2 AND SWAP1 PUSH4 0x42842E0E SWAP1 PUSH3 0x2286 SWAP1 DUP4 SWAP1 DUP8 SWAP1 DUP8 SWAP1 PUSH1 0x4 ADD PUSH3 0x2F4F JUMP JUMPDEST PUSH1 0x0 PUSH1 0x40 MLOAD DUP1 DUP4 SUB DUP2 PUSH1 0x0 DUP8 DUP1 EXTCODESIZE ISZERO DUP1 ISZERO PUSH3 0x22A1 JUMPI PUSH1 0x0 DUP1 REVERT JUMPDEST POP GAS CALL ISZERO DUP1 ISZERO PUSH3 0x22B6 JUMPI RETURNDATASIZE PUSH1 0x0 DUP1 RETURNDATACOPY RETURNDATASIZE PUSH1 0x0 REVERT JUMPDEST POP POP POP PUSH1 0x4 DUP3 ADD DUP1 SLOAD SWAP2 POP PUSH1 0x0 PUSH3 0x22CE DUP4 PUSH3 0x3302 JUMP JUMPDEST SWAP2 SWAP1 POP SSTORE POP POP POP POP POP JUMP JUMPDEST PUSH1 0x4 SLOAD PUSH1 0x60 SWAP1 PUSH1 0x0 SWAP1 PUSH8 0xFFFFFFFFFFFFFFFF DUP2 GT ISZERO PUSH3 0x22FD JUMPI PUSH3 0x22FD PUSH3 0x2AA9 JUMP JUMPDEST PUSH1 0x40 MLOAD SWAP1 DUP1 DUP3 MSTORE DUP1 PUSH1 0x20 MUL PUSH1 0x20 ADD DUP3 ADD PUSH1 0x40 MSTORE DUP1 ISZERO PUSH3 0x233A JUMPI DUP2 PUSH1 0x20 ADD JUMPDEST PUSH3 0x2326 PUSH3 0x291F JUMP JUMPDEST DUP2 MSTORE PUSH1 0x20 ADD SWAP1 PUSH1 0x1 SWAP1 SUB SWAP1 DUP2 PUSH3 0x231C JUMPI SWAP1 POP JUMPDEST POP SWAP1 POP PUSH1 0x0 JUMPDEST PUSH1 0x4 SLOAD DUP2 LT ISZERO PUSH3 0x27B1 JUMPI PUSH1 0x4 DUP2 DUP2 SLOAD DUP2 LT PUSH3 0x2361 JUMPI PUSH3 0x2361 PUSH3 0x2F06 JUMP JUMPDEST PUSH1 0x0 SWAP2 DUP3 MSTORE PUSH1 0x20 SWAP2 DUP3 SWAP1 KECCAK256 PUSH1 0x40 DUP1 MLOAD PUSH2 0x1A0 DUP2 ADD SWAP1 SWAP2 MSTORE PUSH1 0xD SWAP1 SWAP3 MUL ADD DUP1 SLOAD PUSH1 0x1 PUSH1 0x1 PUSH1 0xA0 SHL SUB AND DUP3 MSTORE PUSH1 0x1 DUP2 ADD DUP1 SLOAD SWAP3 SWAP4 SWAP2 SWAP3 SWAP2 DUP5 ADD SWAP2 PUSH3 0x23A4 SWAP1 PUSH3 0x2F97 JUMP JUMPDEST DUP1 PUSH1 0x1F ADD PUSH1 0x20 DUP1 SWAP2 DIV MUL PUSH1 0x20 ADD PUSH1 0x40 MLOAD SWAP1 DUP2 ADD PUSH1 0x40 MSTORE DUP1 SWAP3 SWAP2 SWAP1 DUP2 DUP2 MSTORE PUSH1 0x20 ADD DUP3 DUP1 SLOAD PUSH3 0x23D2 SWAP1 PUSH3 0x2F97 JUMP JUMPDEST DUP1 ISZERO PUSH3 0x2423 JUMPI DUP1 PUSH1 0x1F LT PUSH3 0x23F7 JUMPI PUSH2 0x100 DUP1 DUP4 SLOAD DIV MUL DUP4 MSTORE SWAP2 PUSH1 0x20 ADD SWAP2 PUSH3 0x2423 JUMP JUMPDEST DUP3 ADD SWAP2 SWAP1 PUSH1 0x0 MSTORE PUSH1 0x20 PUSH1 0x0 KECCAK256 SWAP1 JUMPDEST DUP2 SLOAD DUP2 MSTORE SWAP1 PUSH1 0x1 ADD SWAP1 PUSH1 0x20 ADD DUP1 DUP4 GT PUSH3 0x2405 JUMPI DUP3 SWAP1 SUB PUSH1 0x1F AND DUP3 ADD SWAP2 JUMPDEST POP POP POP POP POP DUP2 MSTORE PUSH1 0x20 ADD PUSH1 0x2 DUP3 ADD DUP1 SLOAD PUSH3 0x243E SWAP1 PUSH3 0x2F97 JUMP JUMPDEST DUP1 PUSH1 0x1F ADD PUSH1 0x20 DUP1 SWAP2 DIV MUL PUSH1 0x20 ADD PUSH1 0x40 MLOAD SWAP1 DUP2 ADD PUSH1 0x40 MSTORE DUP1 SWAP3 SWAP2 SWAP1 DUP2 DUP2 MSTORE PUSH1 0x20 ADD DUP3 DUP1 SLOAD PUSH3 0x246C SWAP1 PUSH3 0x2F97 JUMP JUMPDEST DUP1 ISZERO PUSH3 0x24BD JUMPI DUP1 PUSH1 0x1F LT PUSH3 0x2491 JUMPI PUSH2 0x100 DUP1 DUP4 SLOAD DIV MUL DUP4 MSTORE SWAP2 PUSH1 0x20 ADD SWAP2 PUSH3 0x24BD JUMP JUMPDEST DUP3 ADD SWAP2 SWAP1 PUSH1 0x0 MSTORE PUSH1 0x20 PUSH1 0x0 KECCAK256 SWAP1 JUMPDEST DUP2 SLOAD DUP2 MSTORE SWAP1 PUSH1 0x1 ADD SWAP1 PUSH1 0x20 ADD DUP1 DUP4 GT PUSH3 0x249F JUMPI DUP3 SWAP1 SUB PUSH1 0x1F AND DUP3 ADD SWAP2 JUMPDEST POP POP POP POP POP DUP2 MSTORE PUSH1 0x20 ADD PUSH1 0x3 DUP3 ADD SLOAD DUP2 MSTORE PUSH1 0x20 ADD PUSH1 0x4 DUP3 ADD SLOAD DUP2 MSTORE PUSH1 0x20 ADD PUSH1 0x5 DUP3 ADD SLOAD DUP2 MSTORE PUSH1 0x20 ADD PUSH1 0x6 DUP3 ADD SLOAD DUP2 MSTORE PUSH1 0x20 ADD PUSH1 0x7 DUP3 ADD SLOAD DUP2 MSTORE PUSH1 0x20 ADD PUSH1 0x8 DUP3 ADD SLOAD DUP2 MSTORE PUSH1 0x20 ADD PUSH1 0x9 DUP3 ADD DUP1 SLOAD PUSH3 0x2514 SWAP1 PUSH3 0x2F97 JUMP JUMPDEST DUP1 PUSH1 0x1F ADD PUSH1 0x20 DUP1 SWAP2 DIV MUL PUSH1 0x20 ADD PUSH1 0x40 MLOAD SWAP1 DUP2 ADD PUSH1 0x40 MSTORE DUP1 SWAP3 SWAP2 SWAP1 DUP2 DUP2 MSTORE PUSH1 0x20 ADD DUP3 DUP1 SLOAD PUSH3 0x2542 SWAP1 PUSH3 0x2F97 JUMP JUMPDEST DUP1 ISZERO PUSH3 0x2593 JUMPI DUP1 PUSH1 0x1F LT PUSH3 0x2567 JUMPI PUSH2 0x100 DUP1 DUP4 SLOAD DIV MUL DUP4 MSTORE SWAP2 PUSH1 0x20 ADD SWAP2 PUSH3 0x2593 JUMP JUMPDEST DUP3 ADD SWAP2 SWAP1 PUSH1 0x0 MSTORE PUSH1 0x20 PUSH1 0x0 KECCAK256 SWAP1 JUMPDEST DUP2 SLOAD DUP2 MSTORE SWAP1 PUSH1 0x1 ADD SWAP1 PUSH1 0x20 ADD DUP1 DUP4 GT PUSH3 0x2575 JUMPI DUP3 SWAP1 SUB PUSH1 0x1F AND DUP3 ADD SWAP2 JUMPDEST POP POP POP SWAP2 DUP4 MSTORE POP POP PUSH1 0xA DUP3 ADD SLOAD PUSH1 0xFF AND ISZERO ISZERO PUSH1 0x20 DUP3 ADD MSTORE PUSH1 0xB DUP3 ADD SLOAD PUSH1 0x40 DUP3 ADD MSTORE PUSH1 0xC SWAP1 SWAP2 ADD SLOAD PUSH1 0x60 SWAP1 SWAP2 ADD MSTORE DUP3 MLOAD DUP4 SWAP1 DUP4 SWAP1 DUP2 LT PUSH3 0x25D7 JUMPI PUSH3 0x25D7 PUSH3 0x2F06 JUMP JUMPDEST PUSH1 0x20 MUL PUSH1 0x20 ADD ADD DUP2 SWAP1 MSTORE POP PUSH4 0x5F5E100 PUSH1 0x4 DUP3 DUP2 SLOAD DUP2 LT PUSH3 0x25FD JUMPI PUSH3 0x25FD PUSH3 0x2F06 JUMP JUMPDEST SWAP1 PUSH1 0x0 MSTORE PUSH1 0x20 PUSH1 0x0 KECCAK256 SWAP1 PUSH1 0xD MUL ADD PUSH1 0x6 ADD SLOAD PUSH1 0x64 PUSH3 0x261D SWAP2 SWAP1 PUSH3 0x3242 JUMP JUMPDEST PUSH1 0x1 SLOAD PUSH1 0x4 DUP1 SLOAD PUSH1 0x1 PUSH1 0x1 PUSH1 0xA0 SHL SUB SWAP1 SWAP3 AND SWAP2 PUSH4 0x70A08231 SWAP2 SWAP1 DUP7 SWAP1 DUP2 LT PUSH3 0x264A JUMPI PUSH3 0x264A PUSH3 0x2F06 JUMP JUMPDEST PUSH1 0x0 SWAP2 DUP3 MSTORE PUSH1 0x20 SWAP1 SWAP2 KECCAK256 PUSH1 0xD SWAP1 SWAP2 MUL ADD SLOAD PUSH1 0x40 MLOAD PUSH1 0xE0 DUP4 SWAP1 SHL PUSH1 0x1 PUSH1 0x1 PUSH1 0xE0 SHL SUB NOT AND DUP2 MSTORE PUSH1 0x1 PUSH1 0x1 PUSH1 0xA0 SHL SUB SWAP1 SWAP2 AND PUSH1 0x4 DUP3 ADD MSTORE PUSH1 0x24 ADD PUSH1 0x20 PUSH1 0x40 MLOAD DUP1 DUP4 SUB DUP2 DUP7 GAS STATICCALL ISZERO DUP1 ISZERO PUSH3 0x26A0 JUMPI RETURNDATASIZE PUSH1 0x0 DUP1 RETURNDATACOPY RETURNDATASIZE PUSH1 0x0 REVERT JUMPDEST POP POP POP POP PUSH1 0x40 MLOAD RETURNDATASIZE PUSH1 0x1F NOT PUSH1 0x1F DUP3 ADD AND DUP3 ADD DUP1 PUSH1 0x40 MSTORE POP DUP2 ADD SWAP1 PUSH3 0x26C6 SWAP2 SWAP1 PUSH3 0x2F35 JUMP JUMPDEST PUSH3 0x26D2 SWAP2 SWAP1 PUSH3 0x3205 JUMP JUMPDEST PUSH3 0x26DE SWAP2 SWAP1 PUSH3 0x321F JUMP JUMPDEST DUP3 DUP3 DUP2 MLOAD DUP2 LT PUSH3 0x26F3 JUMPI PUSH3 0x26F3 PUSH3 0x2F06 JUMP JUMPDEST PUSH1 0x20 MUL PUSH1 0x20 ADD ADD MLOAD PUSH1 0xE0 ADD DUP2 DUP2 MSTORE POP POP DUP1 DUP3 DUP3 DUP2 MLOAD DUP2 LT PUSH3 0x2719 JUMPI PUSH3 0x2719 PUSH3 0x2F06 JUMP JUMPDEST PUSH1 0x20 MUL PUSH1 0x20 ADD ADD MLOAD PUSH2 0x180 ADD DUP2 DUP2 MSTORE POP POP DUP2 DUP2 DUP2 MLOAD DUP2 LT PUSH3 0x273F JUMPI PUSH3 0x273F PUSH3 0x2F06 JUMP JUMPDEST PUSH1 0x20 MUL PUSH1 0x20 ADD ADD MLOAD PUSH1 0x80 ADD MLOAD DUP3 DUP3 DUP2 MLOAD DUP2 LT PUSH3 0x2760 JUMPI PUSH3 0x2760 PUSH3 0x2F06 JUMP JUMPDEST PUSH1 0x20 MUL PUSH1 0x20 ADD ADD MLOAD PUSH1 0x60 ADD MLOAD PUSH3 0x2778 SWAP2 SWAP1 PUSH3 0x331E JUMP JUMPDEST DUP3 DUP3 DUP2 MLOAD DUP2 LT PUSH3 0x278D JUMPI PUSH3 0x278D PUSH3 0x2F06 JUMP JUMPDEST PUSH1 0x20 SWAP1 DUP2 MUL SWAP2 SWAP1 SWAP2 ADD ADD MLOAD PUSH1 0x60 ADD MSTORE DUP1 PUSH3 0x27A8 DUP2 PUSH3 0x3302 JUMP JUMPDEST SWAP2 POP POP PUSH3 0x2340 JUMP JUMPDEST POP SWAP2 SWAP1 POP JUMP JUMPDEST PUSH3 0x27C1 PUSH3 0x291F JUMP JUMPDEST PUSH1 0x0 PUSH3 0x27CD PUSH3 0x22D9 JUMP JUMPDEST SWAP1 POP DUP1 DUP4 DUP2 MLOAD DUP2 LT PUSH3 0x27E4 JUMPI PUSH3 0x27E4 PUSH3 0x2F06 JUMP JUMPDEST PUSH1 0x20 MUL PUSH1 0x20 ADD ADD MLOAD SWAP2 POP POP SWAP2 SWAP1 POP JUMP JUMPDEST PUSH3 0x27FE PUSH3 0x2873 JUMP JUMPDEST PUSH1 0x1 PUSH1 0x1 PUSH1 0xA0 SHL SUB DUP2 AND PUSH3 0x2865 JUMPI PUSH1 0x40 MLOAD PUSH3 0x461BCD PUSH1 0xE5 SHL DUP2 MSTORE PUSH1 0x20 PUSH1 0x4 DUP3 ADD MSTORE PUSH1 0x26 PUSH1 0x24 DUP3 ADD MSTORE PUSH32 0x4F776E61626C653A206E6577206F776E657220697320746865207A65726F2061 PUSH1 0x44 DUP3 ADD MSTORE PUSH6 0x646472657373 PUSH1 0xD0 SHL PUSH1 0x64 DUP3 ADD MSTORE PUSH1 0x84 ADD PUSH3 0x452 JUMP JUMPDEST PUSH3 0x2870 DUP2 PUSH3 0x28CF JUMP JUMPDEST POP JUMP JUMPDEST PUSH1 0x0 SLOAD PUSH1 0x1 PUSH1 0x1 PUSH1 0xA0 SHL SUB AND CALLER EQ PUSH3 0x1313 JUMPI PUSH1 0x40 MLOAD PUSH3 0x461BCD PUSH1 0xE5 SHL DUP2 MSTORE PUSH1 0x20 PUSH1 0x4 DUP3 ADD DUP2 SWAP1 MSTORE PUSH1 0x24 DUP3 ADD MSTORE PUSH32 0x4F776E61626C653A2063616C6C6572206973206E6F7420746865206F776E6572 PUSH1 0x44 DUP3 ADD MSTORE PUSH1 0x64 ADD PUSH3 0x452 JUMP JUMPDEST PUSH1 0x0 DUP1 SLOAD PUSH1 0x1 PUSH1 0x1 PUSH1 0xA0 SHL SUB DUP4 DUP2 AND PUSH1 0x1 PUSH1 0x1 PUSH1 0xA0 SHL SUB NOT DUP4 AND DUP2 OR DUP5 SSTORE PUSH1 0x40 MLOAD SWAP2 SWAP1 SWAP3 AND SWAP3 DUP4 SWAP2 PUSH32 0x8BE0079C531659141344CD1FD0A4F28419497F9722A3DAAFE3B4186F6B6457E0 SWAP2 SWAP1 LOG3 POP POP JUMP JUMPDEST PUSH1 0x40 MLOAD DUP1 PUSH2 0x1A0 ADD PUSH1 0x40 MSTORE DUP1 PUSH1 0x0 PUSH1 0x1 PUSH1 0x1 PUSH1 0xA0 SHL SUB AND DUP2 MSTORE PUSH1 0x20 ADD PUSH1 0x60 DUP2 MSTORE PUSH1 0x20 ADD PUSH1 0x60 DUP2 MSTORE PUSH1 0x20 ADD PUSH1 0x0 DUP2 MSTORE PUSH1 0x20 ADD PUSH1 0x0 DUP2 MSTORE PUSH1 0x20 ADD PUSH1 0x0 DUP2 MSTORE PUSH1 0x20 ADD PUSH1 0x0 DUP2 MSTORE PUSH1 0x20 ADD PUSH1 0x0 DUP2 MSTORE PUSH1 0x20 ADD PUSH1 0x0 DUP2 MSTORE PUSH1 0x20 ADD PUSH1 0x60 DUP2 MSTORE PUSH1 0x20 ADD PUSH1 0x0 ISZERO ISZERO DUP2 MSTORE PUSH1 0x20 ADD PUSH1 0x0 DUP2 MSTORE PUSH1 0x20 ADD PUSH1 0x0 DUP2 MSTORE POP SWAP1 JUMP JUMPDEST PUSH2 0x1A36 DUP1 PUSH3 0x3335 DUP4 CODECOPY ADD SWAP1 JUMP JUMPDEST PUSH1 0x0 PUSH1 0x20 DUP3 DUP5 SUB SLT ISZERO PUSH3 0x29B3 JUMPI PUSH1 0x0 DUP1 REVERT JUMPDEST POP CALLDATALOAD SWAP2 SWAP1 POP JUMP JUMPDEST PUSH1 0x0 DUP2 MLOAD DUP1 DUP5 MSTORE PUSH1 0x0 JUMPDEST DUP2 DUP2 LT ISZERO PUSH3 0x29E2 JUMPI PUSH1 0x20 DUP2 DUP6 ADD DUP2 ADD MLOAD DUP7 DUP4 ADD DUP3 ADD MSTORE ADD PUSH3 0x29C4 JUMP JUMPDEST POP PUSH1 0x0 PUSH1 0x20 DUP3 DUP7 ADD ADD MSTORE PUSH1 0x20 PUSH1 0x1F NOT PUSH1 0x1F DUP4 ADD AND DUP6 ADD ADD SWAP2 POP POP SWAP3 SWAP2 POP POP JUMP JUMPDEST PUSH1 0x1 PUSH1 0x1 PUSH1 0xA0 SHL SUB DUP15 AND DUP2 MSTORE PUSH2 0x1A0 PUSH1 0x20 DUP3 ADD DUP2 SWAP1 MSTORE PUSH1 0x0 SWAP1 PUSH3 0x2A29 SWAP1 DUP4 ADD DUP16 PUSH3 0x29BA JUMP JUMPDEST DUP3 DUP2 SUB PUSH1 0x40 DUP5 ADD MSTORE PUSH3 0x2A3D DUP2 DUP16 PUSH3 0x29BA JUMP JUMPDEST SWAP1 POP DUP13 PUSH1 0x60 DUP5 ADD MSTORE DUP12 PUSH1 0x80 DUP5 ADD MSTORE DUP11 PUSH1 0xA0 DUP5 ADD MSTORE DUP10 PUSH1 0xC0 DUP5 ADD MSTORE DUP9 PUSH1 0xE0 DUP5 ADD MSTORE DUP8 PUSH2 0x100 DUP5 ADD MSTORE DUP3 DUP2 SUB PUSH2 0x120 DUP5 ADD MSTORE PUSH3 0x2A79 DUP2 DUP9 PUSH3 0x29BA JUMP JUMPDEST SWAP2 POP POP PUSH3 0x2A8C PUSH2 0x140 DUP4 ADD DUP7 ISZERO ISZERO SWAP1 MSTORE JUMP JUMPDEST PUSH2 0x160 DUP3 ADD SWAP4 SWAP1 SWAP4 MSTORE PUSH2 0x180 ADD MSTORE SWAP12 SWAP11 POP POP POP POP POP POP POP POP POP POP POP JUMP JUMPDEST PUSH4 0x4E487B71 PUSH1 0xE0 SHL PUSH1 0x0 MSTORE PUSH1 0x41 PUSH1 0x4 MSTORE PUSH1 0x24 PUSH1 0x0 REVERT JUMPDEST PUSH1 0x0 DUP3 PUSH1 0x1F DUP4 ADD SLT PUSH3 0x2AD1 JUMPI PUSH1 0x0 DUP1 REVERT JUMPDEST DUP2 CALLDATALOAD PUSH8 0xFFFFFFFFFFFFFFFF DUP1 DUP3 GT ISZERO PUSH3 0x2AEF JUMPI PUSH3 0x2AEF PUSH3 0x2AA9 JUMP JUMPDEST PUSH1 0x40 MLOAD PUSH1 0x1F DUP4 ADD PUSH1 0x1F NOT SWAP1 DUP2 AND PUSH1 0x3F ADD AND DUP2 ADD SWAP1 DUP3 DUP3 GT DUP2 DUP4 LT OR ISZERO PUSH3 0x2B1A JUMPI PUSH3 0x2B1A PUSH3 0x2AA9 JUMP JUMPDEST DUP2 PUSH1 0x40 MSTORE DUP4 DUP2 MSTORE DUP7 PUSH1 0x20 DUP6 DUP9 ADD ADD GT ISZERO PUSH3 0x2B34 JUMPI PUSH1 0x0 DUP1 REVERT JUMPDEST DUP4 PUSH1 0x20 DUP8 ADD PUSH1 0x20 DUP4 ADD CALLDATACOPY PUSH1 0x0 PUSH1 0x20 DUP6 DUP4 ADD ADD MSTORE DUP1 SWAP5 POP POP POP POP POP SWAP3 SWAP2 POP POP JUMP JUMPDEST PUSH1 0x0 DUP1 PUSH1 0x0 DUP1 PUSH1 0x0 DUP1 PUSH1 0x0 DUP1 PUSH1 0x0 PUSH2 0x120 DUP11 DUP13 SUB SLT ISZERO PUSH3 0x2B74 JUMPI PUSH1 0x0 DUP1 REVERT JUMPDEST DUP10 CALLDATALOAD PUSH8 0xFFFFFFFFFFFFFFFF DUP1 DUP3 GT ISZERO PUSH3 0x2B8D JUMPI PUSH1 0x0 DUP1 REVERT JUMPDEST PUSH3 0x2B9B DUP14 DUP4 DUP15 ADD PUSH3 0x2ABF JUMP JUMPDEST SWAP11 POP PUSH1 0x20 DUP13 ADD CALLDATALOAD SWAP2 POP DUP1 DUP3 GT ISZERO PUSH3 0x2BB2 JUMPI PUSH1 0x0 DUP1 REVERT JUMPDEST PUSH3 0x2BC0 DUP14 DUP4 DUP15 ADD PUSH3 0x2ABF JUMP JUMPDEST SWAP10 POP PUSH1 0x40 DUP13 ADD CALLDATALOAD SWAP9 POP PUSH1 0x60 DUP13 ADD CALLDATALOAD SWAP8 POP PUSH1 0x80 DUP13 ADD CALLDATALOAD SWAP7 POP PUSH1 0xA0 DUP13 ADD CALLDATALOAD SWAP6 POP PUSH1 0xC0 DUP13 ADD CALLDATALOAD SWAP2 POP DUP1 DUP3 GT ISZERO PUSH3 0x2BF3 JUMPI PUSH1 0x0 DUP1 REVERT JUMPDEST PUSH3 0x2C01 DUP14 DUP4 DUP15 ADD PUSH3 0x2ABF JUMP JUMPDEST SWAP5 POP PUSH1 0xE0 DUP13 ADD CALLDATALOAD SWAP4 POP PUSH2 0x100 DUP13 ADD CALLDATALOAD SWAP2 POP DUP1 DUP3 GT ISZERO PUSH3 0x2C20 JUMPI PUSH1 0x0 DUP1 REVERT JUMPDEST POP PUSH3 0x2C2F DUP13 DUP3 DUP14 ADD PUSH3 0x2ABF JUMP JUMPDEST SWAP2 POP POP SWAP3 SWAP6 SWAP9 POP SWAP3 SWAP6 SWAP9 POP SWAP3 SWAP6 SWAP9 JUMP JUMPDEST DUP1 MLOAD PUSH1 0x1 PUSH1 0x1 PUSH1 0xA0 SHL SUB AND DUP3 MSTORE PUSH1 0x0 PUSH2 0x1A0 PUSH1 0x20 DUP4 ADD MLOAD DUP2 PUSH1 0x20 DUP7 ADD MSTORE PUSH3 0x2C6A DUP3 DUP7 ADD DUP3 PUSH3 0x29BA JUMP JUMPDEST SWAP2 POP POP PUSH1 0x40 DUP4 ADD MLOAD DUP5 DUP3 SUB PUSH1 0x40 DUP7 ADD MSTORE PUSH3 0x2C86 DUP3 DUP3 PUSH3 0x29BA JUMP JUMPDEST SWAP2 POP POP PUSH1 0x60 DUP4 ADD MLOAD PUSH1 0x60 DUP6 ADD MSTORE PUSH1 0x80 DUP4 ADD MLOAD PUSH1 0x80 DUP6 ADD MSTORE PUSH1 0xA0 DUP4 ADD MLOAD PUSH1 0xA0 DUP6 ADD MSTORE PUSH1 0xC0 DUP4 ADD MLOAD PUSH1 0xC0 DUP6 ADD MSTORE PUSH1 0xE0 DUP4 ADD MLOAD PUSH1 0xE0 DUP6 ADD MSTORE PUSH2 0x100 DUP1 DUP5 ADD MLOAD DUP2 DUP7 ADD MSTORE POP PUSH2 0x120 DUP1 DUP5 ADD MLOAD DUP6 DUP4 SUB DUP3 DUP8 ADD MSTORE PUSH3 0x2CE1 DUP4 DUP3 PUSH3 0x29BA JUMP JUMPDEST SWAP3 POP POP POP PUSH2 0x140 DUP1 DUP5 ADD MLOAD PUSH3 0x2CFA DUP3 DUP8 ADD DUP3 ISZERO ISZERO SWAP1 MSTORE JUMP JUMPDEST POP POP PUSH2 0x160 DUP4 DUP2 ADD MLOAD SWAP1 DUP6 ADD MSTORE PUSH2 0x180 SWAP3 DUP4 ADD MLOAD SWAP3 SWAP1 SWAP4 ADD SWAP2 SWAP1 SWAP2 MSTORE POP SWAP1 JUMP JUMPDEST PUSH1 0x20 DUP2 MSTORE PUSH1 0x0 PUSH3 0x1DD3 PUSH1 0x20 DUP4 ADD DUP5 PUSH3 0x2C3F JUMP JUMPDEST PUSH1 0x1 PUSH1 0x1 PUSH1 0xA0 SHL SUB DUP2 AND DUP2 EQ PUSH3 0x2870 JUMPI PUSH1 0x0 DUP1 REVERT JUMPDEST PUSH1 0x0 DUP1 PUSH1 0x40 DUP4 DUP6 SUB SLT ISZERO PUSH3 0x2D59 JUMPI PUSH1 0x0 DUP1 REVERT JUMPDEST DUP3 CALLDATALOAD SWAP2 POP PUSH1 0x20 DUP4 ADD CALLDATALOAD PUSH3 0x2D6D DUP2 PUSH3 0x2D2F JUMP JUMPDEST DUP1 SWAP2 POP POP SWAP3 POP SWAP3 SWAP1 POP JUMP JUMPDEST PUSH1 0x0 DUP1 PUSH1 0x40 DUP4 DUP6 SUB SLT ISZERO PUSH3 0x2D8C JUMPI PUSH1 0x0 DUP1 REVERT JUMPDEST POP POP DUP1 CALLDATALOAD SWAP3 PUSH1 0x20 SWAP1 SWAP2 ADD CALLDATALOAD SWAP2 POP JUMP JUMPDEST PUSH1 0x0 DUP1 PUSH1 0x0 PUSH1 0x60 DUP5 DUP7 SUB SLT ISZERO PUSH3 0x2DB1 JUMPI PUSH1 0x0 DUP1 REVERT JUMPDEST DUP4 CALLDATALOAD SWAP3 POP PUSH1 0x20 DUP5 ADD CALLDATALOAD PUSH3 0x2DC5 DUP2 PUSH3 0x2D2F JUMP JUMPDEST SWAP3 SWAP6 SWAP3 SWAP5 POP POP POP PUSH1 0x40 SWAP2 SWAP1 SWAP2 ADD CALLDATALOAD SWAP1 JUMP JUMPDEST PUSH1 0x0 DUP1 PUSH1 0x0 DUP1 PUSH1 0x80 DUP6 DUP8 SUB SLT ISZERO PUSH3 0x2DED JUMPI PUSH1 0x0 DUP1 REVERT JUMPDEST DUP5 CALLDATALOAD SWAP4 POP PUSH1 0x20 DUP6 ADD CALLDATALOAD SWAP3 POP PUSH1 0x40 DUP6 ADD CALLDATALOAD PUSH3 0x2E08 DUP2 PUSH3 0x2D2F JUMP JUMPDEST SWAP4 SWAP7 SWAP3 SWAP6 POP SWAP3 SWAP4 PUSH1 0x60 ADD CALLDATALOAD SWAP3 POP POP JUMP JUMPDEST PUSH1 0x0 DUP1 PUSH1 0x0 DUP1 PUSH1 0x80 DUP6 DUP8 SUB SLT ISZERO PUSH3 0x2E2F JUMPI PUSH1 0x0 DUP1 REVERT JUMPDEST DUP5 CALLDATALOAD SWAP4 POP PUSH1 0x20 DUP6 ADD CALLDATALOAD PUSH3 0x2E43 DUP2 PUSH3 0x2D2F JUMP JUMPDEST SWAP3 POP PUSH1 0x40 DUP6 ADD CALLDATALOAD PUSH3 0x2E08 DUP2 PUSH3 0x2D2F JUMP JUMPDEST PUSH1 0x0 PUSH1 0x20 DUP1 DUP4 ADD DUP2 DUP5 MSTORE DUP1 DUP6 MLOAD DUP1 DUP4 MSTORE PUSH1 0x40 DUP7 ADD SWAP2 POP PUSH1 0x40 DUP2 PUSH1 0x5 SHL DUP8 ADD ADD SWAP3 POP DUP4 DUP8 ADD PUSH1 0x0 JUMPDEST DUP3 DUP2 LT ISZERO PUSH3 0x2EAE JUMPI PUSH1 0x3F NOT DUP9 DUP7 SUB ADD DUP5 MSTORE PUSH3 0x2E9B DUP6 DUP4 MLOAD PUSH3 0x2C3F JUMP JUMPDEST SWAP5 POP SWAP3 DUP6 ADD SWAP3 SWAP1 DUP6 ADD SWAP1 PUSH1 0x1 ADD PUSH3 0x2E7C JUMP JUMPDEST POP SWAP3 SWAP8 SWAP7 POP POP POP POP POP POP POP JUMP JUMPDEST PUSH1 0x0 PUSH1 0x20 DUP3 DUP5 SUB SLT ISZERO PUSH3 0x2ECE JUMPI PUSH1 0x0 DUP1 REVERT JUMPDEST DUP2 CALLDATALOAD PUSH3 0x1DD3 DUP2 PUSH3 0x2D2F JUMP JUMPDEST PUSH1 0x20 DUP1 DUP3 MSTORE PUSH1 0x11 SWAP1 DUP3 ADD MSTORE PUSH17 0x125B9D985B1A59081C1C9BDA9958DD1259 PUSH1 0x7A SHL PUSH1 0x40 DUP3 ADD MSTORE PUSH1 0x60 ADD SWAP1 JUMP JUMPDEST PUSH4 0x4E487B71 PUSH1 0xE0 SHL PUSH1 0x0 MSTORE PUSH1 0x32 PUSH1 0x4 MSTORE PUSH1 0x24 PUSH1 0x0 REVERT JUMPDEST PUSH1 0x1 PUSH1 0x1 PUSH1 0xA0 SHL SUB SWAP3 SWAP1 SWAP3 AND DUP3 MSTORE PUSH1 0x20 DUP3 ADD MSTORE PUSH1 0x40 ADD SWAP1 JUMP JUMPDEST PUSH1 0x0 PUSH1 0x20 DUP3 DUP5 SUB SLT ISZERO PUSH3 0x2F48 JUMPI PUSH1 0x0 DUP1 REVERT JUMPDEST POP MLOAD SWAP2 SWAP1 POP JUMP JUMPDEST PUSH1 0x1 PUSH1 0x1 PUSH1 0xA0 SHL SUB SWAP4 DUP5 AND DUP2 MSTORE SWAP2 SWAP1 SWAP3 AND PUSH1 0x20 DUP3 ADD MSTORE PUSH1 0x40 DUP2 ADD SWAP2 SWAP1 SWAP2 MSTORE PUSH1 0x60 ADD SWAP1 JUMP JUMPDEST PUSH1 0x0 PUSH1 0x20 DUP3 DUP5 SUB SLT ISZERO PUSH3 0x2F86 JUMPI PUSH1 0x0 DUP1 REVERT JUMPDEST DUP2 MLOAD DUP1 ISZERO ISZERO DUP2 EQ PUSH3 0x1DD3 JUMPI PUSH1 0x0 DUP1 REVERT JUMPDEST PUSH1 0x1 DUP2 DUP2 SHR SWAP1 DUP3 AND DUP1 PUSH3 0x2FAC JUMPI PUSH1 0x7F DUP3 AND SWAP2 POP JUMPDEST PUSH1 0x20 DUP3 LT DUP2 SUB PUSH3 0x27B1 JUMPI PUSH4 0x4E487B71 PUSH1 0xE0 SHL PUSH1 0x0 MSTORE PUSH1 0x22 PUSH1 0x4 MSTORE PUSH1 0x24 PUSH1 0x0 REVERT JUMPDEST PUSH1 0x20 DUP1 DUP3 MSTORE PUSH1 0x25 SWAP1 DUP3 ADD MSTORE PUSH32 0x50657263656E746167652063616E6E6F74206265206772656174657220746861 PUSH1 0x40 DUP3 ADD MSTORE PUSH5 0x6E2031303 PUSH1 0xDC SHL PUSH1 0x60 DUP3 ADD MSTORE PUSH1 0x80 ADD SWAP1 JUMP JUMPDEST PUSH1 0x80 DUP2 MSTORE PUSH1 0x0 PUSH3 0x3027 PUSH1 0x80 DUP4 ADD DUP8 PUSH3 0x29BA JUMP JUMPDEST DUP3 DUP2 SUB PUSH1 0x20 DUP5 ADD MSTORE PUSH3 0x303B DUP2 DUP8 PUSH3 0x29BA JUMP JUMPDEST PUSH1 0x1 PUSH1 0x1 PUSH1 0xA0 SHL SUB SWAP6 SWAP1 SWAP6 AND PUSH1 0x40 DUP5 ADD MSTORE POP POP PUSH1 0x60 ADD MSTORE SWAP3 SWAP2 POP POP JUMP JUMPDEST PUSH1 0x1 DUP1 PUSH1 0xA0 SHL SUB DUP5 AND DUP2 MSTORE DUP3 PUSH1 0x20 DUP3 ADD MSTORE PUSH1 0x60 PUSH1 0x40 DUP3 ADD MSTORE PUSH1 0x0 PUSH3 0x3081 PUSH1 0x60 DUP4 ADD DUP5 PUSH3 0x29BA JUMP JUMPDEST SWAP6 SWAP5 POP POP POP POP POP JUMP JUMPDEST PUSH1 0x1F DUP3 GT ISZERO PUSH3 0xEB2 JUMPI PUSH1 0x0 DUP2 DUP2 MSTORE PUSH1 0x20 DUP2 KECCAK256 PUSH1 0x1F DUP6 ADD PUSH1 0x5 SHR DUP2 ADD PUSH1 0x20 DUP7 LT ISZERO PUSH3 0x30B3 JUMPI POP DUP1 JUMPDEST PUSH1 0x1F DUP6 ADD PUSH1 0x5 SHR DUP3 ADD SWAP2 POP JUMPDEST DUP2 DUP2 LT ISZERO PUSH3 0xE30 JUMPI DUP3 DUP2 SSTORE PUSH1 0x1 ADD PUSH3 0x30BF JUMP JUMPDEST DUP2 MLOAD PUSH8 0xFFFFFFFFFFFFFFFF DUP2 GT ISZERO PUSH3 0x30F1 JUMPI PUSH3 0x30F1 PUSH3 0x2AA9 JUMP JUMPDEST PUSH3 0x3109 DUP2 PUSH3 0x3102 DUP5 SLOAD PUSH3 0x2F97 JUMP JUMPDEST DUP5 PUSH3 0x308A JUMP JUMPDEST PUSH1 0x20 DUP1 PUSH1 0x1F DUP4 GT PUSH1 0x1 DUP2 EQ PUSH3 0x3141 JUMPI PUSH1 0x0 DUP5 ISZERO PUSH3 0x3128 JUMPI POP DUP6 DUP4 ADD MLOAD JUMPDEST PUSH1 0x0 NOT PUSH1 0x3 DUP7 SWAP1 SHL SHR NOT AND PUSH1 0x1 DUP6 SWAP1 SHL OR DUP6 SSTORE PUSH3 0xE30 JUMP JUMPDEST PUSH1 0x0 DUP6 DUP2 MSTORE PUSH1 0x20 DUP2 KECCAK256 PUSH1 0x1F NOT DUP7 AND SWAP2 JUMPDEST DUP3 DUP2 LT ISZERO PUSH3 0x3172 JUMPI DUP9 DUP7 ADD MLOAD DUP3 SSTORE SWAP5 DUP5 ADD SWAP5 PUSH1 0x1 SWAP1 SWAP2 ADD SWAP1 DUP5 ADD PUSH3 0x3151 JUMP JUMPDEST POP DUP6 DUP3 LT ISZERO PUSH3 0x3191 JUMPI DUP8 DUP6 ADD MLOAD PUSH1 0x0 NOT PUSH1 0x3 DUP9 SWAP1 SHL PUSH1 0xF8 AND SHR NOT AND DUP2 SSTORE JUMPDEST POP POP POP POP POP PUSH1 0x1 SWAP1 DUP2 SHL ADD SWAP1 SSTORE POP JUMP JUMPDEST PUSH1 0x0 PUSH1 0x20 DUP3 DUP5 SUB SLT ISZERO PUSH3 0x31B4 JUMPI PUSH1 0x0 DUP1 REVERT JUMPDEST DUP2 MLOAD PUSH3 0x1DD3 DUP2 PUSH3 0x2D2F JUMP JUMPDEST PUSH1 0x20 DUP1 DUP3 MSTORE PUSH1 0x14 SWAP1 DUP3 ADD MSTORE PUSH20 0x526966612062616C616E6365206973207A65726F PUSH1 0x60 SHL PUSH1 0x40 DUP3 ADD MSTORE PUSH1 0x60 ADD SWAP1 JUMP JUMPDEST PUSH4 0x4E487B71 PUSH1 0xE0 SHL PUSH1 0x0 MSTORE PUSH1 0x11 PUSH1 0x4 MSTORE PUSH1 0x24 PUSH1 0x0 REVERT JUMPDEST DUP1 DUP3 MUL DUP2 ISZERO DUP3 DUP3 DIV DUP5 EQ OR PUSH3 0x733 JUMPI PUSH3 0x733 PUSH3 0x31EF JUMP JUMPDEST PUSH1 0x0 DUP3 PUSH3 0x323D JUMPI PUSH4 0x4E487B71 PUSH1 0xE0 SHL PUSH1 0x0 MSTORE PUSH1 0x12 PUSH1 0x4 MSTORE PUSH1 0x24 PUSH1 0x0 REVERT JUMPDEST POP DIV SWAP1 JUMP JUMPDEST DUP2 DUP2 SUB DUP2 DUP2 GT ISZERO PUSH3 0x733 JUMPI PUSH3 0x733 PUSH3 0x31EF JUMP JUMPDEST PUSH1 0x1 DUP1 PUSH1 0xA0 SHL SUB DUP5 AND DUP2 MSTORE PUSH1 0x0 PUSH1 0x20 DUP5 DUP2 DUP5 ADD MSTORE PUSH1 0x60 PUSH1 0x40 DUP5 ADD MSTORE PUSH1 0x0 DUP5 SLOAD PUSH3 0x3282 DUP2 PUSH3 0x2F97 JUMP JUMPDEST DUP1 PUSH1 0x60 DUP8 ADD MSTORE PUSH1 0x80 PUSH1 0x1 DUP1 DUP5 AND PUSH1 0x0 DUP2 EQ PUSH3 0x32A7 JUMPI PUSH1 0x1 DUP2 EQ PUSH3 0x32C2 JUMPI PUSH3 0x32F2 JUMP JUMPDEST PUSH1 0xFF NOT DUP6 AND DUP10 DUP5 ADD MSTORE DUP4 ISZERO ISZERO PUSH1 0x5 SHL DUP10 ADD DUP4 ADD SWAP6 POP PUSH3 0x32F2 JUMP JUMPDEST DUP10 PUSH1 0x0 MSTORE DUP7 PUSH1 0x0 KECCAK256 PUSH1 0x0 JUMPDEST DUP6 DUP2 LT ISZERO PUSH3 0x32EA JUMPI DUP2 SLOAD DUP12 DUP3 ADD DUP7 ADD MSTORE SWAP1 DUP4 ADD SWAP1 DUP9 ADD PUSH3 0x32CD JUMP JUMPDEST DUP11 ADD DUP5 ADD SWAP7 POP POP JUMPDEST POP SWAP4 SWAP11 SWAP10 POP POP POP POP POP POP POP POP POP POP JUMP JUMPDEST PUSH1 0x0 PUSH1 0x1 DUP3 ADD PUSH3 0x3317 JUMPI PUSH3 0x3317 PUSH3 0x31EF JUMP JUMPDEST POP PUSH1 0x1 ADD SWAP1 JUMP JUMPDEST DUP1 DUP3 ADD DUP1 DUP3 GT ISZERO PUSH3 0x733 JUMPI PUSH3 0x733 PUSH3 0x31EF JUMP INVALID PUSH1 0x80 PUSH1 0x40 MSTORE PUSH1 0x0 PUSH1 0x8 SSTORE CALLVALUE DUP1 ISZERO PUSH3 0x16 JUMPI PUSH1 0x0 DUP1 REVERT JUMPDEST POP PUSH1 0x40 MLOAD PUSH3 0x1A36 CODESIZE SUB DUP1 PUSH3 0x1A36 DUP4 CODECOPY DUP2 ADD PUSH1 0x40 DUP2 SWAP1 MSTORE PUSH3 0x39 SWAP2 PUSH3 0x1C8 JUMP JUMPDEST DUP4 DUP4 PUSH1 0x0 PUSH3 0x49 DUP4 DUP3 PUSH3 0x2EA JUMP JUMPDEST POP PUSH1 0x1 PUSH3 0x58 DUP3 DUP3 PUSH3 0x2EA JUMP JUMPDEST POP POP POP PUSH3 0x75 PUSH3 0x6F PUSH3 0xAD PUSH1 0x20 SHL PUSH1 0x20 SHR JUMP JUMPDEST PUSH3 0xB1 JUMP JUMPDEST PUSH1 0x9 DUP1 SLOAD PUSH1 0x1 PUSH1 0x1 PUSH1 0xA0 SHL SUB NOT AND PUSH1 0x1 PUSH1 0x1 PUSH1 0xA0 SHL SUB DUP5 AND OR SWAP1 SSTORE PUSH3 0x9F DUP2 PUSH3 0xF4240 PUSH3 0x3B6 JUMP JUMPDEST PUSH1 0xA SSTORE POP PUSH3 0x3E2 SWAP3 POP POP POP JUMP JUMPDEST CALLER SWAP1 JUMP JUMPDEST PUSH1 0x6 DUP1 SLOAD PUSH1 0x1 PUSH1 0x1 PUSH1 0xA0 SHL SUB DUP4 DUP2 AND PUSH1 0x1 PUSH1 0x1 PUSH1 0xA0 SHL SUB NOT DUP4 AND DUP2 OR SWAP1 SWAP4 SSTORE PUSH1 0x40 MLOAD SWAP2 AND SWAP2 SWAP1 DUP3 SWAP1 PUSH32 0x8BE0079C531659141344CD1FD0A4F28419497F9722A3DAAFE3B4186F6B6457E0 SWAP1 PUSH1 0x0 SWAP1 LOG3 POP POP JUMP JUMPDEST PUSH4 0x4E487B71 PUSH1 0xE0 SHL PUSH1 0x0 MSTORE PUSH1 0x41 PUSH1 0x4 MSTORE PUSH1 0x24 PUSH1 0x0 REVERT JUMPDEST PUSH1 0x0 DUP3 PUSH1 0x1F DUP4 ADD SLT PUSH3 0x12B JUMPI PUSH1 0x0 DUP1 REVERT JUMPDEST DUP2 MLOAD PUSH1 0x1 PUSH1 0x1 PUSH1 0x40 SHL SUB DUP1 DUP3 GT ISZERO PUSH3 0x148 JUMPI PUSH3 0x148 PUSH3 0x103 JUMP JUMPDEST PUSH1 0x40 MLOAD PUSH1 0x1F DUP4 ADD PUSH1 0x1F NOT SWAP1 DUP2 AND PUSH1 0x3F ADD AND DUP2 ADD SWAP1 DUP3 DUP3 GT DUP2 DUP4 LT OR ISZERO PUSH3 0x173 JUMPI PUSH3 0x173 PUSH3 0x103 JUMP JUMPDEST DUP2 PUSH1 0x40 MSTORE DUP4 DUP2 MSTORE PUSH1 0x20 SWAP3 POP DUP7 DUP4 DUP6 DUP9 ADD ADD GT ISZERO PUSH3 0x190 JUMPI PUSH1 0x0 DUP1 REVERT JUMPDEST PUSH1 0x0 SWAP2 POP JUMPDEST DUP4 DUP3 LT ISZERO PUSH3 0x1B4 JUMPI DUP6 DUP3 ADD DUP4 ADD MLOAD DUP2 DUP4 ADD DUP5 ADD MSTORE SWAP1 DUP3 ADD SWAP1 PUSH3 0x195 JUMP JUMPDEST PUSH1 0x0 SWAP4 DUP2 ADD SWAP1 SWAP3 ADD SWAP3 SWAP1 SWAP3 MSTORE SWAP5 SWAP4 POP POP POP POP JUMP JUMPDEST PUSH1 0x0 DUP1 PUSH1 0x0 DUP1 PUSH1 0x80 DUP6 DUP8 SUB SLT ISZERO PUSH3 0x1DF JUMPI PUSH1 0x0 DUP1 REVERT JUMPDEST DUP5 MLOAD PUSH1 0x1 PUSH1 0x1 PUSH1 0x40 SHL SUB DUP1 DUP3 GT ISZERO PUSH3 0x1F7 JUMPI PUSH1 0x0 DUP1 REVERT JUMPDEST PUSH3 0x205 DUP9 DUP4 DUP10 ADD PUSH3 0x119 JUMP JUMPDEST SWAP6 POP PUSH1 0x20 DUP8 ADD MLOAD SWAP2 POP DUP1 DUP3 GT ISZERO PUSH3 0x21C JUMPI PUSH1 0x0 DUP1 REVERT JUMPDEST POP PUSH3 0x22B DUP8 DUP3 DUP9 ADD PUSH3 0x119 JUMP JUMPDEST PUSH1 0x40 DUP8 ADD MLOAD SWAP1 SWAP5 POP SWAP1 POP PUSH1 0x1 PUSH1 0x1 PUSH1 0xA0 SHL SUB DUP2 AND DUP2 EQ PUSH3 0x24B JUMPI PUSH1 0x0 DUP1 REVERT JUMPDEST PUSH1 0x60 SWAP6 SWAP1 SWAP6 ADD MLOAD SWAP4 SWAP7 SWAP3 SWAP6 POP POP POP JUMP JUMPDEST PUSH1 0x1 DUP2 DUP2 SHR SWAP1 DUP3 AND DUP1 PUSH3 0x270 JUMPI PUSH1 0x7F DUP3 AND SWAP2 POP JUMPDEST PUSH1 0x20 DUP3 LT DUP2 SUB PUSH3 0x291 JUMPI PUSH4 0x4E487B71 PUSH1 0xE0 SHL PUSH1 0x0 MSTORE PUSH1 0x22 PUSH1 0x4 MSTORE PUSH1 0x24 PUSH1 0x0 REVERT JUMPDEST POP SWAP2 SWAP1 POP JUMP JUMPDEST PUSH1 0x1F DUP3 GT ISZERO PUSH3 0x2E5 JUMPI PUSH1 0x0 DUP2 DUP2 MSTORE PUSH1 0x20 DUP2 KECCAK256 PUSH1 0x1F DUP6 ADD PUSH1 0x5 SHR DUP2 ADD PUSH1 0x20 DUP7 LT ISZERO PUSH3 0x2C0 JUMPI POP DUP1 JUMPDEST PUSH1 0x1F DUP6 ADD PUSH1 0x5 SHR DUP3 ADD SWAP2 POP JUMPDEST DUP2 DUP2 LT ISZERO PUSH3 0x2E1 JUMPI DUP3 DUP2 SSTORE PUSH1 0x1 ADD PUSH3 0x2CC JUMP JUMPDEST POP POP POP JUMPDEST POP POP POP JUMP JUMPDEST DUP2 MLOAD PUSH1 0x1 PUSH1 0x1 PUSH1 0x40 SHL SUB DUP2 GT ISZERO PUSH3 0x306 JUMPI PUSH3 0x306 PUSH3 0x103 JUMP JUMPDEST PUSH3 0x31E DUP2 PUSH3 0x317 DUP5 SLOAD PUSH3 0x25B JUMP JUMPDEST DUP5 PUSH3 0x297 JUMP JUMPDEST PUSH1 0x20 DUP1 PUSH1 0x1F DUP4 GT PUSH1 0x1 DUP2 EQ PUSH3 0x356 JUMPI PUSH1 0x0 DUP5 ISZERO PUSH3 0x33D JUMPI POP DUP6 DUP4 ADD MLOAD JUMPDEST PUSH1 0x0 NOT PUSH1 0x3 DUP7 SWAP1 SHL SHR NOT AND PUSH1 0x1 DUP6 SWAP1 SHL OR DUP6 SSTORE PUSH3 0x2E1 JUMP JUMPDEST PUSH1 0x0 DUP6 DUP2 MSTORE PUSH1 0x20 DUP2 KECCAK256 PUSH1 0x1F NOT DUP7 AND SWAP2 JUMPDEST DUP3 DUP2 LT ISZERO PUSH3 0x387 JUMPI DUP9 DUP7 ADD MLOAD DUP3 SSTORE SWAP5 DUP5 ADD SWAP5 PUSH1 0x1 SWAP1 SWAP2 ADD SWAP1 DUP5 ADD PUSH3 0x366 JUMP JUMPDEST POP DUP6 DUP3 LT ISZERO PUSH3 0x3A6 JUMPI DUP8 DUP6 ADD MLOAD PUSH1 0x0 NOT PUSH1 0x3 DUP9 SWAP1 SHL PUSH1 0xF8 AND SHR NOT AND DUP2 SSTORE JUMPDEST POP POP POP POP POP PUSH1 0x1 SWAP1 DUP2 SHL ADD SWAP1 SSTORE POP JUMP JUMPDEST DUP1 DUP3 MUL DUP2 ISZERO DUP3 DUP3 DIV DUP5 EQ OR PUSH3 0x3DC JUMPI PUSH4 0x4E487B71 PUSH1 0xE0 SHL PUSH1 0x0 MSTORE PUSH1 0x11 PUSH1 0x4 MSTORE PUSH1 0x24 PUSH1 0x0 REVERT JUMPDEST SWAP3 SWAP2 POP POP JUMP JUMPDEST PUSH2 0x1644 DUP1 PUSH3 0x3F2 PUSH1 0x0 CODECOPY PUSH1 0x0 RETURN INVALID PUSH1 0x80 PUSH1 0x40 MSTORE CALLVALUE DUP1 ISZERO PUSH2 0x10 JUMPI PUSH1 0x0 DUP1 REVERT JUMPDEST POP PUSH1 0x4 CALLDATASIZE LT PUSH2 0x158 JUMPI PUSH1 0x0 CALLDATALOAD PUSH1 0xE0 SHR DUP1 PUSH4 0x715018A6 GT PUSH2 0xC3 JUMPI DUP1 PUSH4 0xB88D4FDE GT PUSH2 0x7C JUMPI DUP1 PUSH4 0xB88D4FDE EQ PUSH2 0x2C6 JUMPI DUP1 PUSH4 0xC87B56DD EQ PUSH2 0x2D9 JUMPI DUP1 PUSH4 0xD3FC9864 EQ PUSH2 0x2EC JUMPI DUP1 PUSH4 0xE2C79281 EQ PUSH2 0x2FF JUMPI DUP1 PUSH4 0xE985E9C5 EQ PUSH2 0x308 JUMPI DUP1 PUSH4 0xF2FDE38B EQ PUSH2 0x344 JUMPI PUSH1 0x0 DUP1 REVERT JUMPDEST DUP1 PUSH4 0x715018A6 EQ PUSH2 0x26C JUMPI DUP1 PUSH4 0x8DA5CB5B EQ PUSH2 0x274 JUMPI DUP1 PUSH4 0x95D89B41 EQ PUSH2 0x285 JUMPI DUP1 PUSH4 0xA1167B0D EQ PUSH2 0x28D JUMPI DUP1 PUSH4 0xA22CB465 EQ PUSH2 0x2A0 JUMPI DUP1 PUSH4 0xA98AD46C EQ PUSH2 0x2B3 JUMPI PUSH1 0x0 DUP1 REVERT JUMPDEST DUP1 PUSH4 0x23B872DD GT PUSH2 0x115 JUMPI DUP1 PUSH4 0x23B872DD EQ PUSH2 0x204 JUMPI DUP1 PUSH4 0x24C979A3 EQ PUSH2 0x217 JUMPI DUP1 PUSH4 0x42842E0E EQ PUSH2 0x220 JUMPI DUP1 PUSH4 0x5E65AFF8 EQ PUSH2 0x233 JUMPI DUP1 PUSH4 0x6352211E EQ PUSH2 0x246 JUMPI DUP1 PUSH4 0x70A08231 EQ PUSH2 0x259 JUMPI PUSH1 0x0 DUP1 REVERT JUMPDEST DUP1 PUSH4 0x1FFC9A7 EQ PUSH2 0x15D JUMPI DUP1 PUSH4 0x6FDDE03 EQ PUSH2 0x185 JUMPI DUP1 PUSH4 0x81812FC EQ PUSH2 0x19A JUMPI DUP1 PUSH4 0x95EA7B3 EQ PUSH2 0x1C5 JUMPI DUP1 PUSH4 0xD39FC81 EQ PUSH2 0x1DA JUMPI DUP1 PUSH4 0x1F64E71F EQ PUSH2 0x1F1 JUMPI JUMPDEST PUSH1 0x0 DUP1 REVERT JUMPDEST PUSH2 0x170 PUSH2 0x16B CALLDATASIZE PUSH1 0x4 PUSH2 0x1026 JUMP JUMPDEST PUSH2 0x357 JUMP JUMPDEST PUSH1 0x40 MLOAD SWAP1 ISZERO ISZERO DUP2 MSTORE PUSH1 0x20 ADD JUMPDEST PUSH1 0x40 MLOAD DUP1 SWAP2 SUB SWAP1 RETURN JUMPDEST PUSH2 0x18D PUSH2 0x3A9 JUMP JUMPDEST PUSH1 0x40 MLOAD PUSH2 0x17C SWAP2 SWAP1 PUSH2 0x1090 JUMP JUMPDEST PUSH2 0x1AD PUSH2 0x1A8 CALLDATASIZE PUSH1 0x4 PUSH2 0x10A3 JUMP JUMPDEST PUSH2 0x43B JUMP JUMPDEST PUSH1 0x40 MLOAD PUSH1 0x1 PUSH1 0x1 PUSH1 0xA0 SHL SUB SWAP1 SWAP2 AND DUP2 MSTORE PUSH1 0x20 ADD PUSH2 0x17C JUMP JUMPDEST PUSH2 0x1D8 PUSH2 0x1D3 CALLDATASIZE PUSH1 0x4 PUSH2 0x10D8 JUMP JUMPDEST PUSH2 0x462 JUMP JUMPDEST STOP JUMPDEST PUSH2 0x1E3 PUSH1 0xA SLOAD DUP2 JUMP JUMPDEST PUSH1 0x40 MLOAD SWAP1 DUP2 MSTORE PUSH1 0x20 ADD PUSH2 0x17C JUMP JUMPDEST PUSH2 0x1D8 PUSH2 0x1FF CALLDATASIZE PUSH1 0x4 PUSH2 0x10D8 JUMP JUMPDEST PUSH2 0x57C JUMP JUMPDEST PUSH2 0x1D8 PUSH2 0x212 CALLDATASIZE PUSH1 0x4 PUSH2 0x1102 JUMP JUMPDEST PUSH2 0x592 JUMP JUMPDEST PUSH2 0x1E3 PUSH1 0xB SLOAD DUP2 JUMP JUMPDEST PUSH2 0x1D8 PUSH2 0x22E CALLDATASIZE PUSH1 0x4 PUSH2 0x1102 JUMP JUMPDEST PUSH2 0x5C3 JUMP JUMPDEST PUSH2 0x1D8 PUSH2 0x241 CALLDATASIZE PUSH1 0x4 PUSH2 0x10D8 JUMP JUMPDEST PUSH2 0x5DE JUMP JUMPDEST PUSH2 0x1AD PUSH2 0x254 CALLDATASIZE PUSH1 0x4 PUSH2 0x10A3 JUMP JUMPDEST PUSH2 0x655 JUMP JUMPDEST PUSH2 0x1E3 PUSH2 0x267 CALLDATASIZE PUSH1 0x4 PUSH2 0x113E JUMP JUMPDEST PUSH2 0x6B5 JUMP JUMPDEST PUSH2 0x1D8 PUSH2 0x73B JUMP JUMPDEST PUSH1 0x6 SLOAD PUSH1 0x1 PUSH1 0x1 PUSH1 0xA0 SHL SUB AND PUSH2 0x1AD JUMP JUMPDEST PUSH2 0x18D PUSH2 0x74F JUMP JUMPDEST PUSH2 0x1D8 PUSH2 0x29B CALLDATASIZE PUSH1 0x4 PUSH2 0x10D8 JUMP JUMPDEST PUSH2 0x75E JUMP JUMPDEST PUSH2 0x1D8 PUSH2 0x2AE CALLDATASIZE PUSH1 0x4 PUSH2 0x1167 JUMP JUMPDEST PUSH2 0x766 JUMP JUMPDEST PUSH1 0x9 SLOAD PUSH2 0x1AD SWAP1 PUSH1 0x1 PUSH1 0x1 PUSH1 0xA0 SHL SUB AND DUP2 JUMP JUMPDEST PUSH2 0x1D8 PUSH2 0x2D4 CALLDATASIZE PUSH1 0x4 PUSH2 0x122A JUMP JUMPDEST PUSH2 0x771 JUMP JUMPDEST PUSH2 0x18D PUSH2 0x2E7 CALLDATASIZE PUSH1 0x4 PUSH2 0x10A3 JUMP JUMPDEST PUSH2 0x7A9 JUMP JUMPDEST PUSH2 0x1D8 PUSH2 0x2FA CALLDATASIZE PUSH1 0x4 PUSH2 0x12A6 JUMP JUMPDEST PUSH2 0x84B JUMP JUMPDEST PUSH2 0x1E3 PUSH1 0x8 SLOAD DUP2 JUMP JUMPDEST PUSH2 0x170 PUSH2 0x316 CALLDATASIZE PUSH1 0x4 PUSH2 0x1311 JUMP JUMPDEST PUSH1 0x1 PUSH1 0x1 PUSH1 0xA0 SHL SUB SWAP2 DUP3 AND PUSH1 0x0 SWAP1 DUP2 MSTORE PUSH1 0x5 PUSH1 0x20 SWAP1 DUP2 MSTORE PUSH1 0x40 DUP1 DUP4 KECCAK256 SWAP4 SWAP1 SWAP5 AND DUP3 MSTORE SWAP2 SWAP1 SWAP2 MSTORE KECCAK256 SLOAD PUSH1 0xFF AND SWAP1 JUMP JUMPDEST PUSH2 0x1D8 PUSH2 0x352 CALLDATASIZE PUSH1 0x4 PUSH2 0x113E JUMP JUMPDEST PUSH2 0x896 JUMP JUMPDEST PUSH1 0x0 PUSH1 0x1 PUSH1 0x1 PUSH1 0xE0 SHL SUB NOT DUP3 AND PUSH4 0x80AC58CD PUSH1 0xE0 SHL EQ DUP1 PUSH2 0x388 JUMPI POP PUSH1 0x1 PUSH1 0x1 PUSH1 0xE0 SHL SUB NOT DUP3 AND PUSH4 0x5B5E139F PUSH1 0xE0 SHL EQ JUMPDEST DUP1 PUSH2 0x3A3 JUMPI POP PUSH4 0x1FFC9A7 PUSH1 0xE0 SHL PUSH1 0x1 PUSH1 0x1 PUSH1 0xE0 SHL SUB NOT DUP4 AND EQ JUMPDEST SWAP3 SWAP2 POP POP JUMP JUMPDEST PUSH1 0x60 PUSH1 0x0 DUP1 SLOAD PUSH2 0x3B8 SWAP1 PUSH2 0x1344 JUMP JUMPDEST DUP1 PUSH1 0x1F ADD PUSH1 0x20 DUP1 SWAP2 DIV MUL PUSH1 0x20 ADD PUSH1 0x40 MLOAD SWAP1 DUP2 ADD PUSH1 0x40 MSTORE DUP1 SWAP3 SWAP2 SWAP1 DUP2 DUP2 MSTORE PUSH1 0x20 ADD DUP3 DUP1 SLOAD PUSH2 0x3E4 SWAP1 PUSH2 0x1344 JUMP JUMPDEST DUP1 ISZERO PUSH2 0x431 JUMPI DUP1 PUSH1 0x1F LT PUSH2 0x406 JUMPI PUSH2 0x100 DUP1 DUP4 SLOAD DIV MUL DUP4 MSTORE SWAP2 PUSH1 0x20 ADD SWAP2 PUSH2 0x431 JUMP JUMPDEST DUP3 ADD SWAP2 SWAP1 PUSH1 0x0 MSTORE PUSH1 0x20 PUSH1 0x0 KECCAK256 SWAP1 JUMPDEST DUP2 SLOAD DUP2 MSTORE SWAP1 PUSH1 0x1 ADD SWAP1 PUSH1 0x20 ADD DUP1 DUP4 GT PUSH2 0x414 JUMPI DUP3 SWAP1 SUB PUSH1 0x1F AND DUP3 ADD SWAP2 JUMPDEST POP POP POP POP POP SWAP1 POP SWAP1 JUMP JUMPDEST PUSH1 0x0 PUSH2 0x446 DUP3 PUSH2 0x90F JUMP JUMPDEST POP PUSH1 0x0 SWAP1 DUP2 MSTORE PUSH1 0x4 PUSH1 0x20 MSTORE PUSH1 0x40 SWAP1 KECCAK256 SLOAD PUSH1 0x1 PUSH1 0x1 PUSH1 0xA0 SHL SUB AND SWAP1 JUMP JUMPDEST PUSH1 0x0 PUSH2 0x46D DUP3 PUSH2 0x655 JUMP JUMPDEST SWAP1 POP DUP1 PUSH1 0x1 PUSH1 0x1 PUSH1 0xA0 SHL SUB AND DUP4 PUSH1 0x1 PUSH1 0x1 PUSH1 0xA0 SHL SUB AND SUB PUSH2 0x4DF JUMPI PUSH1 0x40 MLOAD PUSH3 0x461BCD PUSH1 0xE5 SHL DUP2 MSTORE PUSH1 0x20 PUSH1 0x4 DUP3 ADD MSTORE PUSH1 0x21 PUSH1 0x24 DUP3 ADD MSTORE PUSH32 0x4552433732313A20617070726F76616C20746F2063757272656E74206F776E65 PUSH1 0x44 DUP3 ADD MSTORE PUSH1 0x39 PUSH1 0xF9 SHL PUSH1 0x64 DUP3 ADD MSTORE PUSH1 0x84 ADD JUMPDEST PUSH1 0x40 MLOAD DUP1 SWAP2 SUB SWAP1 REVERT JUMPDEST CALLER PUSH1 0x1 PUSH1 0x1 PUSH1 0xA0 SHL SUB DUP3 AND EQ DUP1 PUSH2 0x4FB JUMPI POP PUSH2 0x4FB DUP2 CALLER PUSH2 0x316 JUMP JUMPDEST PUSH2 0x56D JUMPI PUSH1 0x40 MLOAD PUSH3 0x461BCD PUSH1 0xE5 SHL DUP2 MSTORE PUSH1 0x20 PUSH1 0x4 DUP3 ADD MSTORE PUSH1 0x3D PUSH1 0x24 DUP3 ADD MSTORE PUSH32 0x4552433732313A20617070726F76652063616C6C6572206973206E6F7420746F PUSH1 0x44 DUP3 ADD MSTORE PUSH32 0x6B656E206F776E6572206F7220617070726F76656420666F7220616C6C000000 PUSH1 0x64 DUP3 ADD MSTORE PUSH1 0x84 ADD PUSH2 0x4D6 JUMP JUMPDEST PUSH2 0x577 DUP4 DUP4 PUSH2 0x96E JUMP JUMPDEST POP POP POP JUMP JUMPDEST PUSH2 0x584 PUSH2 0x9DC JUMP JUMPDEST PUSH2 0x58E DUP3 DUP3 PUSH2 0x96E JUMP JUMPDEST POP POP JUMP JUMPDEST PUSH2 0x59C CALLER DUP3 PUSH2 0xA36 JUMP JUMPDEST PUSH2 0x5B8 JUMPI PUSH1 0x40 MLOAD PUSH3 0x461BCD PUSH1 0xE5 SHL DUP2 MSTORE PUSH1 0x4 ADD PUSH2 0x4D6 SWAP1 PUSH2 0x137E JUMP JUMPDEST PUSH2 0x577 DUP4 DUP4 DUP4 PUSH2 0xAB5 JUMP JUMPDEST PUSH2 0x577 DUP4 DUP4 DUP4 PUSH1 0x40 MLOAD DUP1 PUSH1 0x20 ADD PUSH1 0x40 MSTORE DUP1 PUSH1 0x0 DUP2 MSTORE POP PUSH2 0x771 JUMP JUMPDEST PUSH1 0x9 SLOAD PUSH1 0x40 MLOAD PUSH4 0x95EA7B3 PUSH1 0xE0 SHL DUP2 MSTORE PUSH1 0x1 PUSH1 0x1 PUSH1 0xA0 SHL SUB DUP5 DUP2 AND PUSH1 0x4 DUP4 ADD MSTORE PUSH1 0x24 DUP3 ADD DUP5 SWAP1 MSTORE SWAP1 SWAP2 AND SWAP1 PUSH4 0x95EA7B3 SWAP1 PUSH1 0x44 ADD PUSH1 0x20 PUSH1 0x40 MLOAD DUP1 DUP4 SUB DUP2 PUSH1 0x0 DUP8 GAS CALL ISZERO DUP1 ISZERO PUSH2 0x631 JUMPI RETURNDATASIZE PUSH1 0x0 DUP1 RETURNDATACOPY RETURNDATASIZE PUSH1 0x0 REVERT JUMPDEST POP POP POP POP PUSH1 0x40 MLOAD RETURNDATASIZE PUSH1 0x1F NOT PUSH1 0x1F DUP3 ADD AND DUP3 ADD DUP1 PUSH1 0x40 MSTORE POP DUP2 ADD SWAP1 PUSH2 0x577 SWAP2 SWAP1 PUSH2 0x13CB JUMP JUMPDEST PUSH1 0x0 DUP2 DUP2 MSTORE PUSH1 0x2 PUSH1 0x20 MSTORE PUSH1 0x40 DUP2 KECCAK256 SLOAD PUSH1 0x1 PUSH1 0x1 PUSH1 0xA0 SHL SUB AND DUP1 PUSH2 0x3A3 JUMPI PUSH1 0x40 MLOAD PUSH3 0x461BCD PUSH1 0xE5 SHL DUP2 MSTORE PUSH1 0x20 PUSH1 0x4 DUP3 ADD MSTORE PUSH1 0x18 PUSH1 0x24 DUP3 ADD MSTORE PUSH24 0x115490CDCC8C4E881A5B9D985B1A59081D1BDAD95B881251 PUSH1 0x42 SHL PUSH1 0x44 DUP3 ADD MSTORE PUSH1 0x64 ADD PUSH2 0x4D6 JUMP JUMPDEST PUSH1 0x0 PUSH1 0x1 PUSH1 0x1 PUSH1 0xA0 SHL SUB DUP3 AND PUSH2 0x71F JUMPI PUSH1 0x40 MLOAD PUSH3 0x461BCD PUSH1 0xE5 SHL DUP2 MSTORE PUSH1 0x20 PUSH1 0x4 DUP3 ADD MSTORE PUSH1 0x29 PUSH1 0x24 DUP3 ADD MSTORE PUSH32 0x4552433732313A2061646472657373207A65726F206973206E6F742061207661 PUSH1 0x44 DUP3 ADD MSTORE PUSH9 0x3634B21037BBB732B9 PUSH1 0xB9 SHL PUSH1 0x64 DUP3 ADD MSTORE PUSH1 0x84 ADD PUSH2 0x4D6 JUMP JUMPDEST POP PUSH1 0x1 PUSH1 0x1 PUSH1 0xA0 SHL SUB AND PUSH1 0x0 SWAP1 DUP2 MSTORE PUSH1 0x3 PUSH1 0x20 MSTORE PUSH1 0x40 SWAP1 KECCAK256 SLOAD SWAP1 JUMP JUMPDEST PUSH2 0x743 PUSH2 0x9DC JUMP JUMPDEST PUSH2 0x74D PUSH1 0x0 PUSH2 0xC19 JUMP JUMPDEST JUMP JUMPDEST PUSH1 0x60 PUSH1 0x1 DUP1 SLOAD PUSH2 0x3B8 SWAP1 PUSH2 0x1344 JUMP JUMPDEST PUSH2 0x5DE PUSH2 0x9DC JUMP JUMPDEST PUSH2 0x58E CALLER DUP4 DUP4 PUSH2 0xC6B JUMP JUMPDEST PUSH2 0x77B CALLER DUP4 PUSH2 0xA36 JUMP JUMPDEST PUSH2 0x797 JUMPI PUSH1 0x40 MLOAD PUSH3 0x461BCD PUSH1 0xE5 SHL DUP2 MSTORE PUSH1 0x4 ADD PUSH2 0x4D6 SWAP1 PUSH2 0x137E JUMP JUMPDEST PUSH2 0x7A3 DUP5 DUP5 DUP5 DUP5 PUSH2 0xD39 JUMP JUMPDEST POP POP POP POP JUMP JUMPDEST PUSH1 0x0 DUP2 DUP2 MSTORE PUSH1 0x7 PUSH1 0x20 MSTORE PUSH1 0x40 SWAP1 KECCAK256 DUP1 SLOAD PUSH1 0x60 SWAP2 SWAP1 PUSH2 0x7C6 SWAP1 PUSH2 0x1344 JUMP JUMPDEST DUP1 PUSH1 0x1F ADD PUSH1 0x20 DUP1 SWAP2 DIV MUL PUSH1 0x20 ADD PUSH1 0x40 MLOAD SWAP1 DUP2 ADD PUSH1 0x40 MSTORE DUP1 SWAP3 SWAP2 SWAP1 DUP2 DUP2 MSTORE PUSH1 0x20 ADD DUP3 DUP1 SLOAD PUSH2 0x7F2 SWAP1 PUSH2 0x1344 JUMP JUMPDEST DUP1 ISZERO PUSH2 0x83F JUMPI DUP1 PUSH1 0x1F LT PUSH2 0x814 JUMPI PUSH2 0x100 DUP1 DUP4 SLOAD DIV MUL DUP4 MSTORE SWAP2 PUSH1 0x20 ADD SWAP2 PUSH2 0x83F JUMP JUMPDEST DUP3 ADD SWAP2 SWAP1 PUSH1 0x0 MSTORE PUSH1 0x20 PUSH1 0x0 KECCAK256 SWAP1 JUMPDEST DUP2 SLOAD DUP2 MSTORE SWAP1 PUSH1 0x1 ADD SWAP1 PUSH1 0x20 ADD DUP1 DUP4 GT PUSH2 0x822 JUMPI DUP3 SWAP1 SUB PUSH1 0x1F AND DUP3 ADD SWAP2 JUMPDEST POP POP POP POP POP SWAP1 POP SWAP2 SWAP1 POP JUMP JUMPDEST PUSH1 0x0 JUMPDEST DUP3 DUP2 LT ISZERO PUSH2 0x7A3 JUMPI PUSH2 0x862 DUP5 PUSH1 0x8 SLOAD PUSH2 0xD6C JUMP JUMPDEST PUSH2 0x86E PUSH1 0x8 SLOAD DUP4 PUSH2 0xEF7 JUMP JUMPDEST PUSH1 0x8 DUP1 SLOAD SWAP1 PUSH1 0x0 PUSH2 0x87E DUP4 PUSH2 0x13E8 JUMP JUMPDEST SWAP2 SWAP1 POP SSTORE POP DUP1 DUP1 PUSH2 0x88E SWAP1 PUSH2 0x13E8 JUMP JUMPDEST SWAP2 POP POP PUSH2 0x84E JUMP JUMPDEST PUSH2 0x89E PUSH2 0x9DC JUMP JUMPDEST PUSH1 0x1 PUSH1 0x1 PUSH1 0xA0 SHL SUB DUP2 AND PUSH2 0x903 JUMPI PUSH1 0x40 MLOAD PUSH3 0x461BCD PUSH1 0xE5 SHL DUP2 MSTORE PUSH1 0x20 PUSH1 0x4 DUP3 ADD MSTORE PUSH1 0x26 PUSH1 0x24 DUP3 ADD MSTORE PUSH32 0x4F776E61626C653A206E6577206F776E657220697320746865207A65726F2061 PUSH1 0x44 DUP3 ADD MSTORE PUSH6 0x646472657373 PUSH1 0xD0 SHL PUSH1 0x64 DUP3 ADD MSTORE PUSH1 0x84 ADD PUSH2 0x4D6 JUMP JUMPDEST PUSH2 0x90C DUP2 PUSH2 0xC19 JUMP JUMPDEST POP JUMP JUMPDEST PUSH1 0x0 DUP2 DUP2 MSTORE PUSH1 0x2 PUSH1 0x20 MSTORE PUSH1 0x40 SWAP1 KECCAK256 SLOAD PUSH1 0x1 PUSH1 0x1 PUSH1 0xA0 SHL SUB AND PUSH2 0x90C JUMPI PUSH1 0x40 MLOAD PUSH3 0x461BCD PUSH1 0xE5 SHL DUP2 MSTORE PUSH1 0x20 PUSH1 0x4 DUP3 ADD MSTORE PUSH1 0x18 PUSH1 0x24 DUP3 ADD MSTORE PUSH24 0x115490CDCC8C4E881A5B9D985B1A59081D1BDAD95B881251 PUSH1 0x42 SHL PUSH1 0x44 DUP3 ADD MSTORE PUSH1 0x64 ADD PUSH2 0x4D6 JUMP JUMPDEST PUSH1 0x0 DUP2 DUP2 MSTORE PUSH1 0x4 PUSH1 0x20 MSTORE PUSH1 0x40 SWAP1 KECCAK256 DUP1 SLOAD PUSH1 0x1 PUSH1 0x1 PUSH1 0xA0 SHL SUB NOT AND PUSH1 0x1 PUSH1 0x1 PUSH1 0xA0 SHL SUB DUP5 AND SWAP1 DUP2 OR SWAP1 SWAP2 SSTORE DUP2 SWAP1 PUSH2 0x9A3 DUP3 PUSH2 0x655 JUMP JUMPDEST PUSH1 0x1 PUSH1 0x1 PUSH1 0xA0 SHL SUB AND PUSH32 0x8C5BE1E5EBEC7D5BD14F71427D1E84F3DD0314C0F7B2291E5B200AC8C7C3B925 PUSH1 0x40 MLOAD PUSH1 0x40 MLOAD DUP1 SWAP2 SUB SWAP1 LOG4 POP POP JUMP JUMPDEST PUSH1 0x6 SLOAD PUSH1 0x1 PUSH1 0x1 PUSH1 0xA0 SHL SUB AND CALLER EQ PUSH2 0x74D JUMPI PUSH1 0x40 MLOAD PUSH3 0x461BCD PUSH1 0xE5 SHL DUP2 MSTORE PUSH1 0x20 PUSH1 0x4 DUP3 ADD DUP2 SWAP1 MSTORE PUSH1 0x24 DUP3 ADD MSTORE PUSH32 0x4F776E61626C653A2063616C6C6572206973206E6F7420746865206F776E6572 PUSH1 0x44 DUP3 ADD MSTORE PUSH1 0x64 ADD PUSH2 0x4D6 JUMP JUMPDEST PUSH1 0x0 DUP1 PUSH2 0xA42 DUP4 PUSH2 0x655 JUMP JUMPDEST SWAP1 POP DUP1 PUSH1 0x1 PUSH1 0x1 PUSH1 0xA0 SHL SUB AND DUP5 PUSH1 0x1 PUSH1 0x1 PUSH1 0xA0 SHL SUB AND EQ DUP1 PUSH2 0xA89 JUMPI POP PUSH1 0x1 PUSH1 0x1 PUSH1 0xA0 SHL SUB DUP1 DUP3 AND PUSH1 0x0 SWAP1 DUP2 MSTORE PUSH1 0x5 PUSH1 0x20 SWAP1 DUP2 MSTORE PUSH1 0x40 DUP1 DUP4 KECCAK256 SWAP4 DUP9 AND DUP4 MSTORE SWAP3 SWAP1 MSTORE KECCAK256 SLOAD PUSH1 0xFF AND JUMPDEST DUP1 PUSH2 0xAAD JUMPI POP DUP4 PUSH1 0x1 PUSH1 0x1 PUSH1 0xA0 SHL SUB AND PUSH2 0xAA2 DUP5 PUSH2 0x43B JUMP JUMPDEST PUSH1 0x1 PUSH1 0x1 PUSH1 0xA0 SHL SUB AND EQ JUMPDEST SWAP5 SWAP4 POP POP POP POP JUMP JUMPDEST DUP3 PUSH1 0x1 PUSH1 0x1 PUSH1 0xA0 SHL SUB AND PUSH2 0xAC8 DUP3 PUSH2 0x655 JUMP JUMPDEST PUSH1 0x1 PUSH1 0x1 PUSH1 0xA0 SHL SUB AND EQ PUSH2 0xAEE JUMPI PUSH1 0x40 MLOAD PUSH3 0x461BCD PUSH1 0xE5 SHL DUP2 MSTORE PUSH1 0x4 ADD PUSH2 0x4D6 SWAP1 PUSH2 0x140F JUMP JUMPDEST PUSH1 0x1 PUSH1 0x1 PUSH1 0xA0 SHL SUB DUP3 AND PUSH2 0xB50 JUMPI PUSH1 0x40 MLOAD PUSH3 0x461BCD PUSH1 0xE5 SHL DUP2 MSTORE PUSH1 0x20 PUSH1 0x4 DUP3 ADD MSTORE PUSH1 0x24 DUP1 DUP3 ADD MSTORE PUSH32 0x4552433732313A207472616E7366657220746F20746865207A65726F20616464 PUSH1 0x44 DUP3 ADD MSTORE PUSH4 0x72657373 PUSH1 0xE0 SHL PUSH1 0x64 DUP3 ADD MSTORE PUSH1 0x84 ADD PUSH2 0x4D6 JUMP JUMPDEST DUP3 PUSH1 0x1 PUSH1 0x1 PUSH1 0xA0 SHL SUB AND PUSH2 0xB63 DUP3 PUSH2 0x655 JUMP JUMPDEST PUSH1 0x1 PUSH1 0x1 PUSH1 0xA0 SHL SUB AND EQ PUSH2 0xB89 JUMPI PUSH1 0x40 MLOAD PUSH3 0x461BCD PUSH1 0xE5 SHL DUP2 MSTORE PUSH1 0x4 ADD PUSH2 0x4D6 SWAP1 PUSH2 0x140F JUMP JUMPDEST PUSH1 0x0 DUP2 DUP2 MSTORE PUSH1 0x4 PUSH1 0x20 SWAP1 DUP2 MSTORE PUSH1 0x40 DUP1 DUP4 KECCAK256 DUP1 SLOAD PUSH1 0x1 PUSH1 0x1 PUSH1 0xA0 SHL SUB NOT SWAP1 DUP2 AND SWAP1 SWAP2 SSTORE PUSH1 0x1 PUSH1 0x1 PUSH1 0xA0 SHL SUB DUP8 DUP2 AND DUP1 DUP7 MSTORE PUSH1 0x3 DUP6 MSTORE DUP4 DUP7 KECCAK256 DUP1 SLOAD PUSH1 0x0 NOT ADD SWAP1 SSTORE SWAP1 DUP8 AND DUP1 DUP7 MSTORE DUP4 DUP7 KECCAK256 DUP1 SLOAD PUSH1 0x1 ADD SWAP1 SSTORE DUP7 DUP7 MSTORE PUSH1 0x2 SWAP1 SWAP5 MSTORE DUP3 DUP6 KECCAK256 DUP1 SLOAD SWAP1 SWAP3 AND DUP5 OR SWAP1 SWAP2 SSTORE SWAP1 MLOAD DUP5 SWAP4 PUSH32 0xDDF252AD1BE2C89B69C2B068FC378DAA952BA7F163C4A11628F55A4DF523B3EF SWAP2 LOG4 POP POP POP JUMP JUMPDEST PUSH1 0x6 DUP1 SLOAD PUSH1 0x1 PUSH1 0x1 PUSH1 0xA0 SHL SUB DUP4 DUP2 AND PUSH1 0x1 PUSH1 0x1 PUSH1 0xA0 SHL SUB NOT DUP4 AND DUP2 OR SWAP1 SWAP4 SSTORE PUSH1 0x40 MLOAD SWAP2 AND SWAP2 SWAP1 DUP3 SWAP1 PUSH32 0x8BE0079C531659141344CD1FD0A4F28419497F9722A3DAAFE3B4186F6B6457E0 SWAP1 PUSH1 0x0 SWAP1 LOG3 POP POP JUMP JUMPDEST DUP2 PUSH1 0x1 PUSH1 0x1 PUSH1 0xA0 SHL SUB AND DUP4 PUSH1 0x1 PUSH1 0x1 PUSH1 0xA0 SHL SUB AND SUB PUSH2 0xCCC JUMPI PUSH1 0x40 MLOAD PUSH3 0x461BCD PUSH1 0xE5 SHL DUP2 MSTORE PUSH1 0x20 PUSH1 0x4 DUP3 ADD MSTORE PUSH1 0x19 PUSH1 0x24 DUP3 ADD MSTORE PUSH32 0x4552433732313A20617070726F766520746F2063616C6C657200000000000000 PUSH1 0x44 DUP3 ADD MSTORE PUSH1 0x64 ADD PUSH2 0x4D6 JUMP JUMPDEST PUSH1 0x1 PUSH1 0x1 PUSH1 0xA0 SHL SUB DUP4 DUP2 AND PUSH1 0x0 DUP2 DUP2 MSTORE PUSH1 0x5 PUSH1 0x20 SWAP1 DUP2 MSTORE PUSH1 0x40 DUP1 DUP4 KECCAK256 SWAP5 DUP8 AND DUP1 DUP5 MSTORE SWAP5 DUP3 MSTORE SWAP2 DUP3 SWAP1 KECCAK256 DUP1 SLOAD PUSH1 0xFF NOT AND DUP7 ISZERO ISZERO SWAP1 DUP2 OR SWAP1 SWAP2 SSTORE SWAP2 MLOAD SWAP2 DUP3 MSTORE PUSH32 0x17307EAB39AB6107E8899845AD3D59BD9653F200F220920489CA2B5937696C31 SWAP2 ADD PUSH1 0x40 MLOAD DUP1 SWAP2 SUB SWAP1 LOG3 POP POP POP JUMP JUMPDEST PUSH2 0xD44 DUP5 DUP5 DUP5 PUSH2 0xAB5 JUMP JUMPDEST PUSH2 0xD50 DUP5 DUP5 DUP5 DUP5 PUSH2 0xF0F JUMP JUMPDEST PUSH2 0x7A3 JUMPI PUSH1 0x40 MLOAD PUSH3 0x461BCD PUSH1 0xE5 SHL DUP2 MSTORE PUSH1 0x4 ADD PUSH2 0x4D6 SWAP1 PUSH2 0x1454 JUMP JUMPDEST PUSH1 0x1 PUSH1 0x1 PUSH1 0xA0 SHL SUB DUP3 AND PUSH2 0xDC2 JUMPI PUSH1 0x40 MLOAD PUSH3 0x461BCD PUSH1 0xE5 SHL DUP2 MSTORE PUSH1 0x20 PUSH1 0x4 DUP3 ADD DUP2 SWAP1 MSTORE PUSH1 0x24 DUP3 ADD MSTORE PUSH32 0x4552433732313A206D696E7420746F20746865207A65726F2061646472657373 PUSH1 0x44 DUP3 ADD MSTORE PUSH1 0x64 ADD PUSH2 0x4D6 JUMP JUMPDEST PUSH1 0x0 DUP2 DUP2 MSTORE PUSH1 0x2 PUSH1 0x20 MSTORE PUSH1 0x40 SWAP1 KECCAK256 SLOAD PUSH1 0x1 PUSH1 0x1 PUSH1 0xA0 SHL SUB AND ISZERO PUSH2 0xE27 JUMPI PUSH1 0x40 MLOAD PUSH3 0x461BCD PUSH1 0xE5 SHL DUP2 MSTORE PUSH1 0x20 PUSH1 0x4 DUP3 ADD MSTORE PUSH1 0x1C PUSH1 0x24 DUP3 ADD MSTORE PUSH32 0x4552433732313A20746F6B656E20616C7265616479206D696E74656400000000 PUSH1 0x44 DUP3 ADD MSTORE PUSH1 0x64 ADD PUSH2 0x4D6 JUMP JUMPDEST PUSH1 0x0 DUP2 DUP2 MSTORE PUSH1 0x2 PUSH1 0x20 MSTORE PUSH1 0x40 SWAP1 KECCAK256 SLOAD PUSH1 0x1 PUSH1 0x1 PUSH1 0xA0 SHL SUB AND ISZERO PUSH2 0xE8C JUMPI PUSH1 0x40 MLOAD PUSH3 0x461BCD PUSH1 0xE5 SHL DUP2 MSTORE PUSH1 0x20 PUSH1 0x4 DUP3 ADD MSTORE PUSH1 0x1C PUSH1 0x24 DUP3 ADD MSTORE PUSH32 0x4552433732313A20746F6B656E20616C7265616479206D696E74656400000000 PUSH1 0x44 DUP3 ADD MSTORE PUSH1 0x64 ADD PUSH2 0x4D6 JUMP JUMPDEST PUSH1 0x1 PUSH1 0x1 PUSH1 0xA0 SHL SUB DUP3 AND PUSH1 0x0 DUP2 DUP2 MSTORE PUSH1 0x3 PUSH1 0x20 SWAP1 DUP2 MSTORE PUSH1 0x40 DUP1 DUP4 KECCAK256 DUP1 SLOAD PUSH1 0x1 ADD SWAP1 SSTORE DUP5 DUP4 MSTORE PUSH1 0x2 SWAP1 SWAP2 MSTORE DUP1 DUP3 KECCAK256 DUP1 SLOAD PUSH1 0x1 PUSH1 0x1 PUSH1 0xA0 SHL SUB NOT AND DUP5 OR SWAP1 SSTORE MLOAD DUP4 SWAP3 SWAP2 SWAP1 PUSH32 0xDDF252AD1BE2C89B69C2B068FC378DAA952BA7F163C4A11628F55A4DF523B3EF SWAP1 DUP3 SWAP1 LOG4 POP POP JUMP JUMPDEST PUSH1 0x0 DUP3 DUP2 MSTORE PUSH1 0x7 PUSH1 0x20 MSTORE PUSH1 0x40 SWAP1 KECCAK256 PUSH2 0x577 DUP3 DUP3 PUSH2 0x14F4 JUMP JUMPDEST PUSH1 0x0 PUSH1 0x1 PUSH1 0x1 PUSH1 0xA0 SHL SUB DUP5 AND EXTCODESIZE ISZERO PUSH2 0x1005 JUMPI PUSH1 0x40 MLOAD PUSH4 0xA85BD01 PUSH1 0xE1 SHL DUP2 MSTORE PUSH1 0x1 PUSH1 0x1 PUSH1 0xA0 SHL SUB DUP6 AND SWAP1 PUSH4 0x150B7A02 SWAP1 PUSH2 0xF53 SWAP1 CALLER SWAP1 DUP10 SWAP1 DUP9 SWAP1 DUP9 SWAP1 PUSH1 0x4 ADD PUSH2 0x15B4 JUMP JUMPDEST PUSH1 0x20 PUSH1 0x40 MLOAD DUP1 DUP4 SUB DUP2 PUSH1 0x0 DUP8 GAS CALL SWAP3 POP POP POP DUP1 ISZERO PUSH2 0xF8E JUMPI POP PUSH1 0x40 DUP1 MLOAD PUSH1 0x1F RETURNDATASIZE SWAP1 DUP2 ADD PUSH1 0x1F NOT AND DUP3 ADD SWAP1 SWAP3 MSTORE PUSH2 0xF8B SWAP2 DUP2 ADD SWAP1 PUSH2 0x15F1 JUMP JUMPDEST PUSH1 0x1 JUMPDEST PUSH2 0xFEB JUMPI RETURNDATASIZE DUP1 DUP1 ISZERO PUSH2 0xFBC JUMPI PUSH1 0x40 MLOAD SWAP2 POP PUSH1 0x1F NOT PUSH1 0x3F RETURNDATASIZE ADD AND DUP3 ADD PUSH1 0x40 MSTORE RETURNDATASIZE DUP3 MSTORE RETURNDATASIZE PUSH1 0x0 PUSH1 0x20 DUP5 ADD RETURNDATACOPY PUSH2 0xFC1 JUMP JUMPDEST PUSH1 0x60 SWAP2 POP JUMPDEST POP DUP1 MLOAD PUSH1 0x0 SUB PUSH2 0xFE3 JUMPI PUSH1 0x40 MLOAD PUSH3 0x461BCD PUSH1 0xE5 SHL DUP2 MSTORE PUSH1 0x4 ADD PUSH2 0x4D6 SWAP1 PUSH2 0x1454 JUMP JUMPDEST DUP1 MLOAD DUP2 PUSH1 0x20 ADD REVERT JUMPDEST PUSH1 0x1 PUSH1 0x1 PUSH1 0xE0 SHL SUB NOT AND PUSH4 0xA85BD01 PUSH1 0xE1 SHL EQ SWAP1 POP PUSH2 0xAAD JUMP JUMPDEST POP PUSH1 0x1 SWAP5 SWAP4 POP POP POP POP JUMP JUMPDEST PUSH1 0x1 PUSH1 0x1 PUSH1 0xE0 SHL SUB NOT DUP2 AND DUP2 EQ PUSH2 0x90C JUMPI PUSH1 0x0 DUP1 REVERT JUMPDEST PUSH1 0x0 PUSH1 0x20 DUP3 DUP5 SUB SLT ISZERO PUSH2 0x1038 JUMPI PUSH1 0x0 DUP1 REVERT JUMPDEST DUP2 CALLDATALOAD PUSH2 0x1043 DUP2 PUSH2 0x1010 JUMP JUMPDEST SWAP4 SWAP3 POP POP POP JUMP JUMPDEST PUSH1 0x0 DUP2 MLOAD DUP1 DUP5 MSTORE PUSH1 0x0 JUMPDEST DUP2 DUP2 LT ISZERO PUSH2 0x1070 JUMPI PUSH1 0x20 DUP2 DUP6 ADD DUP2 ADD MLOAD DUP7 DUP4 ADD DUP3 ADD MSTORE ADD PUSH2 0x1054 JUMP JUMPDEST POP PUSH1 0x0 PUSH1 0x20 DUP3 DUP7 ADD ADD MSTORE PUSH1 0x20 PUSH1 0x1F NOT PUSH1 0x1F DUP4 ADD AND DUP6 ADD ADD SWAP2 POP POP SWAP3 SWAP2 POP POP JUMP JUMPDEST PUSH1 0x20 DUP2 MSTORE PUSH1 0x0 PUSH2 0x1043 PUSH1 0x20 DUP4 ADD DUP5 PUSH2 0x104A JUMP JUMPDEST PUSH1 0x0 PUSH1 0x20 DUP3 DUP5 SUB SLT ISZERO PUSH2 0x10B5 JUMPI PUSH1 0x0 DUP1 REVERT JUMPDEST POP CALLDATALOAD SWAP2 SWAP1 POP JUMP JUMPDEST DUP1 CALLDATALOAD PUSH1 0x1 PUSH1 0x1 PUSH1 0xA0 SHL SUB DUP2 AND DUP2 EQ PUSH2 0x10D3 JUMPI PUSH1 0x0 DUP1 REVERT JUMPDEST SWAP2 SWAP1 POP JUMP JUMPDEST PUSH1 0x0 DUP1 PUSH1 0x40 DUP4 DUP6 SUB SLT ISZERO PUSH2 0x10EB JUMPI PUSH1 0x0 DUP1 REVERT JUMPDEST PUSH2 0x10F4 DUP4 PUSH2 0x10BC JUMP JUMPDEST SWAP5 PUSH1 0x20 SWAP4 SWAP1 SWAP4 ADD CALLDATALOAD SWAP4 POP POP POP JUMP JUMPDEST PUSH1 0x0 DUP1 PUSH1 0x0 PUSH1 0x60 DUP5 DUP7 SUB SLT ISZERO PUSH2 0x1117 JUMPI PUSH1 0x0 DUP1 REVERT JUMPDEST PUSH2 0x1120 DUP5 PUSH2 0x10BC JUMP JUMPDEST SWAP3 POP PUSH2 0x112E PUSH1 0x20 DUP6 ADD PUSH2 0x10BC JUMP JUMPDEST SWAP2 POP PUSH1 0x40 DUP5 ADD CALLDATALOAD SWAP1 POP SWAP3 POP SWAP3 POP SWAP3 JUMP JUMPDEST PUSH1 0x0 PUSH1 0x20 DUP3 DUP5 SUB SLT ISZERO PUSH2 0x1150 JUMPI PUSH1 0x0 DUP1 REVERT JUMPDEST PUSH2 0x1043 DUP3 PUSH2 0x10BC JUMP JUMPDEST DUP1 ISZERO ISZERO DUP2 EQ PUSH2 0x90C JUMPI PUSH1 0x0 DUP1 REVERT JUMPDEST PUSH1 0x0 DUP1 PUSH1 0x40 DUP4 DUP6 SUB SLT ISZERO PUSH2 0x117A JUMPI PUSH1 0x0 DUP1 REVERT JUMPDEST PUSH2 0x1183 DUP4 PUSH2 0x10BC JUMP JUMPDEST SWAP2 POP PUSH1 0x20 DUP4 ADD CALLDATALOAD PUSH2 0x1193 DUP2 PUSH2 0x1159 JUMP JUMPDEST DUP1 SWAP2 POP POP SWAP3 POP SWAP3 SWAP1 POP JUMP JUMPDEST PUSH4 0x4E487B71 PUSH1 0xE0 SHL PUSH1 0x0 MSTORE PUSH1 0x41 PUSH1 0x4 MSTORE PUSH1 0x24 PUSH1 0x0 REVERT JUMPDEST PUSH1 0x0 PUSH8 0xFFFFFFFFFFFFFFFF DUP1 DUP5 GT ISZERO PUSH2 0x11CF JUMPI PUSH2 0x11CF PUSH2 0x119E JUMP JUMPDEST PUSH1 0x40 MLOAD PUSH1 0x1F DUP6 ADD PUSH1 0x1F NOT SWAP1 DUP2 AND PUSH1 0x3F ADD AND DUP2 ADD SWAP1 DUP3 DUP3 GT DUP2 DUP4 LT OR ISZERO PUSH2 0x11F7 JUMPI PUSH2 0x11F7 PUSH2 0x119E JUMP JUMPDEST DUP2 PUSH1 0x40 MSTORE DUP1 SWAP4 POP DUP6 DUP2 MSTORE DUP7 DUP7 DUP7 ADD GT ISZERO PUSH2 0x1210 JUMPI PUSH1 0x0 DUP1 REVERT JUMPDEST DUP6 DUP6 PUSH1 0x20 DUP4 ADD CALLDATACOPY PUSH1 0x0 PUSH1 0x20 DUP8 DUP4 ADD ADD MSTORE POP POP POP SWAP4 SWAP3 POP POP POP JUMP JUMPDEST PUSH1 0x0 DUP1 PUSH1 0x0 DUP1 PUSH1 0x80 DUP6 DUP8 SUB SLT ISZERO PUSH2 0x1240 JUMPI PUSH1 0x0 DUP1 REVERT JUMPDEST PUSH2 0x1249 DUP6 PUSH2 0x10BC JUMP JUMPDEST SWAP4 POP PUSH2 0x1257 PUSH1 0x20 DUP7 ADD PUSH2 0x10BC JUMP JUMPDEST SWAP3 POP PUSH1 0x40 DUP6 ADD CALLDATALOAD SWAP2 POP PUSH1 0x60 DUP6 ADD CALLDATALOAD PUSH8 0xFFFFFFFFFFFFFFFF DUP2 GT ISZERO PUSH2 0x127A JUMPI PUSH1 0x0 DUP1 REVERT JUMPDEST DUP6 ADD PUSH1 0x1F DUP2 ADD DUP8 SGT PUSH2 0x128B JUMPI PUSH1 0x0 DUP1 REVERT JUMPDEST PUSH2 0x129A DUP8 DUP3 CALLDATALOAD PUSH1 0x20 DUP5 ADD PUSH2 0x11B4 JUMP JUMPDEST SWAP2 POP POP SWAP3 SWAP6 SWAP2 SWAP5 POP SWAP3 POP JUMP JUMPDEST PUSH1 0x0 DUP1 PUSH1 0x0 PUSH1 0x60 DUP5 DUP7 SUB SLT ISZERO PUSH2 0x12BB JUMPI PUSH1 0x0 DUP1 REVERT JUMPDEST PUSH2 0x12C4 DUP5 PUSH2 0x10BC JUMP JUMPDEST SWAP3 POP PUSH1 0x20 DUP5 ADD CALLDATALOAD SWAP2 POP PUSH1 0x40 DUP5 ADD CALLDATALOAD PUSH8 0xFFFFFFFFFFFFFFFF DUP2 GT ISZERO PUSH2 0x12E7 JUMPI PUSH1 0x0 DUP1 REVERT JUMPDEST DUP5 ADD PUSH1 0x1F DUP2 ADD DUP7 SGT PUSH2 0x12F8 JUMPI PUSH1 0x0 DUP1 REVERT JUMPDEST PUSH2 0x1307 DUP7 DUP3 CALLDATALOAD PUSH1 0x20 DUP5 ADD PUSH2 0x11B4 JUMP JUMPDEST SWAP2 POP POP SWAP3 POP SWAP3 POP SWAP3 JUMP JUMPDEST PUSH1 0x0 DUP1 PUSH1 0x40 DUP4 DUP6 SUB SLT ISZERO PUSH2 0x1324 JUMPI PUSH1 0x0 DUP1 REVERT JUMPDEST PUSH2 0x132D DUP4 PUSH2 0x10BC JUMP JUMPDEST SWAP2 POP PUSH2 0x133B PUSH1 0x20 DUP5 ADD PUSH2 0x10BC JUMP JUMPDEST SWAP1 POP SWAP3 POP SWAP3 SWAP1 POP JUMP JUMPDEST PUSH1 0x1 DUP2 DUP2 SHR SWAP1 DUP3 AND DUP1 PUSH2 0x1358 JUMPI PUSH1 0x7F DUP3 AND SWAP2 POP JUMPDEST PUSH1 0x20 DUP3 LT DUP2 SUB PUSH2 0x1378 JUMPI PUSH4 0x4E487B71 PUSH1 0xE0 SHL PUSH1 0x0 MSTORE PUSH1 0x22 PUSH1 0x4 MSTORE PUSH1 0x24 PUSH1 0x0 REVERT JUMPDEST POP SWAP2 SWAP1 POP JUMP JUMPDEST PUSH1 0x20 DUP1 DUP3 MSTORE PUSH1 0x2D SWAP1 DUP3 ADD MSTORE PUSH32 0x4552433732313A2063616C6C6572206973206E6F7420746F6B656E206F776E65 PUSH1 0x40 DUP3 ADD MSTORE PUSH13 0x1C881BDC88185C1C1C9BDD9959 PUSH1 0x9A SHL PUSH1 0x60 DUP3 ADD MSTORE PUSH1 0x80 ADD SWAP1 JUMP JUMPDEST PUSH1 0x0 PUSH1 0x20 DUP3 DUP5 SUB SLT ISZERO PUSH2 0x13DD JUMPI PUSH1 0x0 DUP1 REVERT JUMPDEST DUP2 MLOAD PUSH2 0x1043 DUP2 PUSH2 0x1159 JUMP JUMPDEST PUSH1 0x0 PUSH1 0x1 DUP3 ADD PUSH2 0x1408 JUMPI PUSH4 0x4E487B71 PUSH1 0xE0 SHL PUSH1 0x0 MSTORE PUSH1 0x11 PUSH1 0x4 MSTORE PUSH1 0x24 PUSH1 0x0 REVERT JUMPDEST POP PUSH1 0x1 ADD SWAP1 JUMP JUMPDEST PUSH1 0x20 DUP1 DUP3 MSTORE PUSH1 0x25 SWAP1 DUP3 ADD MSTORE PUSH32 0x4552433732313A207472616E736665722066726F6D20696E636F727265637420 PUSH1 0x40 DUP3 ADD MSTORE PUSH5 0x37BBB732B9 PUSH1 0xD9 SHL PUSH1 0x60 DUP3 ADD MSTORE PUSH1 0x80 ADD SWAP1 JUMP JUMPDEST PUSH1 0x20 DUP1 DUP3 MSTORE PUSH1 0x32 SWAP1 DUP3 ADD MSTORE PUSH32 0x4552433732313A207472616E7366657220746F206E6F6E204552433732315265 PUSH1 0x40 DUP3 ADD MSTORE PUSH18 0x31B2B4BB32B91034B6B83632B6B2B73A32B9 PUSH1 0x71 SHL PUSH1 0x60 DUP3 ADD MSTORE PUSH1 0x80 ADD SWAP1 JUMP JUMPDEST PUSH1 0x1F DUP3 GT ISZERO PUSH2 0x577 JUMPI PUSH1 0x0 DUP2 DUP2 MSTORE PUSH1 0x20 DUP2 KECCAK256 PUSH1 0x1F DUP6 ADD PUSH1 0x5 SHR DUP2 ADD PUSH1 0x20 DUP7 LT ISZERO PUSH2 0x14CD JUMPI POP DUP1 JUMPDEST PUSH1 0x1F DUP6 ADD PUSH1 0x5 SHR DUP3 ADD SWAP2 POP JUMPDEST DUP2 DUP2 LT ISZERO PUSH2 0x14EC JUMPI DUP3 DUP2 SSTORE PUSH1 0x1 ADD PUSH2 0x14D9 JUMP JUMPDEST POP POP POP POP POP POP JUMP JUMPDEST DUP2 MLOAD PUSH8 0xFFFFFFFFFFFFFFFF DUP2 GT ISZERO PUSH2 0x150E JUMPI PUSH2 0x150E PUSH2 0x119E JUMP JUMPDEST PUSH2 0x1522 DUP2 PUSH2 0x151C DUP5 SLOAD PUSH2 0x1344 JUMP JUMPDEST DUP5 PUSH2 0x14A6 JUMP JUMPDEST PUSH1 0x20 DUP1 PUSH1 0x1F DUP4 GT PUSH1 0x1 DUP2 EQ PUSH2 0x1557 JUMPI PUSH1 0x0 DUP5 ISZERO PUSH2 0x153F JUMPI POP DUP6 DUP4 ADD MLOAD JUMPDEST PUSH1 0x0 NOT PUSH1 0x3 DUP7 SWAP1 SHL SHR NOT AND PUSH1 0x1 DUP6 SWAP1 SHL OR DUP6 SSTORE PUSH2 0x14EC JUMP JUMPDEST PUSH1 0x0 DUP6 DUP2 MSTORE PUSH1 0x20 DUP2 KECCAK256 PUSH1 0x1F NOT DUP7 AND SWAP2 JUMPDEST DUP3 DUP2 LT ISZERO PUSH2 0x1586 JUMPI DUP9 DUP7 ADD MLOAD DUP3 SSTORE SWAP5 DUP5 ADD SWAP5 PUSH1 0x1 SWAP1 SWAP2 ADD SWAP1 DUP5 ADD PUSH2 0x1567 JUMP JUMPDEST POP DUP6 DUP3 LT ISZERO PUSH2 0x15A4 JUMPI DUP8 DUP6 ADD MLOAD PUSH1 0x0 NOT PUSH1 0x3 DUP9 SWAP1 SHL PUSH1 0xF8 AND SHR NOT AND DUP2 SSTORE JUMPDEST POP POP POP POP POP PUSH1 0x1 SWAP1 DUP2 SHL ADD SWAP1 SSTORE POP JUMP JUMPDEST PUSH1 0x1 PUSH1 0x1 PUSH1 0xA0 SHL SUB DUP6 DUP2 AND DUP3 MSTORE DUP5 AND PUSH1 0x20 DUP3 ADD MSTORE PUSH1 0x40 DUP2 ADD DUP4 SWAP1 MSTORE PUSH1 0x80 PUSH1 0x60 DUP3 ADD DUP2 SWAP1 MSTORE PUSH1 0x0 SWAP1 PUSH2 0x15E7 SWAP1 DUP4 ADD DUP5 PUSH2 0x104A JUMP JUMPDEST SWAP7 SWAP6 POP POP POP POP POP POP JUMP JUMPDEST PUSH1 0x0 PUSH1 0x20 DUP3 DUP5 SUB SLT ISZERO PUSH2 0x1603 JUMPI PUSH1 0x0 DUP1 REVERT JUMPDEST DUP2 MLOAD PUSH2 0x1043 DUP2 PUSH2 0x1010 JUMP INVALID LOG2 PUSH5 0x6970667358 0x22 SLT KECCAK256 0xBE PUSH18 0xD14EB8EC1DA51ACE111790169E00A8C46B35 0xC2 0xF7 CALLER JUMP RETURN PUSH30 0xD134516C2F64736F6C63430008120033A26469706673582212206A96D1 0x26 0xE1 0xD5 SWAP5 CREATE2 0xA9 0xD8 ADDMOD 0x4B CHAINID 0xD1 0x21 PUSH5 0x6F5ABA966B CREATE PREVRANDAO PREVRANDAO LOG4 0xD2 PUSH23 0xE58F93033F64736F6C6343000812003300000000000000 "
		},
		"gasEstimates": {
			"creation": {
				"codeDepositCost": "3974400",
				"executionCost": "infinite",
				"totalCost": "infinite"
			},
			"external": {
				"approveFactorySpender(uint256,address)": "infinite",
				"approveTokens(uint256,address)": "infinite",
				"approveUSDTFactory(uint256,address,uint256)": "infinite",
				"bigDistribute(uint256,address,address,uint256)": "infinite",
				"bigDistribute2NFT(uint256,uint256,address,uint256)": "infinite",
				"buyAndMint(uint256,uint256)": "infinite",
				"calculateDistributeAmounts(uint256,uint256)": "infinite",
				"checkRifaBalance(uint256)": "infinite",
				"createProject(string,string,uint256,uint256,uint256,uint256,string,uint256,string)": "infinite",
				"ganador(uint256,uint256)": "infinite",
				"getBalanceOfUSDT(uint256)": "infinite",
				"getProject(uint256)": "infinite",
				"getProjects()": "infinite",
				"maxTokensPerContract()": "2373",
				"owner()": "2376",
				"ownerOfToken(uint256,uint256)": "infinite",
				"projects(uint256)": "infinite",
				"renounceOwnership()": "infinite",
				"setRifaPlayed(uint256)": "31091",
				"testTransfer(uint256)": "infinite",
				"transferFullBalance(uint256,address)": "infinite",
				"transferOwnership(address)": "infinite",
				"transferToken(uint256,address,uint256)": "infinite",
				"usdtToken()": "2448",
				"winner2Address(uint256,address)": "infinite"
			}
		},
		"methodIdentifiers": {
			"approveFactorySpender(uint256,address)": "2fa8c4e1",
			"approveTokens(uint256,address)": "be57b5ef",
			"approveUSDTFactory(uint256,address,uint256)": "4240c961",
			"bigDistribute(uint256,address,address,uint256)": "db0bef51",
			"bigDistribute2NFT(uint256,uint256,address,uint256)": "694cd7f9",
			"buyAndMint(uint256,uint256)": "8f0c3b1a",
			"calculateDistributeAmounts(uint256,uint256)": "8ac843ba",
			"checkRifaBalance(uint256)": "07481175",
			"createProject(string,string,uint256,uint256,uint256,uint256,string,uint256,string)": "246fbd35",
			"ganador(uint256,uint256)": "7a2e2bfd",
			"getBalanceOfUSDT(uint256)": "d01c3b41",
			"getProject(uint256)": "f0f3f2c8",
			"getProjects()": "dcc60128",
			"maxTokensPerContract()": "92fd4fc2",
			"owner()": "8da5cb5b",
			"ownerOfToken(uint256,uint256)": "38e58d99",
			"projects(uint256)": "107046bd",
			"renounceOwnership()": "715018a6",
			"setRifaPlayed(uint256)": "89b94d23",
			"testTransfer(uint256)": "040821fc",
			"transferFullBalance(uint256,address)": "d1e6df97",
			"transferOwnership(address)": "f2fde38b",
			"transferToken(uint256,address,uint256)": "dbb5313f",
			"usdtToken()": "a98ad46c",
			"winner2Address(uint256,address)": "2a197df8"
		}
	},
	"abi": [
		{
			"inputs": [
				{
					"internalType": "contract IERC20",
					"name": "_usdtToken",
					"type": "address"
				}
			],
			"stateMutability": "nonpayable",
			"type": "constructor"
		},
		{
			"anonymous": false,
			"inputs": [
				{
					"indexed": true,
					"internalType": "uint256",
					"name": "projectId",
					"type": "uint256"
				},
				{
					"indexed": true,
					"internalType": "address",
					"name": "buyer",
					"type": "address"
				},
				{
					"indexed": false,
					"internalType": "uint256",
					"name": "prizeWithPercentage",
					"type": "uint256"
				},
				{
					"indexed": false,
					"internalType": "uint256",
					"name": "totalSupply",
					"type": "uint256"
				}
			],
			"name": "BuyAndMintEvent",
			"type": "event"
		},
		{
			"anonymous": false,
			"inputs": [
				{
					"indexed": true,
					"internalType": "address",
					"name": "previousOwner",
					"type": "address"
				},
				{
					"indexed": true,
					"internalType": "address",
					"name": "newOwner",
					"type": "address"
				}
			],
			"name": "OwnershipTransferred",
			"type": "event"
		},
		{
			"inputs": [
				{
					"internalType": "uint256",
					"name": "amount",
					"type": "uint256"
				},
				{
					"internalType": "address",
					"name": "addressFactory",
					"type": "address"
				}
			],
			"name": "approveFactorySpender",
			"outputs": [],
			"stateMutability": "nonpayable",
			"type": "function"
		},
		{
			"inputs": [
				{
					"internalType": "uint256",
					"name": "amount",
					"type": "uint256"
				},
				{
					"internalType": "address",
					"name": "spender",
					"type": "address"
				}
			],
			"name": "approveTokens",
			"outputs": [],
			"stateMutability": "nonpayable",
			"type": "function"
		},
		{
			"inputs": [
				{
					"internalType": "uint256",
					"name": "projectId",
					"type": "uint256"
				},
				{
					"internalType": "address",
					"name": "spender",
					"type": "address"
				},
				{
					"internalType": "uint256",
					"name": "amount",
					"type": "uint256"
				}
			],
			"name": "approveUSDTFactory",
			"outputs": [],
			"stateMutability": "nonpayable",
			"type": "function"
		},
		{
			"inputs": [
				{
					"internalType": "uint256",
					"name": "projectId",
					"type": "uint256"
				},
				{
					"internalType": "address",
					"name": "recipient",
					"type": "address"
				},
				{
					"internalType": "address",
					"name": "recipient2",
					"type": "address"
				},
				{
					"internalType": "uint256",
					"name": "percentageToRecipient2",
					"type": "uint256"
				}
			],
			"name": "bigDistribute",
			"outputs": [],
			"stateMutability": "nonpayable",
			"type": "function"
		},
		{
			"inputs": [
				{
					"internalType": "uint256",
					"name": "projectId",
					"type": "uint256"
				},
				{
					"internalType": "uint256",
					"name": "tokenId",
					"type": "uint256"
				},
				{
					"internalType": "address",
					"name": "recipient2",
					"type": "address"
				},
				{
					"internalType": "uint256",
					"name": "percentageToRecipient2",
					"type": "uint256"
				}
			],
			"name": "bigDistribute2NFT",
			"outputs": [],
			"stateMutability": "nonpayable",
			"type": "function"
		},
		{
			"inputs": [
				{
					"internalType": "uint256",
					"name": "projectId",
					"type": "uint256"
				},
				{
					"internalType": "uint256",
					"name": "numTokens",
					"type": "uint256"
				}
			],
			"name": "buyAndMint",
			"outputs": [],
			"stateMutability": "nonpayable",
			"type": "function"
		},
		{
			"inputs": [
				{
					"internalType": "uint256",
					"name": "projectId",
					"type": "uint256"
				},
				{
					"internalType": "uint256",
					"name": "percentageToRecipient2",
					"type": "uint256"
				}
			],
			"name": "calculateDistributeAmounts",
			"outputs": [
				{
					"internalType": "uint256",
					"name": "transferAmountToRecipient",
					"type": "uint256"
				},
				{
					"internalType": "uint256",
					"name": "transferAmountToRecipient2",
					"type": "uint256"
				}
			],
			"stateMutability": "view",
			"type": "function"
		},
		{
			"inputs": [
				{
					"internalType": "uint256",
					"name": "projectId",
					"type": "uint256"
				}
			],
			"name": "checkRifaBalance",
			"outputs": [
				{
					"internalType": "uint256",
					"name": "",
					"type": "uint256"
				}
			],
			"stateMutability": "view",
			"type": "function"
		},
		{
			"inputs": [
				{
					"internalType": "string",
					"name": "name",
					"type": "string"
				},
				{
					"internalType": "string",
					"name": "symbol",
					"type": "string"
				},
				{
					"internalType": "uint256",
					"name": "numTokens",
					"type": "uint256"
				},
				{
					"internalType": "uint256",
					"name": "_nftPriceInDollars",
					"type": "uint256"
				},
				{
					"internalType": "uint256",
					"name": "date",
					"type": "uint256"
				},
				{
					"internalType": "uint256",
					"name": "_profitPercentage",
					"type": "uint256"
				},
				{
					"internalType": "string",
					"name": "_description",
					"type": "string"
				},
				{
					"internalType": "uint256",
					"name": "_maxTokensPerContract",
					"type": "uint256"
				},
				{
					"internalType": "string",
					"name": "uri",
					"type": "string"
				}
			],
			"name": "createProject",
			"outputs": [
				{
					"components": [
						{
							"internalType": "contract Rifas",
							"name": "rifa",
							"type": "address"
						},
						{
							"internalType": "string",
							"name": "name",
							"type": "string"
						},
						{
							"internalType": "string",
							"name": "symbol",
							"type": "string"
						},
						{
							"internalType": "uint256",
							"name": "mintedTokens",
							"type": "uint256"
						},
						{
							"internalType": "uint256",
							"name": "currentTokenId",
							"type": "uint256"
						},
						{
							"internalType": "uint256",
							"name": "date",
							"type": "uint256"
						},
						{
							"internalType": "uint256",
							"name": "profitPercentage",
							"type": "uint256"
						},
						{
							"internalType": "uint256",
							"name": "usdtBalance",
							"type": "uint256"
						},
						{
							"internalType": "uint256",
							"name": "nftPrice",
							"type": "uint256"
						},
						{
							"internalType": "string",
							"name": "description",
							"type": "string"
						},
						{
							"internalType": "bool",
							"name": "hasBeenPlayed",
							"type": "bool"
						},
						{
							"internalType": "uint256",
							"name": "maxTokensPerContract",
							"type": "uint256"
						},
						{
							"internalType": "uint256",
							"name": "projectId",
							"type": "uint256"
						}
					],
					"internalType": "struct ProjectRifasFactory.Project",
					"name": "",
					"type": "tuple"
				}
			],
			"stateMutability": "nonpayable",
			"type": "function"
		},
		{
			"inputs": [
				{
					"internalType": "uint256",
					"name": "projectId",
					"type": "uint256"
				},
				{
					"internalType": "uint256",
					"name": "tokenId",
					"type": "uint256"
				}
			],
			"name": "ganador",
			"outputs": [],
			"stateMutability": "nonpayable",
			"type": "function"
		},
		{
			"inputs": [
				{
					"internalType": "uint256",
					"name": "projectId",
					"type": "uint256"
				}
			],
			"name": "getBalanceOfUSDT",
			"outputs": [
				{
					"internalType": "uint256",
					"name": "",
					"type": "uint256"
				}
			],
			"stateMutability": "view",
			"type": "function"
		},
		{
			"inputs": [
				{
					"internalType": "uint256",
					"name": "idProject",
					"type": "uint256"
				}
			],
			"name": "getProject",
			"outputs": [
				{
					"components": [
						{
							"internalType": "contract Rifas",
							"name": "rifa",
							"type": "address"
						},
						{
							"internalType": "string",
							"name": "name",
							"type": "string"
						},
						{
							"internalType": "string",
							"name": "symbol",
							"type": "string"
						},
						{
							"internalType": "uint256",
							"name": "mintedTokens",
							"type": "uint256"
						},
						{
							"internalType": "uint256",
							"name": "currentTokenId",
							"type": "uint256"
						},
						{
							"internalType": "uint256",
							"name": "date",
							"type": "uint256"
						},
						{
							"internalType": "uint256",
							"name": "profitPercentage",
							"type": "uint256"
						},
						{
							"internalType": "uint256",
							"name": "usdtBalance",
							"type": "uint256"
						},
						{
							"internalType": "uint256",
							"name": "nftPrice",
							"type": "uint256"
						},
						{
							"internalType": "string",
							"name": "description",
							"type": "string"
						},
						{
							"internalType": "bool",
							"name": "hasBeenPlayed",
							"type": "bool"
						},
						{
							"internalType": "uint256",
							"name": "maxTokensPerContract",
							"type": "uint256"
						},
						{
							"internalType": "uint256",
							"name": "projectId",
							"type": "uint256"
						}
					],
					"internalType": "struct ProjectRifasFactory.Project",
					"name": "",
					"type": "tuple"
				}
			],
			"stateMutability": "view",
			"type": "function"
		},
		{
			"inputs": [],
			"name": "getProjects",
			"outputs": [
				{
					"components": [
						{
							"internalType": "contract Rifas",
							"name": "rifa",
							"type": "address"
						},
						{
							"internalType": "string",
							"name": "name",
							"type": "string"
						},
						{
							"internalType": "string",
							"name": "symbol",
							"type": "string"
						},
						{
							"internalType": "uint256",
							"name": "mintedTokens",
							"type": "uint256"
						},
						{
							"internalType": "uint256",
							"name": "currentTokenId",
							"type": "uint256"
						},
						{
							"internalType": "uint256",
							"name": "date",
							"type": "uint256"
						},
						{
							"internalType": "uint256",
							"name": "profitPercentage",
							"type": "uint256"
						},
						{
							"internalType": "uint256",
							"name": "usdtBalance",
							"type": "uint256"
						},
						{
							"internalType": "uint256",
							"name": "nftPrice",
							"type": "uint256"
						},
						{
							"internalType": "string",
							"name": "description",
							"type": "string"
						},
						{
							"internalType": "bool",
							"name": "hasBeenPlayed",
							"type": "bool"
						},
						{
							"internalType": "uint256",
							"name": "maxTokensPerContract",
							"type": "uint256"
						},
						{
							"internalType": "uint256",
							"name": "projectId",
							"type": "uint256"
						}
					],
					"internalType": "struct ProjectRifasFactory.Project[]",
					"name": "",
					"type": "tuple[]"
				}
			],
			"stateMutability": "view",
			"type": "function"
		},
		{
			"inputs": [],
			"name": "maxTokensPerContract",
			"outputs": [
				{
					"internalType": "uint256",
					"name": "",
					"type": "uint256"
				}
			],
			"stateMutability": "view",
			"type": "function"
		},
		{
			"inputs": [],
			"name": "owner",
			"outputs": [
				{
					"internalType": "address",
					"name": "",
					"type": "address"
				}
			],
			"stateMutability": "view",
			"type": "function"
		},
		{
			"inputs": [
				{
					"internalType": "uint256",
					"name": "projectId",
					"type": "uint256"
				},
				{
					"internalType": "uint256",
					"name": "tokenId",
					"type": "uint256"
				}
			],
			"name": "ownerOfToken",
			"outputs": [
				{
					"internalType": "address",
					"name": "",
					"type": "address"
				}
			],
			"stateMutability": "view",
			"type": "function"
		},
		{
			"inputs": [
				{
					"internalType": "uint256",
					"name": "",
					"type": "uint256"
				}
			],
			"name": "projects",
			"outputs": [
				{
					"internalType": "contract Rifas",
					"name": "rifa",
					"type": "address"
				},
				{
					"internalType": "string",
					"name": "name",
					"type": "string"
				},
				{
					"internalType": "string",
					"name": "symbol",
					"type": "string"
				},
				{
					"internalType": "uint256",
					"name": "mintedTokens",
					"type": "uint256"
				},
				{
					"internalType": "uint256",
					"name": "currentTokenId",
					"type": "uint256"
				},
				{
					"internalType": "uint256",
					"name": "date",
					"type": "uint256"
				},
				{
					"internalType": "uint256",
					"name": "profitPercentage",
					"type": "uint256"
				},
				{
					"internalType": "uint256",
					"name": "usdtBalance",
					"type": "uint256"
				},
				{
					"internalType": "uint256",
					"name": "nftPrice",
					"type": "uint256"
				},
				{
					"internalType": "string",
					"name": "description",
					"type": "string"
				},
				{
					"internalType": "bool",
					"name": "hasBeenPlayed",
					"type": "bool"
				},
				{
					"internalType": "uint256",
					"name": "maxTokensPerContract",
					"type": "uint256"
				},
				{
					"internalType": "uint256",
					"name": "projectId",
					"type": "uint256"
				}
			],
			"stateMutability": "view",
			"type": "function"
		},
		{
			"inputs": [],
			"name": "renounceOwnership",
			"outputs": [],
			"stateMutability": "nonpayable",
			"type": "function"
		},
		{
			"inputs": [
				{
					"internalType": "uint256",
					"name": "projectId",
					"type": "uint256"
				}
			],
			"name": "setRifaPlayed",
			"outputs": [],
			"stateMutability": "nonpayable",
			"type": "function"
		},
		{
			"inputs": [
				{
					"internalType": "uint256",
					"name": "projectId",
					"type": "uint256"
				}
			],
			"name": "testTransfer",
			"outputs": [],
			"stateMutability": "nonpayable",
			"type": "function"
		},
		{
			"inputs": [
				{
					"internalType": "uint256",
					"name": "projectId",
					"type": "uint256"
				},
				{
					"internalType": "address",
					"name": "recipient",
					"type": "address"
				}
			],
			"name": "transferFullBalance",
			"outputs": [],
			"stateMutability": "nonpayable",
			"type": "function"
		},
		{
			"inputs": [
				{
					"internalType": "address",
					"name": "newOwner",
					"type": "address"
				}
			],
			"name": "transferOwnership",
			"outputs": [],
			"stateMutability": "nonpayable",
			"type": "function"
		},
		{
			"inputs": [
				{
					"internalType": "uint256",
					"name": "projectId",
					"type": "uint256"
				},
				{
					"internalType": "address",
					"name": "to",
					"type": "address"
				},
				{
					"internalType": "uint256",
					"name": "tokenId",
					"type": "uint256"
				}
			],
			"name": "transferToken",
			"outputs": [],
			"stateMutability": "nonpayable",
			"type": "function"
		},
		{
			"inputs": [],
			"name": "usdtToken",
			"outputs": [
				{
					"internalType": "contract IERC20",
					"name": "",
					"type": "address"
				}
			],
			"stateMutability": "view",
			"type": "function"
		},
		{
			"inputs": [
				{
					"internalType": "uint256",
					"name": "projectId",
					"type": "uint256"
				},
				{
					"internalType": "address",
					"name": "recipient",
					"type": "address"
				}
			],
			"name": "winner2Address",
			"outputs": [],
			"stateMutability": "nonpayable",
			"type": "function"
		}
	]
}